:020000040000FA
:100000000C946B010C9493010C9493010C94A00E2E
:100010000C94A00E0C94A00E0C9493010C949301DC
:100020000C9493010C94180F0C9493010C9493016D
:100030000C9493010C9493010C9493010C949301F0
:100040000C942A0D0C9493010C94F80C0C94D20C83
:100050000C9493010C9493010C9493010C949301D0
:100060000C94810D0C9493014E414E494E495459C4
:10007000494E46CDCCCC3D0AD7233C17B7D1387773
:10008000CC2B329595E6241FB14F0A000020410089
:1000900000C84200401C4620BCBE4CCA1B0E5AAED3
:1000A000C59D7400407A10F35A00A0724E180900E2
:1000B00010A5D4E80000E87648170000E40B5402CD
:1000C0000000CA9A3B000000E1F505000080969808
:1000D00000000040420F000000A086010000001058
:1000E0002700000000E8030000000064000000009A
:1000F000000A00000000000100000000002C76D87B
:1001000088DC674F0823DFC1DFAE59E1B1B796E560
:10011000E3E453C63AE651997696E8E6C28426EBC4
:10012000898C9B62ED407C6FFCEFBC9C9F40F2BAD7
:10013000A56FA5F490055A2AF75C936B6CF9676D6F
:10014000C11BFCE0E40D47FEF520E6B500D0ED90C4
:100150002E0300943577050080841E080000204E91
:100160000A000000C80C333333330F986E1283112A
:1001700041EF8D2114893BE65516CFFEE6DB18D101
:10018000844B381BF77C1D901DA4BBE424203284D3
:10019000725E228100C9F124ECA1E53D27576F7200
:1001A0006B005365747570007368696D206B6C61CA
:1001B00070616D00576174657220466C61670070F4
:1001C000776D506572696F644D7300576174657225
:1001D0002F74656D7000416C61726D2054656D7097
:1001E000204C696D697400566F6461566B6C2074A5
:1001F000656D70004B75624B6F6E65630050776D77
:100200004B6F6E6563004B6C6170616E2F6D6F7428
:100210006F7200A2019D010602FD01F401E701D603
:1002200001CB01BF01B401A801205B455D004E6F09
:10023000206974656D73004D656E753A00005EBC93
:10024000E2613FDD83C29C7E20A3FD1F41009D2310
:10025000BE46DB65F88C11AF32CA57E974252C0015
:10026000486F6D6553616D6F676F6E2E72752F34B9
:100270002E382C00252C00486F6D6553616D6F671B
:100280006F6E2E72752F342E382C00000000002463
:100290000027002A0000000000230026002900009B
:1002A000000000250028002B0004040404040404BA
:1002B0000402020202020203030303030301020415
:1002C00008102040800102040810200102040810D8
:1002D00020003E0F4B2711241FBECFEFD8E0DEBF1A
:1002E000CDBF12E0A0E0B1E0E8EFF2E602C0059079
:1002F0000D92A238B107D9F726E0A2E8B2E001C01A
:100300001D92A937B207E1F711E0CAE6D1E004C0B7
:100310002197FE010E948B2EC936D107C9F70E9492
:10032000DB100C946F310C9400008091EB0580730E
:10033000803339F48091DD058095881F8827881FD8
:10034000089580E008958091EB0584FD09C085FF44
:1003500007C08091DD058095881F8827881F089534
:1003600080E008958F929F92AF92BF92CF92DF92DA
:10037000EF92FF926B017C0120E030E040E251E41B
:100380000E94CC2B4B015C0120E030E0A901C701A9
:10039000B6010E944A2E20E030E040E05FEB87FD8E
:1003A00004C020E030E040E05FE3C501B4010E94FA
:1003B000362D0E94142E0E946D2B20E030E040E28A
:1003C00051E40E94A22DFF90EF90DF90CF90BF905C
:1003D000AF909F908F900895982F20912F0581E0E6
:1003E000213208F043C080910B058111FCCF809130
:1003F0002E0532E030930B0590930A059FEF909302
:1004000009051092080520930705AEE0B5E0E7EE78
:10041000F4E090E0291331C01092E6049091E604D4
:10042000880F892B8093E6048091E504813049F59B
:100430001092E5048091E6048093BB008091BC009B
:1004400083FDF8CF85EC8093BC0080910B05823052
:10045000E1F3809109058F3FB1F080910905803269
:10046000A1F080910905803391F084E010920D0590
:1004700010922F0510920C0508953D9131939F5FC6
:10048000C9CF85EEE0CF80E0F1CF82E0EFCF83E00F
:10049000EDCF089508951092E4041092E3041092B1
:1004A0000D0510922F0510920B0581E080930A052F
:1004B0001092E504449A459AE9EBF0E080818E7F42
:1004C000808380818D7F808388E48093B80085E479
:1004D0008093BC0089E492E09093E2048093E1046D
:1004E0008AE492E09093E0048093DF040895DC01B5
:1004F000ED91FC910190F081E02D0994EF92FF9233
:100500000F931F93CF93DF938C017B01D0E0C0E06A
:10051000F701EC0FFD1F6491662361F0D801ED91A6
:10052000FC910190F081E02DC8010995892B11F013
:100530002196EECFCE01DF91CF911F910F91FF90C9
:10054000EF900895AF92BF92CF92DF92EF92FF9219
:100550000F931F93CF93DF936C017B018B01040FEB
:10056000151FEB015E01AE18BF08C017D10759F087
:100570006991D601ED91FC910190F081E02DC601C9
:100580000995892B79F7C501DF91CF911F910F91C3
:10059000FF90EF90DF90CF90BF90AF900895FC0157
:1005A000538D448D252F30E0842F90E0821B930BD8
:1005B000541710F0CF96089501970895FC01918D7E
:1005C000828D981761F0A28DAE0FBF2FB11D5D9681
:1005D0008C91928D9F5F9F73928F90E008958FEF23
:1005E0009FEF0895FC01918D828D981731F0828DD7
:1005F000E80FF11D858D90E008958FEF9FEF08952E
:10060000FC01918D228D892F90E0805C9F4F821B91
:1006100091098F739927089580E395E00E94000364
:1006200021E0892B09F420E0822F089580E090E0FA
:10063000892B29F00E940C0381110C94000008956D
:10064000FC01A48DA80FB92FB11DA35ABF4F2C9147
:10065000848D90E001968F739927848FA689B7893E
:100660002C93A089B1898C91837080648C93938D35
:10067000848D981306C00288F389E02D80818F7DD8
:1006800080830895EF92FF920F931F93CF93DF9390
:10069000EC0181E0888F9B8D8C8D98131AC0E889BE
:1006A000F989808185FF15C09FB7F894EE89FF898D
:1006B0006083E889F98980818370806480839FBF2B
:1006C00081E090E0DF91CF911F910F91FF90EF902B
:1006D0000895F62E0B8D10E00F5F1F4F0F7311273B
:1006E000E02E8C8D8E110CC00FB607FCFACFE88976
:1006F000F989808185FFF5CFCE010E942003F1CFDB
:10070000EB8DEC0FFD2FF11DE35AFF4FF0829FB7E9
:10071000F8940B8FEA89FB8980818062CFCFCF93D9
:10072000DF93EC01888D8823B9F0AA89BB89E88919
:10073000F9898C9185FD03C0808186FD0DC00FB6BF
:1007400007FCF7CF8C9185FFF2CF808185FFEDCF3D
:10075000CE010E942003E9CFDF91CF910895880F49
:10076000991F880F991F05970197F1F708951F9317
:10077000CF93DF931091FF05C0910006D091010641
:10078000912F909580FF16C0F8948A8189238A83DF
:100790008981812B89838AE090E00E94AF038A815E
:1007A000182B1A83789487E390E0DF91CF911F9103
:1007B0000C94AF03F8948A8189238A838981812BE1
:1007C000898381E490E00E94AF038A81182B1A8309
:1007D000789485E090E0E9CF0F931F93CF93DF9358
:1007E000082FC8E0D0E011E081E0902F912309F4B8
:1007F00080E00E94B703110F2197B1F7F894E091C0
:100800000006F091010691818091FF058095982363
:100810009183E0910006F091010692818923828301
:100820007894DF91CF911F910F9108950F931F93AB
:10083000CF93DF938C0185E50E94EC03E801085F0C
:100840001F4F89910E94EC03C017D107D1F7DF91A8
:10085000CF911F910F910895FF920F931F93CF9304
:10086000DF931091FF05C0910006D0910106F89426
:100870008981012F00958023898378948DE7F82E54
:10088000FA94FF2061F182E090E00E94AF0388813A
:100890008123B1F3F8948A8180238A838981812B13
:1008A0008983789480EE91E00E94AF03F894898167
:1008B0008023898386E490E00E94AF038881182317
:1008C000C1E009F0C0E078948AE991E00E94AF03AA
:1008D0008C2FDF91CF911F910F91FF900895C0E071
:1008E000F7CF0F931F93CF93DF931091FF05C09124
:1008F0000006D0910106F8948981812B89838A8131
:10090000012F009580238A8383E090E00E94AF034B
:100910008981802389838AE090E00E94AF03C881A7
:10092000789485E390E00E94AF031C2381E009F4F2
:1009300080E0DF91CF911F910F9108953FB7F89418
:1009400080910A0390910B03A0910C03B0910D03C9
:1009500026B5A89B05C02F3F19F00196A11DB11D1A
:100960003FBFBA2FA92F982F8827BC01CD01620F56
:10097000711D811D911D42E0660F771F881F991F11
:100980004A95D1F708958F929F92AF92BF92CF92DE
:10099000DF92EF92FF926B017C010E949E044B015B
:1009A0005C010E949E04681979098A099B09683EC6
:1009B000734081059105A8F381E0C81AD108E108C8
:1009C000F10828EE820E23E0921EA11CB11CC11476
:1009D000D104E104F10429F7FF90EF90DF90CF906C
:1009E000BF90AF909F908F9008952FB7F89460912B
:1009F00006037091070380910803909109032FBFAC
:100A00000895CF932091DC053091DD0534FBCC2790
:100A1000C0F9C82736FF06C03F7B3093DD05209321
:100A2000DC05C1E08091DC059091DD0591FD08C0F9
:100A3000CC2309F440C092609093DD058093DC05DF
:100A40000E94F5042091DA053091DB05FB01E21BE1
:100A5000F30B2091DC053091DD05CC2309F44CC06B
:100A600025FD2CC04091E20532FD08C0442331F041
:100A700034603093DD052093DC050FC04E171F0650
:100A800019F010F041110DC022623093DD05209362
:100A9000DC057093E1056093E0057093DB056093DE
:100AA000DA058091DC059091DD058F719927C1E011
:100AB000892B09F4C0E08C2FCF91089537FDF1CF39
:100AC00026FD0BC04091E405A0E14A9FA00111243E
:100AD000E417F50730F32464CCCF4091E50527FFF8
:100AE0004091E405A0E14A9FA00111242868E41781
:100AF000F50708F0BECFD5CF25FF19C08091E205DC
:100B00008E171F0611F008F03FC026FD05C080912A
:100B1000D9058F5F8093D90537FD1092D9052F7DB8
:100B2000206131603093DD052093DC052DC030FF5E
:100B300015C037FD05C020613093DD052093DC052D
:100B40002091DC053091DD053E773093DD05209363
:100B5000DC057093DB056093DA0516C04091D9057A
:100B6000442301F1C901807C9927892BC9F4809124
:100B7000E30540E1849FC0011124E817F90780F4E0
:100B80001092E1051092E0058091DC059091DD0561
:100B900092FF87CF9B7F9093DD058093DC0581CF0B
:100BA0002160C0CF31FFF0CF2F733D7F386030938D
:100BB000DD052093DC051092E1051092E005C9CF18
:100BC000CF93C82F8091EE059091EF050097D1F15A
:100BD0002091EB0581FF32C020612093EB0520912D
:100BE000EB0582FF2DC028602093EB0523E096954E
:100BF00087952A95E1F79093EF058093EE05809114
:100C0000DC059091DD0585FF48C090689093DD0577
:100C10008093DC058091DC059091DD0598609093D0
:100C2000DD058093DC058091EB0580628093EB0508
:100C30008C2F0E94010581E0CF9108952F7ECDCFAA
:100C4000277FD2CF662329F18091EB051616ECF4AD
:100C500080618093EB050E94F5042091DA053091C4
:100C6000DB05AB01421B530B9A014091ED057093DC
:100C7000DB056093DA058091EB054217130639F026
:100C800030F088608093EB05BACF8F7EE2CF877F0C
:100C9000F9CF8C2FCF910C9401051092D905BACFC2
:100CA0000895DC0180E0615090F09D919827E92F34
:100CB000EF70F0E0E35CFD4F2491E92FE295EF70D7
:100CC000F0E0E35BFD4FE491822F8E27ECCF089597
:100CD0006F927F928F929F92AF92BF92CF92DF924C
:100CE000EF92FF920F931F93CF93DF93CDB7DEB7B1
:100CF0002C970FB6F894DEBF0FBECDBF5C010E94EB
:100D00002C04C5010E9416048EEB0E94EC038E0198
:100D10000F5F1F4F4E018AE0880E911C380188E05A
:100D2000C82ED12CF12CEE24E3940E947104811181
:100D3000FE28EE0CE1E0CE1AD108B9F7F801F192E5
:100D40008F01E815F90559F70E942C04C5010E948E
:100D5000160484E40E94EC0368E0C3010E9451067B
:100D6000998589132FC069817A818D81807611F5EB
:100D7000687F072E000C880B990B0E946D2B20E0DA
:100D800030E040E85DE30E94CC2B2C960FB6F8943F
:100D9000DEBF0FBECDBFDF91CF911F910F91FF90AE
:100DA000EF90DF90CF90BF90AF909F908F907F900B
:100DB0006F900895803211F46C7FDBCF8034C9F6D8
:100DC0006E7FD7CF60E070E88AEF93E4DECF85EDE9
:100DD0008093BC008091BC0084FDFCCF10920B0579
:100DE00008952091E202260F3327331F2132310567
:100DF000ECF420910B05FC0190E080E0243069F0D8
:100E000082E00895A091E2022191AC014E535D4F22
:100E1000A40FB52FB11D2C930196861798F38091DE
:100E2000E202680F6093E20280E0089581E0089595
:100E30000895E091E4048091E304E81730F4F0E0D1
:100E4000E154FB4F808190E008958FEF9FEF08956C
:100E50009091E4048091E3042FEF3FEF981748F45A
:100E6000E92FF0E0E154FB4F208130E09F5F909349
:100E7000E404C90108958091E3049091E404891B7E
:100E8000990B0895CF92DF92EF92FF920F931F93E9
:100E9000CF93DF937C01CB018A0120910C052223A3
:100EA00089F0EB016B01C40ED51ECC15DD0569F090
:100EB0006991D701ED91FC910190F081E02DC7017E
:100EC0000995F3CF642F0E94F106C801DF91CF91FD
:100ED0001F910F91FF90EF90DF90CF90089521E048
:100EE00020930C0527E720932E0510920D051092F4
:100EF0002F0542E050E0BC018DEC95E00E944207D6
:100F000081E00E94EC01982F8093760681E0911198
:100F100080E00895CF93DF931F92CDB7DEB769834A
:100F200020910C052223F9F020912F05203258F052
:100F300021E030E0FC013383228390E080E00F90D9
:100F4000DF91CF91089580910D05E82FF0E0E25FE9
:100F5000FA4F998190838F5F80930D0580932F05C1
:100F600081E090E0ECCF61E0CE0101960E94F106B5
:100F7000F7CFFC01248131E030930C0520932E053E
:100F800010920D0510922F058385682B8DEC95E04E
:100F90000E948A0781E00C94EC01209110033091AB
:100FA00011032817390771F490910E0380910F03F4
:100FB000981741F0E0910E03F0E0EE57FD4F80816D
:100FC00090E008958FEF9FEF0895EF92FF920F93B7
:100FD0001F93CF93DF93DC015C96ED90FC905D97BF
:100FE000E114F10479F481E090E013969C938E93E0
:100FF000129790E080E0DF91CF911F910F91FF90C9
:10100000EF9008955196ED91FC91529750968C91E6
:101010005097982F90950FB75E962C915E97122F50
:10102000127021FD6095F8942081112319F1282B6D
:101030002083E7012197F1F728E0462F50E0308127
:1010400060FF1AC0382B3083E7012197F1F7BA010E
:1010500075956795215089F7112381F08081892347
:1010600080830FBF5C968D919C910197F1F781E091
:1010700090E0C1CF2923DCCF3923E5CF9081892BA4
:10108000EFCF20911003309111032817390771F425
:1010900080910F0320910E0390E0805C9F4F821B94
:1010A000910960E470E00E94542E089590E080E081
:1010B0000895209110033091110328173907B9F4CE
:1010C00090910E0380910F03981789F0E0910E0321
:1010D000F0E0EE57FD4F808120910E0330E02F5F4E
:1010E0003F4F2F73332720930E0390E008958FEF27
:1010F0009FEF089590E080E00895CF93C82F882354
:1011000049F0E091DE05F091DF053097D9F48C2F9E
:10111000CF9108958091DC059091DD0593FFF7CF85
:101120000E94F5042091DA053091DB05621B730BF8
:101130008091E60520E1829FC0011124681779079C
:1011400030F3DFCF09958091DC059091DD0593FFA9
:10115000DECF0E94F5042091DA053091DB05621B99
:10116000730B8091E60520E1829FC001112468176E
:10117000790768F28091DC059091DD05977F909367
:10118000DD058093DC05C3CFDF92EF92FF920F93D2
:101190001F93CF93DF9320910C06211106C0E92EF7
:1011A000D82E0E942C0481110FC010920A061092B2
:1011B0000C0610920B0680E0DF91CF911F910F91EA
:1011C000FF90EF90DF90089580EF0E94EC03D1E054
:1011D00000E0F12CC1E00E947104182F0E947104FC
:1011E0001130E1F48130C9F5C134F8F2F0920A0609
:1011F000F11003C081E080930C06809102068823E1
:10120000A1F2A2E0B6E0ED2DFE2DCF0108962D91C2
:101210002193E817F907D9F781E0CECFE02FF0E06E
:10122000181311C080910A06C817A8F4DF01A15055
:10123000BA4F13968C918D2381F410E0C93010F4CD
:10124000C0930B06FC2EE150FA4F83819D2F9095A1
:10125000892383830AC08C13F0CFE02FF0E0E150A4
:10126000FA4F83818D2B838311E0812F0E94B70376
:10127000CF5FDD0F11F40F5FD1E0083008F4ABCF82
:10128000B3CFDF92EF92FF920F931F93CF93DF9331
:101290008C01C62F81E080930C0587E780932E0593
:1012A00010920D0510922F05F80160818DEC95E0EC
:1012B0000E948A0781E00E94EC01809376068111EA
:1012C00058C0EC2E0C2E000CFF0880910B058111EC
:1012D000FCCF9C2F81E080930B0580930A052FEFB4
:1012E00020930905109208052C0F20930705809381
:1012F000E6048091E6048E6E8093E6048091E50416
:10130000813089F51092E5048091E6048093BB005A
:101310008091BC0083FDF8CF85EC8093BC00809168
:101320000B058130E1F3809108058C1710F4909142
:101330000805A7EEB4E0EFEBF4E080E0891315C0F8
:101340001092E4048093E304D12CCD2DD0E0CE158F
:10135000DF05C4F48DEC95E00E942807C00FD11F73
:101360008883D394F2CF85EED8CF2D9121938F5FD0
:10137000E5CF80E0DF91CF911F910F91FF90EF902B
:10138000DF90089581E0F6CF0F931F93CF93DF9303
:1013900000D0CDB7DEB78B01898362E0CE01019624
:1013A0000E944109882381F089819A8198278927A1
:1013B0009827F8019183808381E00F900F90DF914F
:1013C000CF911F910F910895F80111821082F5CFEE
:1013D0000F931F93CF93DF9300D0CDB7DEB78B0170
:1013E000898362E0CE0101960E944109882381F041
:1013F00089819A81982789279827F801918380838A
:1014000081E00F900F90DF91CF911F910F91089580
:10141000F80111821082F5CF0F931F93CF938C01A7
:10142000C62F0E94B9076C2F6460C8010E94B907DB
:101430006C2F6B7FC8010E94B90782E390E0CF91C7
:101440001F910F910C94AF030F931F93CF93DF93D2
:101450008C01D62FC42F607F642B0E940C0A80E180
:10146000D89FB00111246C2BC801DF91CF911F913F
:101470000F910C940C0ACF93DF93CDB7DEB728976A
:101480000FB6F894DEBF0FBECDBF98E0EEE4F1E0FA
:10149000DE01119601900D929A95E1F79091FB056E
:1014A000961708F46FEF262F30E0220F331F41E02C
:1014B00050E04C0F5D1F240F351FF9016081680F4C
:1014C000606840E083EF95E028960FB6F894DEBFA1
:1014D0000FBECDBFDF91CF910C94240A40E061E0B4
:1014E00083EF95E00E94240A80ED97E00C94AF030F
:1014F00041E00E94240A81E090E0089590E0FC0120
:10150000E755FD4FE491F0E0EE0FFF1FEB56FD4F66
:10151000A591B4912C9183549D4FFC018491822319
:1015200091E009F490E0892F0895FB0101900020DB
:10153000E9F73197AF01461B570BDC01ED91FC91A8
:101540000280F381E02D09948F929F92AF92BF9217
:10155000EF92FF920F931F93CF93DF93CDB7DEB738
:10156000A1970FB6F894DEBF0FBECDBF7C01FA0184
:10157000CB0119A2223008F42AE08E010F5D1F4F23
:10158000822E912CB12CA12CBF01A50194010E94A7
:10159000042DF901CA016A300CF5605DD8016E9323
:1015A0008D01232B242B252B79F790E080E01097D9
:1015B00021F0BD01C7010E94950AA1960FB6F894CB
:1015C000DEBF0FBECDBFDF91CF911F910F91FF9076
:1015D000EF90BF90AF909F908F900895695CDECFA1
:1015E000CF92DF92EF92FF920F931F93CF93DF93EF
:1015F0006B01770FEE08FF08F7FE1BC0EC016DE2F0
:101600000E9477028C0144275527BA014C195D09C5
:101610006E097F092AE0CE010E94A40A800F911F63
:10162000DF91CF911F910F91FF90EF90DF90CF90BE
:1016300008952AE0B701A601DF91CF911F910F9184
:10164000FF90EF90DF90CF900C94A40A0C94950A31
:10165000EF92FF920F931F93CF93DF93CDB7DEB737
:101660002C970FB6F894DEBF0FBECDBF7C01CB0127
:10167000BA018E010F5F1F4F40E00E946727B8013B
:10168000C7010E94260B2C960FB6F894DEBF0FBE42
:10169000CDBFDF91CF911F910F91FF90EF900895F3
:1016A000EF92FF921F93CF93DF9361E090E080E091
:1016B0000E94952CD0E0C0E0CE018E5E9C4F7C0154
:1016C00018E0F70161917F01CF01825193400E94A0
:1016D000952C1150B1F72896C831D10569F7DF91E3
:1016E000CF911F91FF90EF9008958F929F92AF92AC
:1016F000BF92CF92DF92EF92FF920F931F93CF93FF
:10170000DF93CDB7DEB761970FB6F894DEBF0FBE9B
:10171000CDBF0E946E0A80914303811125C060E015
:101720000E943B0A67E372E083EF95E00E947E022D
:1017300061E080E00E943B0AE0914103F0E0EE0F9F
:10174000FF1FED5EFD4F6591749140E150E0CE01C9
:1017500001960E94A727198ABE016F5F7F4F83EF12
:1017600095E00E94260B1FC02091400391E08091DC
:101770004103811101C090E0A6E5B1E080E0E0E026
:101780001C963C911C97391322C028131FC0E930C6
:1017900018F160E080E00E943B0A6EE272E083EFA5
:1017A00095E00E947E0261960FB6F894DEBF0FBEF0
:1017B000CDBFDF91CF911F910F91FF90EF90DF9000
:1017C000CF90BF90AF909F908F9008958F5FEF5F05
:1017D0001D96E930A9F6DDCF0E2F0E2E000C110B51
:1017E0008DE0E802F0011124EA5AFE4FE081F0E0BA
:1017F000EE0FFF1FE95EFD4F6591749140E150E0EF
:10180000CE0101960E94A727198A60E080E00E941D
:101810003B0ABE016F5F7F4F83EF95E00E94260B6E
:1018200080914203882331F069E272E083EF95E012
:101830000E947E0261E080E00E943B0A8DE0809F72
:10184000F001819FF00D1124EA5AFE4F838181300F
:10185000D1F078F0823009F0A6CF0180F281E02D3E
:10186000808160E172E0882309F479CF6DE072E055
:1018700076CF0180F281E02D6081718183EF95E068
:101880000E94F00A90CF0180F281E02DC080D180CB
:10189000E280F380A7019601C701B6010E944F2E96
:1018A00064E172E0811126C046015701E894B7F85F
:1018B0002FEF3FEF4FE75FE7C501B4010E944F2EC6
:1018C00081110CC02FEF3FEF4FE75FE7C501B40177
:1018D0000E94662B68E172E0181664F02FEF3FEF6C
:1018E0004FE75FE4C701B6010E944A2E18163CF488
:1018F0006CE172E083EF95E00E94950A54CF2FEFE0
:101900003FEF4FE75FECC701B6010E94662B87FDF2
:10191000EFCF20E030E0A901C701B6010E94662B9D
:1019200087FF09C06DE283EF95E00E947702F7FA26
:10193000F094F7F8F0942DEC3CEC4CE45DE3C70137
:10194000B6010E94362D4B015C010E941B2E6B01DB
:101950007C010E946B2B9B01AC01C501B4010E946C
:10196000352D4B015C012AE0B701A60183EF95E01C
:101970000E94A40A6EE283EF95E00E94770220E0C5
:1019800030E040E251E4C501B4010E94CC2B0E943A
:101990001B2EAB0170E060E02AE083EF95E00E942F
:1019A000A40A01CF1F920F920FB60F9211242F930A
:1019B0003F934F935F936F937F938F939F93AF93D7
:1019C000BF93EF93FF9380E395E00E942003FF9184
:1019D000EF91BF91AF919F918F917F916F915F91A7
:1019E0004F913F912F910F900FBE0F901F90189520
:1019F0001F920F920FB60F9211242F938F939F93E4
:101A0000EF93FF93E0914005F09141058081E091D3
:101A10004605F091470582FD1BC0908180914905E4
:101A20008F5F8F7320914A05821741F0E09149053D
:101A3000F0E0E05DFA4F958F80934905FF91EF91BB
:101A40009F918F912F910F900FBE0F901F9018951F
:101A50008081F4CF1F920F920FB60F9211248F93B3
:101A60009F93AF93BF938091060390910703A0913A
:101A70000803B09109030196A11DB11D80930603CF
:101A800090930703A0930803B09309038091050383
:101A900093E0980F9D37F0F49093050380910A032B
:101AA00090910B03A0910C03B0910D030196A11D21
:101AB000B11D80930A0390930B03A0930C03B09382
:101AC0000D03BF91AF919F918F910F900FBE0F901B
:101AD0001F9018958A578093050380910603909173
:101AE0000703A0910803B09109030196A11DB11D40
:101AF0008093060390930703A0930803B093090310
:101B0000CDCF1F920F920FB60F9211242F933F93B8
:101B10004F935F936F937F938F939F93AF93BF93F5
:101B2000EF93FF938091B900887F803609F44AC013
:101B3000F0F5883209F4A7C018F5803109F49BC08C
:101B4000B8F4882309F4F9C0883009F494C0FF91EF
:101B5000EF91BF91AF919F918F917F916F915F9125
:101B60004F913F912F910F900FBE0F901F9018959E
:101B7000883109F488C0803251F78093090514C078
:101B8000803409F49DC040F48033B9F38833F9F60A
:101B90008093090585ECB0C0803509F485C088358F
:101BA00009F496C0883499F60E94E706D0CF8839A8
:101BB00009F48CC038F5883729F050F4883611F0D4
:101BC000803729F683E080930B051092040357C0F9
:101BD000883809F47BC0803919F0803809F0B7CF14
:101BE00080910403803208F071C0E091040381E029
:101BF0008E0F809304038091BB00F0E0EC51FD4F09
:101C000080833DC0803B39F0E0F4803A09F479C02C
:101C1000883A09F09CCF84E080930B051092E30290
:101C20001092E202E091E104F091E20409958091C2
:101C3000E20281110FC081E08093E2021092C202A1
:101C400009C0803C09F4A6CF883C09F4A3CF883BA7
:101C500009F07DCFE091E30281E08E0F8093E302F3
:101C6000F0E0EE53FD4F80818093BB009091E30242
:101C70008091E20229C08091E6048093BB0085EC4C
:101C80008093BC0064CF9091080580910705981758
:101C900058F5E091080581E08E0F80930805F0E08B
:101CA000E951FB4F8081E9CFE091080581E08E0F7B
:101CB000809308058091BB00F0E0E951FB4F8083E1
:101CC00090910805809107059817C8F285E8D8CF4C
:101CD000E091080581E08E0F809308058091BB009C
:101CE000F0E0E951FB4F808380910A0581115CCFC0
:101CF00081E08093E50484EA8093BC0010920B0598
:101D000026CF85EC8093BC0010920B0580910403D4
:101D1000803230F4E0910403F0E0EC51FD4F10828A
:101D20006091040370E0E091DF04F091E00484EE40
:101D300092E00995109204030ACF1092090534CF5E
:101D40001F920F920FB60F9211242F933F934F9330
:101D50005F936F937F938F939F93AF93BF93EF9313
:101D6000FF93E0911003F0911103309749F0A6859D
:101D7000B7858585968D91FF14C09C918923A1F428
:101D8000FF91EF91BF91AF919F918F917F916F9153
:101D90005F914F913F912F910F900FBE0F901F9029
:101DA00018959C91892361F7A389B4899C918589B1
:101DB000809589238C93868997890197F1F7608DA7
:101DC000718DA685B785558538E020E0CB01019758
:101DD000F1F7822F90E095958795282F4C91452318
:101DE00009F02068315091F7868D81FD2095809112
:101DF0000F0390E001968F73992730910E033817E7
:101E000099F0A0910F03B0E0AE57BD4F2C93809393
:101E10000F03828D938D0197F1F7A389B4898C917B
:101E20009589892B8C93ACCF868D8160868FF1CF7D
:101E30001F920F920FB60F9211242F938F939F939F
:101E400084E68093B2008091BC049091BD04883EEA
:101E5000934054F00C9400009F918F912F910F901C
:101E60000FBE0F901F9018958091BC049091BD04F7
:101E700001969093BD048093BC04EECFCF93109253
:101E800033051092320588EE93E0A0E0B0E0809335
:101E9000340590933505A0933605B09337052FECA4
:101EA00031E0309331052093300525EC30E030935C
:101EB0003D0520933C0524EC30E030933F05209312
:101EC0003E0520EC30E0309341052093400521ECA5
:101ED00030E0309343052093420522EC30E030930C
:101EE00045052093440526EC30E0309347052093C8
:101EF00046051092490510924A0510924B05109222
:101F00004C051092D0051092CF058093D105909387
:101F1000D205A093D305B093D40521EE31E03093E0
:101F2000CE052093CD051092100610920F068093D7
:101F3000110690931206A0931306B09314068FEF28
:101F400091E090930E0680930D0610922406109255
:101F5000230610922606109225061092280610924B
:101F6000270610922A061092290680912B068E7F52
:101F70008D7F80932B069091B0009F779093B00057
:101F800081FD17C12B9A239AE8ECF2E0E491E093EB
:101F90001D06E4EBF2E0E491F0E0EE0FFF1FE156E6
:101FA000FD4F8591949190931F0680931E0624986F
:101FB0002C9880912B0681FF2C9A8CE08093190637
:101FC000E9ECF2E0E491E0931A06E5EBF2E0E4914B
:101FD000F0E0EE0FFF1FEB56FD4F2591349130934B
:101FE0001C0620931B0656985E98E3ECF2E0E49101
:101FF000E093FF05EFEAF2E0E491F0E0EE0FFF1F5F
:10200000EB56FD4F25913491309301062093000645
:1020100010920A0610920C0610920B0610920906F6
:1020200010920806109207061092060610920506F6
:102030001092040610920306109202061092F60502
:102040001092F50523EF31E03093F4052093F3056A
:1020500097E29093F70590E19093FC0592E09093BE
:10206000FD051092FE051092DB051092DA05109224
:10207000DD051092DC051092DF051092DE0510924E
:10208000E1051092E00522E32093E2052FE1209381
:10209000E30525E22093E4058093E5058EE3809334
:1020A000E6051092E7051092E8051092E9051092F6
:1020B000EA051092EB051092EC058EE18093ED0598
:1020C0001092EF051092EE059093F00584E0809356
:1020D000F10585E08093F20552985A9821EC32E0A0
:1020E000F90144918DEA92E0FC015491E52FF0E072
:1020F000EE0FFF1FE557FD4FA591B4915C91409500
:1021000045234C93F9012491FC018491E82FF0E0E0
:10211000EE0FFF1FE156FD4FA591B4918C912095D4
:1021200028232C938091F20590E0AC0143545D4F3D
:10213000FA01349187559D4FFC012491E22FF0E084
:10214000EE0FFF1FE557FD4FA591B4912C913095EF
:1021500032233C93FA012491FC018491E82FF0E0B2
:10216000EE0FFF1FE156FD4FA591B4918C91282BE6
:102170002C938091DC059091DD0590619093DD05B5
:102180008093DC058091F1050E947E0AC82F809122
:10219000F0050E947E0A982F93708091EC05807F55
:1021A000C370CC0FCC0F892B8C2B8093EC05CF9177
:1021B00008952B98E8CECF93DF93CDB7DEB7ED9798
:1021C0000FB6F894DEBF0FBECDBFF89482E88093BF
:1021D0007A0083E084BD85BD80916E00816080932C
:1021E0006E0081E0809380009BE09093810080935B
:1021F000B00084E08093B1001092C1007894539AAB
:102200002198299A3B9A439A3A9A4298399A419846
:10221000389A40980E944B026AE070E080E090E0BB
:102220000E94C3040E944B026CE276E08AEA0E949C
:10223000E809882309F46CC16EE276E08CEA0E941A
:10224000E809882309F464C160E376E08EEA0E941D
:10225000E809882309F45CC16CE376E080EB0E9416
:10226000C409882309F454C16EE376E082EB0E942E
:10227000C409882309F44CC160E476E084EB0E9431
:10228000C409882309F444C162E376E086EB0E9426
:10229000E809882309F43CC164E376E088EB0E94F6
:1022A000E809882309F434C166E376E08AEB0E94EA
:1022B000E809882309F42CC168E376E08CEB0E94DE
:1022C000E809882309F424C16AE376E08EEB0E94D2
:1022D000E809882309F41CC1609130067091310629
:1022E000072E000C880B990B0E946D2B20E030E02C
:1022F00040EA5BE30E94CC2B2B013C0160913C0641
:1023000070913D0690E080E00E946B2B2FE632E159
:1023100043E053E30E94CC2B6B017C0160913206B9
:1023200070913306072E000C880B990B0E946D2BC1
:1023300020E030E048EC57E30E94CC2B4B015C01DD
:1023400060913E0670913F0690E080E00E946B2B0A
:102350002DEC3CEC4CE454E30E94CC2B6093420601
:10236000709343068093440690934506609140061F
:102370007091410690E080E00E946B2B60934606CE
:1023800070934706809348069093490660913806FB
:1023900070913906072E000C880B990B0E946D2B4B
:1023A0002AE037ED43EA5DE30E94CC2B60934A06B6
:1023B00070934B0680934C0690934D0660913A06BD
:1023C00070913B06072E000C880B990B0E946D2B19
:1023D00020E030E040E253E40E94A22D60934E06DC
:1023E00070934F06809350069093510660912C068F
:1023F00070912D06072E000C880B990B0E946D2BF7
:10240000609352067093530680935406909355063A
:1024100060912E0670912F06072E000C880B990BE9
:102420000E946D2B20E030E040EA5CE30E94CC2B60
:1024300060935606709357068093580690935906FA
:102440006091340670913506072E000C880B990BAD
:102450000E946D2B20E030E048E45AE30E94CC2B30
:1024600060935A0670935B0680935C0690935D06BA
:1024700020E030E040E057E4C701B6010E94CC2BD9
:1024800060935E0670935F0680936006909361068A
:10249000A7019601C301B2010E94CC2B6093620692
:1024A000709363068093640690936506A50194017A
:1024B000C701B6010E94CC2B609366067093670635
:1024C00080936806909369068CEE91E5A7E1B0E4ED
:1024D00080936A0690936B06A0936C06B0936D068A
:1024E00080E394E3AEE7BFE380936E0690936F06BC
:1024F000A0937006B093710680E097E5A4E9B6E377
:102500008093720690937306A0937406B093750639
:102510001092280610922706109226061092250681
:1025200010922406109223068DE991E090932A06DA
:102530008093290690911906963108F047C02DEB3B
:1025400030E030932406209323062BE931E03093CA
:102550002606209325062CE231E0309328062093AE
:1025600027062091680084E0983048F031E09E30E2
:1025700008F430E081E001C0880F3A95EAF7822B39
:10258000809368002DE630E0983050F02BE630E084
:102590009E3030F02CE630E0963110F030E020E054
:1025A0003093210620932006292F30E0983008F040
:1025B0003FC181E001C0880F9A95EAF78093220617
:1025C0008091290690912A060197F1F780912706BC
:1025D00090912806892B49F1E0911003F0911103A5
:1025E00026E0ED30F20709F1309739F0A389B4897C
:1025F0009C918589809589238C9380912B068E7F71
:1026000080932B0610920F0310920E038DE096E03C
:102610009093110380931003E0912006F09121061E
:10262000808190912206892B8083E0914005F09172
:10263000410582E08083E0913C05F0913D051082E8
:10264000E0913E05F0913F0580E1808310924805BE
:10265000E0914405F091450586E08083E0914205D4
:10266000F0914305808180618083E0914205F09183
:102670004305808188608083E0914205F0914305A5
:10268000808180688083E0914205F09143058081DC
:102690008F7D80830E944B021092F8058091FD058A
:1026A000823018F098E09093F8058093FB0562E380
:1026B00070E080E090E00E94C3046091FE0583EF2B
:1026C00095E00E94B90768EE73E080E090E00E9418
:1026D000C30460E383EF95E00E940C0A84E991E172
:1026E0000E94AF0360E383EF95E00E940C0A84E947
:1026F00091E10E94AF0360E383EF95E00E940C0A32
:1027000086E990E00E94AF0360E283EF95E00E94CB
:102710000C0A6091F805606240E083EF95E00E944A
:10272000240A84E08093F90540E06CE083EF95E0B3
:102730000E94240A0E946E0A82E08093FA0540E01B
:1027400066E083EF95E00E94240A40E062E083EFB8
:1027500095E00E94240A80ED97E00E94AF0310925A
:10276000FE0560E083EF95E00E94B9070E94F50442
:102770006093D7037093D8038093D9039093DA03BF
:102780000E94F5046093D3037093D4038093D50320
:102790009093D6031092700410922F0410922C0381
:1027A0001092460390E080E00E948D2C10E000E043
:1027B000813009F44AC010920A0610920C06109259
:1027C0000B06109209061092080610920706109246
:1027D0000606109205061092040610920306109247
:1027E000020602E113E02AE2E22E23E0F22ECE01FD
:1027F00001960E94C408882309F4B8C0E016F106C7
:1028000009F4B4C067E0CE0101960E945106988594
:102810008913EDCF8981883251F788E0FE01319626
:10282000D80101900D928A95E1F7085F1F4FDFCF25
:102830009E3040F42850310981E001C0880F2A956C
:10284000EAF7BCCE2E503109F7CFC8018E5E9C4FFF
:102850006C01EE24E394F12CC8018E0D9F1D0E94A3
:102860008D2CD6018D936D01BFEFEB1AFB0AE9E0C9
:10287000EE16F10489F7085F1F4F0831110529F79B
:102880001D8A1E8A1F8A10920A0610920C06109248
:102890000B06109209061092080610920706109275
:1028A0000606109205061092040610920306109276
:1028B0000206DD24D394CE0101960E94C408882329
:1028C00009F454C067E0CE0101960E945106988534
:1028D0008913F1CF8981883271F782E1E82E83E094
:1028E000F82E10E000E048E050E0B701CE0101967C
:1028F0000E94912E892B41F4E5E1F0E0EC0FFD1FE1
:10290000E00FF11FD082D7CF0F5F1F4FF8E0EF0E1F
:10291000F11C0330110539F78D89882309F18E895F
:10292000882309F18F898111C6CF82E090E0DC0114
:1029300013E0AA0FBB1F1A95E1F7AE5EBC4F28E06B
:10294000FE01319601900D922A95E1F705E1802E66
:10295000912C8C0E9D1E880D991DDC01DC92ABCF55
:1029600090E080E0E4CF81E090E0E1CF0E94500B66
:1029700088E0E2E1F3E0ABE1B4E001900D928A95EA
:10298000E1F788E0EAE1F3E0A4EFB3E001900D9213
:102990008A95E1F788E0E2E2F3E0A4EEB3E001908B
:1029A0000D928A95E1F7FE013196FBA7EAA7332441
:1029B0003394222423949E012D5D3F4F3DA72CA7E5
:1029C000CE014C969FA78EA7DE015596B9ABA8AB5A
:1029D0008091F2059091EB0597FFE9C10E947E0A74
:1029E0002091DC053091DD0520FD1092D905207E77
:1029F0003093DD052093DC059091EB059F7D90934E
:102A0000EB0560E00E94E0050E947D088091BE0415
:102A1000882321F00E946E0A1092BE041092BD0419
:102A20001092BC048091BA049091BB04892B09F4E4
:102A30005FC21092BB041092BA048091B8049091C6
:102A4000B904892B09F487C21092B9041092B80412
:102A5000C090B404D090B504E090B604F090B704F0
:102A60000E94F5046C197D098E099F09683873412D
:102A70008105910508F481C10E94F5046093B404B6
:102A80007093B5048093B6049093B70414EF198340
:102A90008EE28A83CE0101960E946F07882309F493
:102AA0006CC165E070E080E090E00E94C30406EF36
:102AB000098362E0CE0101960E944109882309F44E
:102AC0005CC179808A808AAAC0904206D090430671
:102AD000E0904406F09045068090460690904706A8
:102AE000A0904806B090490680914A0690914B0606
:102AF000A0914C06B0914D068EAB9FABA8AFB9AF7D
:102B000080914E0690914F06A0915006B0915106CB
:102B10008AAF9BAFACAFBDAF19831A83CE010196CC
:102B20000E946F07882309F428C16AE170E080E001
:102B300090E00E94C304098363E0CE0101960E94E5
:102B40004109882309F419C1672D70E090E080E005
:102B50000E946D2B20E030E040E853E40E94CC2B33
:102B60002B013C01AAA96A2F70E090E080E00E944E
:102B70006D2B9B01AC01C301B2010E94362DA50152
:102B800094010E94352DA70196010E94CC2B6B0168
:102B90007C012AAD3BAD4CAD5DAD0E94362D9B0155
:102BA000AC016EA97FA988AD99AD0E94A22DA701A5
:102BB00096010E94362D20E030E048EC51E40E945E
:102BC000352D6B017C01AC019B010E94CC2B2B01AC
:102BD0003C01698170E090E080E00E946D2B20E074
:102BE00030E040E853E40E94CC2B4B015C016A8149
:102BF00070E090E080E00E946D2B9B01AC01C5016C
:102C0000B4010E94362D4B015C016B8170E090E0B5
:102C100080E00E946D2B20E030E040E85BE30E9402
:102C2000CC2B9B01AC01C501B4010E94362D4B0198
:102C30005C0120915A0630915B0640915C065091F0
:102C40005D06C301B2010E94CC2B6AAB7BAB8CAB9F
:102C50009DAB2091560630915706409158065091F1
:102C60005906C701B6010E94CC2B9B01AC016AA991
:102C70007BA98CA99DA90E94362D209152063091E6
:102C8000530640915406509155060E94362D9B01E3
:102C9000AC01C501B4010E94352D4B015C012091AE
:102CA0006606309167064091680650916906C30137
:102CB000B2010E94CC2B2B013C0120916206309185
:102CC00063064091640650916506C701B6010E94F3
:102CD000CC2B9B01AC01C301B2010E94362D209187
:102CE0005E0630915F0640916006509161060E9439
:102CF000362D9B01AC01C501B4010E94A22D6B01D0
:102D00007C01AC019B010E94CC2B2091720630917A
:102D1000730640917406509175060E94CC2B4B01AE
:102D20005C0120916E0630916F06409170065091C3
:102D30007106C701B6010E94CC2B9B01AC01C501F5
:102D4000B4010E94362D20916A0630916B064091A5
:102D50006C0650916D060E94362D20E030E048EC64
:102D600052E40E94CC2B0E94142E6093B004709306
:102D7000B1048093B2049093B30480914D018823F1
:102D800009F41DC180914C01811106C0109270049C
:102D900010926F0420924C0180914B01811113C15C
:102DA00010922F0410922E0420924B010CC10E940D
:102DB0007E0A082F8091F1050E947E0A182F8091CB
:102DC000F0050E947E0A2091DC053091DD0520FD92
:102DD0001092D905207E3093DD052093DC052091EB
:102DE000EB052F7D2093EB059091EC05492F429543
:102DF000407F46FB440F440B40F9682F70E0392FA9
:102E00003295330F330F307C36FB330F330B30F9F1
:102E10003427E32F330FFF0BE827F7271E171F0672
:102E200019F460E0802FEECD392F32953F70042EDB
:102E3000000C550B9F706417750709F449C03F5F7C
:102E40003295307F932B9093EC059091EC05907F19
:102E5000312F3370330F330F482F4370942B932B44
:102E60009093EC05907FE9F2922F93709130C1F12D
:102E700088F19230D1F19091EC0581E090310CF421
:102E800080E022FB222720F96FEF821301C061E06E
:102E90008091EC058F708093EC058091E70590910F
:102EA000E805A091E905B091EA05C62E062E000CB2
:102EB000DD08EE08FF088C0D9D1DAE1DBF1D809323
:102EC000E7059093E805A093E905B093EA05AACF3A
:102ED000315FB6CF112309F4A4CF8111CCCFA1CF9C
:102EE00011119FCF882339F29CCF18139ACFC3CFEB
:102EF00080E395E00E940003892B09F49ECDE1E078
:102F0000F0E0F093BB04E093BA0480E395E00E9404
:102F1000DE02E0916F04EF3368F491E09E0F90932E
:102F20006F04F0E0E059FB4F8083E92FF0E0E059B7
:102F3000FB4F1082E0912E04F0E0E15DFB4F6081D9
:102F400080E395E00E9477026CE272E080E395E016
:102F50000E94950A72CD8DE096E00E944108892B6F
:102F600009F476CD88248394912C9092B9048092B0
:102F7000B8048DE096E00E945908E0912E04EF33EA
:102F800068F491E09E0F90932E04F0E0E15DFB4F1A
:102F90008083E92FF0E0E15DFB4F1082E0912E0489
:102FA000F0E0E15DFB4F608180E395E00E947702F5
:102FB0006CE272E080E395E00E94950A49CD1092A0
:102FC0004C0110924B010091B8041091B904E090AB
:102FD000BA04F090BB040115110509F075C6E1149F
:102FE000F10409F071C6DD24D394E114F10409F46D
:102FF000D12CD09249010115110521F4E114F104FD
:1030000009F46BC620922D0420922C0480912D048B
:10301000832580934D01EF2809F48CC62092270464
:10302000012B09F089C600E714E0DD2009F4DCC0BB
:1030300063E270E0C8010E949E2E009739F001966D
:103040000E9489279093C4038093C30360E470E0D7
:10305000C8010E949E2E009799F001960E94852734
:103060000E94142E072E000C880B990B0E946D2BCA
:1030700060930E0170930F018093100190931101E2
:103080006AE270E0C8010E949E2E0097E9F040912C
:1030900038015091390160913A0170913B014093A0
:1030A000C9035093CA036093CB037093CC0320925F
:1030B000D20301960E948527609316017093170131
:1030C000809318019093190166E270E0C8010E9494
:1030D0009E2E009759F001960E9485276093120159
:1030E00070931301809314019093150164E270E0D2
:1030F000C8010E949E2E009759F0FC018181803307
:1031000009F023C610922B0380912B038093600358
:103110006EE570E0C8010E949E2E009761F0DC0110
:1031200011968C91803309F016C610922A03809173
:103130002A0380937B036AE370E0C8010E949E2EFD
:10314000009791F001960E9489278131B7E29B0791
:1031500014F080E197E28436910514F484E690E05F
:1031600090931B0180931A016BE370E0C8010E94E9
:103170009E2E009781F001960E9489278536910541
:1031800014F084E690E097FF02C090E080E0909316
:103190000501809304016CE770E0C8010E949E2E37
:1031A000009701F101960E9485276B017C0120E0C8
:1031B00030E040EF51E40E94662B87FDD2C520E04D
:1031C00030E046E153E4C701B6010E944A2E1816CA
:1031D0000CF4CEC5C0920001D0920101E092020130
:1031E000F092030110924901C0902304D09024046E
:1031F000E0902504F09026040E94F5046C197D09E6
:103200008E099F09683873418105910500F10E947C
:10321000F504609323047093240480932504909311
:1032200026048BE194E00E9468066B017C0120E09B
:1032300030E04AEF53E40E94662B87FF08C0C0923B
:103240001704D0921804E0921904F0921A04C09066
:103250001704D0901804E0901904F0901A04C0925A
:103260003C01D0923D01E0923E01F0923F0120915D
:103270004101309142014091430150914401C70105
:10328000B6010E944A2E181674F42091450130911F
:1032900046014091470150914801C701B6010E9483
:1032A000662B87FD6CC510924001C0901304D0902E
:1032B0001404E0901504F090160480911204882301
:1032C00009F489C51092120480910D04882309F431
:1032D0009CC510920D0480910804882309F4B7C599
:1032E0001092080480911204811107C080910D048E
:1032F000811103C080910804811120924A018090BD
:10330000FC039090FD03A090FE03B090FF030E9489
:10331000F504681979098A099B09683873418105A0
:10332000910500F10E94F5046093FC037093FD0386
:103330008093FE039093FF0384EF93E00E9468065E
:103340004B015C0120E030E04AEF53E40E94662B21
:1033500087FF08C08092F0039092F103A092F203DD
:10336000B092F3038090F0039090F103A090F203E9
:10337000B090F30380922B0190922C01A0922D012A
:10338000B0922E01209130013091310140913201F3
:1033900050913301C501B4010E944A2E181674F4ED
:1033A000209134013091350140913601509137011F
:1033B000C501B4010E94662B87FD6BC510922F01D9
:1033C0008090EC039090ED03A090EE03B090EF039B
:1033D0000E94F504681979098A099B0968387341C4
:1033E0008105910500F10E94F5046093EC03709350
:1033F000ED038093EE039093EF0384EE93E00E943D
:1034000068064B015C0120E030E04AEF53E40E9483
:10341000662B87FF08C08092E0039092E103A092A0
:10342000E203B092E3038090E0039090E103A09068
:10343000E203B090E30380921E0190921F01A092DC
:103440002001B0922101209123013091240140916B
:10345000250150912601C501B4010E944A2E18167B
:1034600074F4209127013091280140912901509155
:103470002A01C501B4010E94662B87FD27C5109261
:1034800022016091B0047091B1048091B2049091D6
:10349000B3040E946D2B2DEC3CE445E053E40E9404
:1034A000A22D2B013C0140923801509239016092CB
:1034B0003A0170923B0111E0199B11C020E030E00D
:1034C00042E852E46091DC037091DD038091DE03F9
:1034D0009091DF030E944A2E18160CF010E0109312
:1034E000DB0380914D01882309F43EC18090D7030E
:1034F0009090D803A090D903B090DA030E94F5040D
:10350000681979098A099B09603D77408105910511
:1035100008F434C16091040470910504809106049C
:10352000909107040E94B2014B015C01C701B601F2
:103530000E94B2016B017C01C301B2010E94B20181
:103540002B013C0123EC35EF48E450E4C501B40104
:103550000E94362D4B015C01A3019201C701B60107
:103560000E94362D9B01AC01C501B4010E94CC2BF9
:103570000CE213E021E040E00E94672760E672E081
:103580008DE096E00E947E02409113045091140455
:10359000609115047091160421E08DE096E00E9480
:1035A000280B6CE28DE096E00E9477024091380192
:1035B0005091390160913A0170913B0121E08DE019
:1035C00096E00E94280B6CE28DE096E00E94770264
:1035D0004091040450910504609106047091070421
:1035E00021E08DE096E00E94280B6CE28DE096E0F1
:1035F0000E9477028091600361E3811101C060E362
:103600008DE096E00E9477026CE28DE096E00E94E9
:1036100077028091B40361E3811101C060E38DE022
:1036200096E00E9477026CE28DE096E00E947702BD
:103630002091C5033091C6034091C7035091C80340
:103640006091120170911301809114019091150104
:103650000E94352DAB01BC0121E08DE096E00E9477
:10366000280B6CE28DE096E00E9477022091C50362
:103670003091C6034091C7035091C8036091160171
:103680007091170180911801909119010E94352DB8
:10369000AB01BC0121E08DE096E00E94280B6CE2BA
:1036A0008DE096E00E9477026091C3037091C4039D
:1036B0008DE096E00E94F00A6CE28DE096E00E94B8
:1036C000770240910E0150910F01609110017091AD
:1036D000110122E08DE096E00E94280B6CE28DE063
:1036E00096E00E9477026CE273E08DE096E00E9423
:1036F000260B6CE28DE096E00E9477024091DC039D
:103700005091DD036091DE037091DF0321E08DE0D5
:1037100096E00E94280B6CE28DE096E00E94770212
:103720008091DB0361E3811101C060E38DE096E0ED
:103730000E9477026CE28DE096E00E947702809111
:10374000740361E3811101C060E38DE096E00E94A3
:1037500077026CE28DE096E00E9477026DE572E000
:103760008DE096E00E947E020E94F5046093D703EC
:103770007093D8038093D9039093DA0380914D011D
:10378000882309F47EC18090130490901404A090C3
:103790001504B0901604C090D303D090D403E090E9
:1037A000D503F090D6030E94F5046C197D098E09AB
:1037B0009F09603D77408105910508F46CC16091D7
:1037C00004047091050480910604909107040E94FE
:1037D000B2016B017C01C501B4010E94B2014B0131
:1037E0005C01609138017091390180913A019091AA
:1037F0003B010E94B2012B013C0123EC35EF48E470
:1038000050E4C701B6010E94362D6B017C01A30173
:103810009201C501B4010E94362D9B01AC01C70184
:10382000B6010E94CC2B0CE213E021E040E00E94A4
:10383000672767E772E080E395E00E947E0240918F
:10384000130450911404609115047091160421E042
:1038500080E395E00E94280B6CE280E395E00E94F3
:103860007702409138015091390160913A0170918D
:103870003B0121E080E395E00E94280B6CE280E3AD
:1038800095E00E94770240910404509105046091F4
:1038900006047091070421E080E395E00E94280B64
:1038A0006CE280E395E00E9477028091600361E31F
:1038B000811101C060E380E395E00E9477026CE231
:1038C00080E395E00E9477028091B40361E3811167
:1038D00001C060E380E395E00E9477026CE280E340
:1038E00095E00E9477022091C5033091C603409174
:1038F000C7035091C8036091120170911301809128
:103900001401909115010E94352DAB01BC0121E0FD
:1039100080E395E00E94280B6CE280E395E00E9432
:1039200077022091C5033091C6034091C70350919F
:10393000C803609116017091170180911801909150
:1039400019010E94352DAB01BC0121E080E395E017
:103950000E94280B6CE280E395E00E947702609160
:10396000C3037091C40380E395E00E94F00A6CE207
:1039700080E395E00E94770240910E0150910F0183
:10398000609110017091110122E080E395E00E94A6
:10399000280B6CE280E395E00E9477026CE273E012
:1039A00080E395E00E94260B6CE280E395E00E94A4
:1039B00077024091DC035091DD036091DE0370914A
:1039C000DF0321E080E395E00E94280B6CE280E3B6
:1039D00095E00E9477028091DB0361E3811101C0D1
:1039E00060E380E395E00E9477026CE280E395E07B
:1039F0000E9477028091740361E3811101C060E34A
:103A000080E395E00E9477026CE280E395E00E94FB
:103A10007702409100015091010160910201709183
:103A2000030121E080E395E00E94280B6CE280E333
:103A300095E00E947702609104017091050180E396
:103A400095E00E94F00A6CE280E395E00E94770224
:103A500060911A0170911B0180E395E00E94F00AC9
:103A60006CE280E395E00E94770264E772E080E315
:103A700095E00E947E026CE272E080E395E00E9495
:103A8000950A0E94F5046093D3037093D403809346
:103A9000D5039093D6038091D203882359F1809166
:103AA000D103882309F428C21092D1038091D10355
:103AB000882301F1209138013091390140913A0178
:103AC00050913B016091C9037091CA038091CB036F
:103AD0009091CC030E94352D29E23CE54FE05DE357
:103AE0000E94CC2B6093C5037093C6038093C703D9
:103AF0009093C8038091C3039091C40321E01816EA
:103B000019060CF420E02093C10331E08F3FA3E0BD
:103B10009A070CF430E03093C20340911C0150919D
:103B20001D01531302C011E0421310E01093C003B3
:103B300001978E3F934008F001C28091BF0381112D
:103B40000EC02092BF032092BE030E94F504609332
:103B5000BA037093BB038093BC039093BD03809121
:103B6000BF038823D9F120911A0130911B0169010B
:103B7000032E000CEE08FF084090BA035090BB03E0
:103B80006090BC037090BD03A091C303B091C403C7
:103B90000E94682E2FEF33E040E050E00E94A32CFB
:103BA00049015A018091BE03882309F4CCC10E94C7
:103BB000F5046419750986099709681579058A0558
:103BC0009B0560F00E94F5046093BA037093BB03F9
:103BD0008093BC039093BD031092BE032091C30356
:103BE0003091C403A901415051094E3FE3E05E0703
:103BF00008F4C6C11093B9038091B9038093B80348
:103C000081E04E3F534008F480E08093B7038091F9
:103C1000B603882309F4B9C11092B6038091B603A4
:103C2000882371F043E1429FC001439F900D11240E
:103C300064E170E00E94542E7093C4036093C30348
:103C4000C0901601D0901701E0901801F090190172
:103C50008090130490901404A0901504B090160462
:103C600020911201309113014091140150911501DE
:103C7000C701B6010E94352D9B01AC01C701B601F9
:103C80000E94352DA50194010E94662B18160CF494
:103C900088C12092B303A5019401C701B6010E9417
:103CA0004A2E87FF85C18091B20381118CC1209279
:103CB000B2030E94F5046093AE037093AF03809348
:103CC000B0039093B10394C120924A0101151105EC
:103CD00009F489C9DD24D3948CC980912C048823EC
:103CE00069F010922C040E94F504609328047093EC
:103CF000290480932A0490932B0488C980912D0471
:103D0000882309F483C98090280490902904A09006
:103D10002A04B0902B040E94F504681979098A09D5
:103D20009B09683E73408105910508F46FC91092A4
:103D30002D046CC9012B11F01092270480912704E7
:103D4000811171C90FE214E070C9813309F0DCC937
:103D500020922B03D9C9813309F0E9C920922A03A3
:103D6000E6C9C12CD12CA0EFEA2EA1E4FA2E32CA6A
:103D7000C12CD12CF6E1EF2EF3E4FF2E2BCA2092BA
:103D8000400120E030E04AEA52E4C701B6010E9457
:103D9000662B882309F489CA20E030E040E251E430
:103DA000C701B6010E94CC2B0E94142E072E000CD6
:103DB000880B990B0E946D2B20E030E040E251E42B
:103DC0000E94A22D60931304709314048093150431
:103DD000909316046ACAA701960160910E0470912F
:103DE0000F0480911004909111040E94662B882387
:103DF00009F46ACAC0920E04D0920F04E092100433
:103E0000F0921104209212045FCA809038019090C1
:103E10003901A0903A01B0903B0120910904309102
:103E20000A0440910B0450910C04C501B4010E9496
:103E3000662B882309F44FCA8092090490920A04E1
:103E4000A0920B04B0920C0420920D0444CA8090FE
:103E5000040490900504A0900604B09007042091FB
:103E60000004309101044091020450910304C50103
:103E7000B4010E94662B882309F434CA809200049E
:103E800090920104A0920204B092030420920804CC
:103E900029CA20922F0120E030E04AEA52E4C5010D
:103EA000B4010E94662B882309F48ACA20E030E01E
:103EB000A901C501B4010E94362D609304047093DA
:103EC000050480930604909307047ACA2092220185
:103ED00020E030E04AEA52E4C501B4010E94662BBA
:103EE000882309F4CECA8092DC039092DD03A0926D
:103EF000DE03B092DF03C5CAC0903801D09039010B
:103F0000E0903A01F0903B012091CD033091CE0337
:103F10004091CF035091D003C701B6010E94662B98
:103F2000882309F4C3CDC092CD03D092CE03E09292
:103F3000CF03F092D0032092D103B8CD1092BF03EB
:103F40001092BE030CCE0E94F504C818D908EA08E6
:103F5000FB0864197509860997096C157D058E059E
:103F60009F0508F43BCE0E94F5046093BA0370935A
:103F7000BB038093BC039093BD032092BE032ECE5F
:103F80008091BE038093B90337CE8091B4039091A2
:103F9000B503981709F442CE8093B5032092B60377
:103FA0003DCEA5019401C701B6010E944A2E87FFAC
:103FB0001092B3038091B303811175CE1092AD03BB
:103FC0001092B20315C0C090AE03D090AF03E09042
:103FD000B003F090B1030E94F5046C197D098E09BD
:103FE0009F09683873418105910510F02092AD0357
:103FF0009091AD03892F83258093B4038091B703FB
:10400000882319F08091B80302C09923D9F38093D3
:10401000AC038091AA039091AB03019709F0A1C072
:10402000A091C303B091C4032FEF30E00E94702E23
:104030002FEF33E040E050E00E94A32C30E0A0E1FD
:10404000B7E20E94262D2FEF30E040E050E00E94C2
:10405000042D69017A010E949E044091A5030091FC
:10406000A6031091A7032091A8033091A90344232C
:10407000C9F04B015C01801A910AA20AB30A9501AA
:1040800084010C151D052E053F0580F143986093B2
:10409000A6037093A7038093A8039093A90310929B
:1040A000A50324C0E0E18E2EE7E29E2EA12CB12CC8
:1040B0008C189D08AE08BF08750164014B015C01B6
:1040C000801A910AA20AB30A950184010C151D05F4
:1040D0002E053F0558F0439A6093A6037093A703FB
:1040E0008093A8039093A9032092A50320910E0129
:1040F00030910F0140911001509111016091040421
:104100007091050480910604909107040E944A2E44
:1041100087FF16C020E030E042E852E46091DC0303
:104120007091DD038091DE039091DF030E944A2E9F
:10413000181634F0199B04C080910D01811119C02B
:104140008091A4038111BEC02092A4030E94F504B3
:1041500060939F037093A0038093A1039093A203A5
:104160000CC08091AC03811102C0439A98CF439850
:1041700096CF1092A3031092A4038091A3038823E7
:1041800009F4B7C080919E0381110EC020929E0356
:1041900020929D030E94F5046093990370939A0303
:1041A00080939B0390939C0380919E03882329F125
:1041B000C0909903D0909A03E0909B03F0909C03E9
:1041C00080919D03882309F499C00E94F5046C191D
:1041D0007D098E099F09683C71058105910508F4E8
:1041E00049C60E94F5046093990370939A038093E3
:1041F0009B0390939C0310929D0380919803909150
:104200009D03992309F43BC6811108C08091B00039
:104210008F7D8093B0005B9A2092980380919703E2
:1042200090919D03911183C081110AC088E0809311
:10423000FE0560E083EF95E00E94B90720929703A6
:104240001091960300910C0111117EC0002309F416
:104250007BC02092950320929403809195038093D4
:104260000C01111183C0882309F480C080918F0351
:10427000882309F49AC0C0908B03D0908C03E090FF
:104280008D03F0908E030E94F5046C197D098E0950
:104290009F09603177428105910510F020928A03D1
:1042A0001091DB0300910D0111118CC0002309F462
:1042B00089C020928903209288038091890380938A
:1042C0000D0193C0C0909F03D090A003E090A10384
:1042D000F090A2030E94F5046C197D098E099F09D4
:1042E000683873418105910508F447CF2092A303F4
:1042F00044CF10929E0310929D0356CF0E94F50466
:104300006C197D098E099F096039714081059105FD
:1043100008F4B3C50E94F5046093990370939A035F
:1043200080939B0390939C0320929D0366CF8823E8
:1043300009F486CF1092FE0560E083EF95E00E94BD
:10434000B907109297037CCF80919403882399F04A
:10435000109294030E94F50460939003709391036C
:104360008093920390939303011177CF10928A0365
:1043700010928F0395CF809195038823A9F3C09065
:104380009003D0909103E0909203F09093030E94E9
:10439000F5046C197D098E099F0960337547810505
:1043A000910510F310929503DFCF20928F030E94A6
:1043B000F50460938B0370938C0380938D0390932B
:1043C0008E036ECF80918803882309F4D7C21092A0
:1043D00088030E94F504609384037093850380939F
:1043E000860390938703011168CF80901304909007
:1043F0001404A0901504B09016041111E8C2A50190
:104400009401609108017091090180910A019091D5
:104410000B010E94662B18160CF0D9C28091830301
:10442000882309F4C7C2C0907F03D0908003E09036
:104430008103F09082030E94F5046C197D098E09B6
:104440009F0960327E448105910510F020927E0321
:1044500080917E03811180910D0180937D032091D5
:1044600008013091090140910A0150910B01C501E9
:10447000B4010E944A2E87FDAFC220927C03809136
:104480000C01882309F4ADC220927A0320927903AB
:1044900080917C03882341F080910D01882321F0D5
:1044A00080917A038111CAC210927403429A80915A
:1044B0007D038111C7C2419A80910D01882309F4BF
:1044C000C3C2409A80914A01882309F491C0809127
:1044D0000701882309F4BAC28091DC039091DD03BF
:1044E000A091DE03B091DF0380937003909371037A
:1044F000A0937203B093730360911304709114043A
:1045000080911504909116048E010D5D1F4F21E0DE
:1045100040E00E9467276091700370917103809161
:104520007203909173030750110921E040E00E944B
:1045300067276091040470910504809106049091AE
:1045400007040750110921E040E00E94672789A86D
:104550008F9298A89F92AFA4AF92BEA4BF922DA5B0
:104560002F933CA53F938FE292E09F938F931F92EE
:1045700084E18F9381E090E08C0F9D1F9F938F9338
:104580000E94C12EAAA5BBA50D900020E9F79D01B0
:10459000215031098AA49BA4281939090FB6F8942F
:1045A000DEBF0FBECDBF80916E0390916F032817C1
:1045B000390714F42092BE0430936F0320936E03E6
:1045C00080E190E0821B930B97FD0196959587956E
:1045D00060E00E943B0A80916D03811107C0BE011B
:1045E0006F5F7F4F83EF95E00E94260B10924A0188
:1045F00080916C03882309F432C210926C0380917D
:104600006703882309F44DC2109267038091640305
:10461000882309F459C210926403109160038091B9
:104620006203882309F45CC21092620380916C03D8
:1046300081110DC080916703811109C080916403CD
:10464000811105C080916203882309F453C220922E
:104650005F0320925E0380915F0381112092060127
:10466000112309F466C08091B40350E2E52E52E0B4
:10467000F52E811104C046E2E42E42E0F42E809132
:104680000D01882309F443C06091C3037091C403F2
:10469000072E000C880B990B0E946D2B24E13EEA3B
:1046A00043E251E40E94A22D8E010F5F1F4F21E0D3
:1046B00040E00E9467276091DC037091DD038091E8
:1046C000DE039091DF030C5E1F4F20E040E00E946C
:1046D000672799A99F93A8A9AF93FF92EF92E1E072
:1046E000F0E0EC0FFD1FFF93EF9388E392E09F93C0
:1046F0008F931F9284E18F9386E493E09F938F932F
:104700000E94C12E0FB6F894DEBF0FBECDBF209120
:10471000C3033091C4038091040190910501821775
:10472000930724F081E0203131050CF480E0809380
:10473000960380916003811160C080910D016091AA
:10474000C3037091C403623071050CF400C2882366
:10475000E9F1072E000C880B990B0E946D2B24E1C8
:104760003EEA43E251E40E94A22D8E010F5F1F4FEB
:1047700021E040E00E9467276091DC037091DD0337
:104780008091DE039091DF030C5E1F4F20E040E03C
:104790000E94672739A93F9348A94F9381E090E091
:1047A0008C0F9D1F9F938F9383E492E09F938F9331
:1047B0001F9284E18F9386E493E09F938F930E94EE
:1047C000C12E0FB6F894DEBF0FBECDBF11E0209111
:1047D000000130910101409102015091030160916B
:1047E00004047091050480910604909107040E94CE
:1047F0004A2E87FD10E01093960380910C018111E1
:104800002CC06FE572E086E493E00E94A92E892B0C
:1048100061F02092060143E150E06FE572E086E42A
:1048200093E00E94B22E1092590310926003812CE3
:10483000912C3CEDA32E32E4B32E80920E01909287
:104840000F01A0921001B09211011092C4031092B6
:10485000C3031092B8031092B70380910D01811128
:104860002EC060E772E086E493E00E94A92E892BB7
:1048700061F02092060143E150E060E772E086E4D7
:1048800093E00E94B22E109259031092600380E0D0
:1048900090E0ACEDB2E480930E0190930F01A093F1
:1048A0001001B09311011092C4031092C30310922F
:1048B000B8031092B7031092740310920C01809108
:1048C0000601882369F126E433E0D9010D90002028
:1048D000E9F79D01275433408091440390914503AB
:1048E0002817390714F42092BE043093450320930F
:1048F000440380E190E0821B930B97FD0196959510
:10490000879561E00E943B0A80916D03811106C08A
:1049100066E473E083EF95E00E94260B1092060197
:1049200080916D039091D905923009F01EC12091BC
:10493000DC053091DD05217433272130310509F084
:1049400014C1832580936D03109243031092420398
:1049500010924103109240030E94750B80E090E09A
:10496000892B11F40C94E8140E940C03882311F491
:104970000C94DB140E9400000C94D71480918903DE
:10498000882309F430CDC0908403D0908503E09053
:104990008603F09087030E94F5046C197D098E0947
:1049A0009F09603375478105910508F41CCD10926D
:1049B000890319CD209283030E94F50460937F033D
:1049C00070938003809381039093820341CD109272
:1049D0007E03109283033CCD80917B0380937C0304
:1049E0004ECD80917903882369F0109279030E945B
:1049F000F504609375037093760380937703909327
:104A0000780346CD80917A03882309F441CDC09084
:104A10007503D0907603E0907703F09078030E94BE
:104A2000F5046C197D098E099F09603E7349844025
:104A3000910508F42DCD10927A032ACD20927403AB
:104A4000429835CD419838CD40983CCD8091380181
:104A500090913901A0913A01B0913B0145CDC090B0
:104A6000DC03D090DD03E090DE03F090DF032091C3
:104A700068033091690340916A0350916B03C70149
:104A8000B6010E94662B882309F4B9CDC092680351
:104A9000D0926903E0926A03F0926B0320926C0358
:104AA000AECD8091C3039091C403209165033091F2
:104AB00066038217930709F4A9CD90936603809348
:104AC000650320926703A2CD8091B40390916303A4
:104AD000981709F4A2CD80936303209264039DCDBF
:104AE00080916103181709F4A1CD109361032092FE
:104AF00062039CCD80915E03882369F010925E036F
:104B00000E94F50460935A0370935B0380935C03E7
:104B100090935D03A0CD80915F03882309F4A0CD1D
:104B2000C0905A03D0905B03E0905C03F0905D036B
:104B30000E94F5046C197D098E099F096436710580
:104B40008105910508F48ACD10925F0384CD8823F6
:104B500009F43CCE43E150E062E572E086E493E084
:104B60000E94B22E1092590331CE882309F4F6CE5A
:104B70008091430381112AC00E949501882351F03E
:104B80008091410390E001968170992780934103C1
:104B90000E94750B0E94A301882351F0809141036C
:104BA00090E0019681709927809341030E94750BD4
:104BB0008091DC059091DD0580759170409709F03A
:104BC000CDCE2092430310924203C4CE21E08091C7
:104BD0004103811101C020E0A6E5B1E0FD0110E034
:104BE0008485281301C01F5F3D9631E0EB3CF3073D
:104BF000B9F7809142039091DC0592FF04C08325B0
:104C000080934203A9CE811130C00E949501882370
:104C100061F08091400390E00196612F70E00E9466
:104C2000542E809340030E94750B0E94A301882399
:104C300071F0612F70E0809140038150990B860FD5
:104C4000971F0E94542E809340030E94750B809101
:104C5000DC059091DD0580759170409709F07ECE5E
:104C6000109243031092420377CE3091400390E0BC
:104C700080E01C964C911C97241323C0931320C0F2
:104C8000893008F06BCEE82E880FFF080E9495014E
:104C9000D82E882389F18DE08E9D80018F9D100D87
:104CA00011240A5A1E4FD80113968C911397813004
:104CB00009F450C058F0823009F488C0D12C1CC0CF
:104CC0009F5F8F5F1D968930A1F648CE1196ED91BA
:104CD000FC9112978081918114962D913C911597AA
:104CE000820F931F9183808318962D913C912817F2
:104CF000390714F4318320830E94A301882381F0B3
:104D00008DE08E9D80018F9D100D11240A5A1E4F3B
:104D1000F8018381882309F460C0813009F476C0EA
:104D2000D11071C08091DC0582FF18CE1092420331
:104D30000E94750B8DE08E9DF0018F9DF00D11246A
:104D4000EA5AFE4F0284F385E02D309709F406CE2F
:104D5000099504CEF8010180F281E02DFBABEAABAE
:104D600014966D917C91072E000C880B990B0E9474
:104D70006D2BEAA9FBA920813181428153810E94D8
:104D8000362D2B013C01AAA9BBA94D925D926D92D3
:104D90007C921397F80160857185072E000C880BB3
:104DA000990B0E946D2B4B015C01AC019B01C3016F
:104DB000B2010E944A2E18160CF09ECFAAA9BBA9D8
:104DC0008D929D92AD92BC92139796CF1196ED91D4
:104DD000FC918081832580838FCFD8010180F2816F
:104DE000E02D8081918114962D913C911597821B25
:104DF000930B9183808316962D913C918217930794
:104E000014F4318320830E94750B8CCFC180D28033
:104E100064817581072E000C880B990B0E946D2B05
:104E20009B01AC01D6016D917D918D919C910E9469
:104E3000352D4B015C01F60180829182A282B38202
:104E4000D80116966D917C91072E000C880B990B5A
:104E50000E946D2B2B013C01AC019B01C501B401EB
:104E60000E94662B87FFCFCFF6014082518262827B
:104E70007382C9CF80919803C7C980919803882312
:104E800009F4CCC98091B0008F7D8093B0005B980D
:104E900010929803C3C98FEF91E090930E06809310
:104EA0000D0680911003909111038D50964071F47E
:104EB000E0912006F0912106908180912206809554
:104EC0008923808310921103109210030895EF92AA
:104ED0000F931F93CF93DF93E80134E047FD34E154
:104EE000042E000C550B57FF03C0519541955109F5
:104EF000E32E022F242FAE010E94BE27CE01DF91A8
:104F0000CF911F910F91EF900895662777270C940A
:104F10001D29FC0188279927E89421912032E9F383
:104F2000293010F02E30C8F32B3241F02D3239F4F5
:104F3000689404C00E94B627820F911D21912053CE
:104F40002A30C0F31EF4909581959F4F0895FB0180
:104F5000DC014150504048F005900D920020C9F707
:104F600001C01D9241505040E0F708957AE0979FAC
:104F7000902D879F802D910D11240895A9E0B0E018
:104F8000E4ECF7E20C94D32C6A01F22EB02E102F31
:104F9000FBE3AF2EA01608F41BE31F5F012F27E0F1
:104FA000AE014F5F5F4F0E946D2ABC018981982F2F
:104FB0009970913009F43FC09BE2E1FC04C09E2D42
:104FC0009170E0FC3AC05E2D5071E82FE87083FFCD
:104FD00046C084E0911101C083E0EF2DE81B8F15DE
:104FE00008F0E0E0D6018E2F20E2552351F19923FD
:104FF00029F0D6019C93C60101966C0196012D5FA4
:105000003F4FE2FE24C08EE4D6018C9391E41196CA
:105010009C93119712968C93D9018E2F90E2811157
:105020001BC0E20FF32FF11D10828EEF9FEF299628
:10503000ECE00C94EF2C9DE2C6CF90E2C4CF2D9310
:1050400081508111FCCFCE0ED11CE0E0D0CF8EE696
:10505000D6018C9391E6DBCF9D938150E0CF482F12
:10506000447082FF3DC084E0911101C083E08F1540
:1050700010F4EF2DE81BD6018E2F20E2552309F105
:10508000992329F0D6019C93C60101966C019601E3
:105090002D5F3F4FE2FE1BC089E4D6018C938EE466
:1050A00011968C93119786E412968C93D9018E2FCA
:1050B00090E2882309F4B5CF9D938150FACF2D93C8
:1050C00081508111FCCFCE0ED11CE0E0D9CF89E612
:1050D000D6018C938EE611968C93119786E6E4CFD9
:1050E0009B0177FF02C030E020E0A1E0B0E0911129
:1050F00002C0B0E0A0E0F9013196AE0FBF1F8B2CCB
:10510000912CBB2009F461C05401EFEFAE1ABE0A26
:10511000AA0DBB1DFA161B0619F014F04F2D4A1BE1
:10512000511188C0E3FC59C07601A42FB0E2A1114F
:105130004FC0C40ED11C992309F45BC040E0D601D6
:105140001196F60190836D01552309F448C0012F93
:10515000060F9A81582F507184FF03C0913309F4D0
:10516000015010160CF047C0093008F008E0EEE2DC
:10517000FE2E5B01A01AB1088501919481949108DB
:105180002F3F320729F4D601FC92F60131966F01C8
:105190006217730794F1021713077CF5DB01A21B5A
:1051A000B30BAA24A394B12CAC0EBD1EAA0DBB1D3B
:1051B00011968C9121503109D60111962815390587
:1051C000F4F0F60180836D01DBCFB12CA12CA0CFD0
:1051D000F701B1937F01A150AACF9111B0CFD601B1
:1051E000942F50E302C05D9391509111FCCFC40EF7
:1051F000D11C40E0ACCF01E0BACF80E3DBCF621737
:10520000730731F4963388F4953311F4552369F01C
:10521000F6018083FD01842F90E2811108C0A40F64
:10522000B11D1C9290E080E002CF81E3F1CF919319
:105230008150F3CF911183CF8ACFB0E0A0E0E3E2B9
:10524000F9E20C94D32C5C017B016115710519F016
:10525000DB018D939C9385010F5F1F4FF501D0817A
:105260008D2F90E00E94452B6C01892BB9F5DD3222
:10527000B9F50F5F1F4FD5011196DC91C1E05801C0
:10528000F1E0AF1AB10843E050E060E770E0C5011B
:105290000E944E2B892B69F5680182E0C80ED11C53
:1052A00045E050E06BE670E0C6010E944E2B892B72
:1052B00021F4680197E0C90ED11CE114F10419F042
:1052C000D701CD92DC9260E070E080E89FEFC111E1
:1052D000FFC060E070E080E89FE7FAC05801BBCFF4
:1052E000DB3229F485010E5F1F4FF501D181C0E04B
:1052F000C6CF43E050E068E670E0C5010E944E2B47
:10530000892BE9F0F80110E000E020E030E0A9018D
:105310005F01B0ED8B2E8D0E89E08815C8F19C2EB3
:10532000689491F88C2F8870C2FF16C0811102C05A
:105330000F5F1F4F3196D501DC91C92DE9CFE114E4
:10534000F10429F00E5F1F4FF7011183008360E025
:1053500070E080EC9FE7BCC0882311F00150110978
:10536000A5E0B0E00E94C22C9B01AC01220F331FCC
:10537000441F551F280D311D411D511D283999E924
:105380003907490799E15907A8F2C6609C2ED2CF88
:10539000AEEF8A1206C0C3FD3CC09C2E689493F801
:1053A000C9CFDF7DD534A9F580818D3239F4C06154
:1053B000DF011296818162E070E006C0DF018B326E
:1053C000C1F3119661E070E080535D01A61AB70A3F
:1053D0008A30F8F4E0E8CE16ECE0DE065CF4B601C4
:1053E000660F771F660F771FC60ED71ECC0CDD1C0D
:1053F000C80ED11C5D01FFEFAF1ABF0A8C9180531C
:105400008A30A8F1C4FF03C0D194C194D1080C0D17
:105410001D1DC1FF09C0E114F10431F081E0A81A9B
:10542000B108D701AD92BC92CA01B9010E946B2BA1
:10543000C370C33009F490584B015C0120E030E0A8
:10544000A9010E94662B882309F440C0CFE9D0E06F
:1054500017FF05C0119501951109C7E8D0E06E014D
:10546000B8E1CB1AD10880E2E82EF12C0FC0D501AB
:10547000B1CFFE0125913591459154910E191F0927
:10548000C501B4010E94CC2B4B015C01D501C401C4
:105490000E151F0574F72497F594E794CC16DD06D6
:1054A000A9F78A2F880F8B2F881F8F3F49F020E0A4
:1054B00030E0A901C501B4010E94662B811106C02C
:1054C00082E290E09093780680937706C501B4015C
:1054D000CDB7DEB7ECE00C94EF2C283008F027E0D5
:1054E0003327DA01990F311D87FD91600096610520
:1054F000710539F432602E5F3D9330E32A95E1F770
:1055000008959F3F30F080387105610509F03C5FD8
:105510003C5F3D93913008F08068911DDF93CF93FD
:105520001F930F93FF92EF92192F987F9695E92F73
:1055300096959695E90FFF27E350FF4F992733275C
:10554000EE24FF24A701E70105900894079428F4AE
:10555000360FE71EF81E491F511D660F771F881F63
:10556000991F0694A1F70590079428F4E70EF81EFA
:10557000491F561FC11D770F881F991F661F06946C
:10558000A1F70590079428F4F80E491F561FC71F6E
:10559000D11D880F991F661F771F0694A1F70590EC
:1055A000079420F4490F561FC71FD81F990F661F75
:1055B000771F881F0694A9F784911095177041F002
:1055C000D695C79557954795F794E7941A95C1F7DF
:1055D000E3EAF0E068941590159135916591959105
:1055E00005907FE27395E118F10A430B560BC90B46
:1055F000D009C0F7E10CF11E431F561FC91FD01D73
:105600007EF4703311F48A95E6CFE894015030F0BF
:10561000080F0AF40027021708F4202F2395022F01
:105620007A3328F079E37D932A95E9F710C07D93CA
:105630002A9589F606949795679537951795179447
:10564000E118F10A430B560BC90BD00998F02395CA
:105650007E9173957A3308F070E37C932013B8F74A
:105660007E9170617D9330F0839571E37D9370E35B
:105670002A95E1F71124EF90FF900F911F91CF91A0
:10568000DF91992787FD9095089591110C94392CFD
:10569000803219F089508550C8F70895FB01DC016C
:1056A0004150504088F08D9181341CF08B350CF4C2
:1056B000805E659161341CF06B350CF4605E861B76
:1056C000611171F3990B0895881BFCCF0E94A82BE0
:1056D00008F481E00895E89409C097FB3EF49095A2
:1056E0008095709561957F4F8F4F9F4F9923A9F0BB
:1056F000F92F96E9BB279395F6958795779567954A
:10570000B795F111F8CFFAF4BB0F11F460FF1BC08D
:105710006F5F7F4F8F4F9F4F16C0882311F096E920
:1057200011C0772321F09EE8872F762F05C06623CE
:1057300071F096E8862F70E060E02AF09A95660F87
:10574000771F881FDAF7880F9695879597F9089540
:10575000990F0008550FAA0BE0E8FEEF1616170682
:10576000E807F907C0F012161306E407F50798F0EA
:10577000621B730B840B950B39F40A2661F0232B03
:10578000242B252B21F408950A2609F4A140A6957F
:105790008FEF811D811D08950E94DF2B0C94532CE7
:1057A0000E94452C38F00E944C2C20F0952311F0DB
:1057B0000C943C2C0C94422C11240C94872C0E94A9
:1057C000642C70F3959FC1F3950F50E0551F629FB5
:1057D000F001729FBB27F00DB11D639FAA27F00D4A
:1057E000B11DAA1F649F6627B00DA11D661F829F71
:1057F0002227B00DA11D621F739FB00DA11D621F56
:10580000839FA00D611D221F749F3327A00D611D72
:10581000231F849F600D211D822F762F6A2F112454
:105820009F5750409AF0F1F088234AF0EE0FFF1F87
:10583000BB1F661F771F881F91505040A9F79E3FDE
:10584000510580F00C943C2C0C94872C5F3FE4F3C2
:10585000983ED4F3869577956795B795F795E79534
:105860009F5FC1F7FE2B880F911D9695879597F93D
:10587000089599278827089597F99F6780E870E031
:1058800060E008959FEF80EC089500240A941616B6
:10589000170618060906089500240A94121613061E
:1058A000140605060895092E0394000C11F48823AC
:1058B00052F0BB0F40F4BF2B11F460FF04C06F5FC8
:1058C0007F4F8F4F9F4F089557FD9058440F551F9E
:1058D00059F05F3F71F04795880F97FB991F61F072
:1058E0009F3F79F087950895121613061406551FE9
:1058F000F2CF4695F1DF08C0161617061806991F55
:10590000F1CF86957105610508940895E894BB2749
:1059100066277727CB0197F90895F999FECF92BDB5
:1059200081BDF89A992780B50895262FF999FECF61
:105930001FBA92BD81BD20BD0FB6F894FA9AF99AAC
:105940000FBE01960895052E97FB1EF400940E9449
:10595000BA2C57FD07D00E94042D07FC03D04EF44B
:105960000C94BA2C50954095309521953F4F4F4F50
:105970005F4F089590958095709561957F4F8F4FFB
:105980009F4F08950E94262DA59F900DB49F900DC6
:10599000A49F800D911D112408952F923F924F9244
:1059A0005F926F927F928F929F92AF92BF92CF92AF
:1059B000DF92EF92FF920F931F93CF93DF93CDB7B8
:1059C000DEB7CA1BDB0B0FB6F894DEBF0FBECDBF30
:1059D00009942A88398848885F846E847D848C8401
:1059E0009B84AA84B984C884DF80EE80FD800C810A
:1059F0001B81AA81B981CE0FD11D0FB6F894DEBFED
:105A00000FBECDBFED010895A1E21A2EAA1BBB1B4C
:105A1000FD010DC0AA1FBB1FEE1FFF1FA217B3077A
:105A2000E407F50720F0A21BB30BE40BF50B661F90
:105A3000771F881F991F1A9469F760957095809554
:105A400090959B01AC01BD01CF010895A29FB001CB
:105A5000B39FC001A39F700D811D1124911DB29FA2
:105A6000700D811D1124911D08955058BB27AA2740
:105A70000E944D2D0C94532C0E94452C38F00E940E
:105A80004C2C20F039F49F3F19F426F40C94422C4E
:105A90000EF4E095E7FB0C943C2CE92F0E94642C5B
:105AA00058F3BA17620773078407950720F079F453
:105AB000A6F50C94862C0EF4E0950B2EBA2FA02D93
:105AC0000B01B90190010C01CA01A0011124FF27AB
:105AD000591B99F0593F50F4503E68F11A16F040A6
