:100000000C946B010C9493010C9493010C94AF131A
:100010000C94AF130C94AF130C9493010C949301B4
:100020000C9493010C9422140C9493010C9493015E
:100030000C9493010C9469120C9493010C94930109
:100040000C9414120C9493010C94E7110C94C111AC
:100050000C9493010C9493010C9493010C949301D0
:100060000C9490120C9493014E414E494E495459B0
:10007000494E46CDCCCC3D0AD7233C17B7D1387773
:10008000CC2B329595E6241FB14F0A000020410089
:1000900000C84200401C4620BCBE4CCA1B0E5AAED3
:1000A000C59D7400407A10F35A00A0724E180900E2
:1000B00010A5D4E80000E87648170000E40B5402CD
:1000C0000000CA9A3B000000E1F505000080969808
:1000D00000000040420F000000A086010000001058
:1000E0002700000000E8030000000064000000009A
:1000F000000A00000000000100000000002C76D87B
:1001000088DC674F0823DFC1DFAE59E1B1B796E560
:10011000E3E453C63AE651997696E8E6C28426EBC4
:10012000898C9B62ED407C6FFCEFBC9C9F40F2BAD7
:10013000A56FA5F490055A2AF75C936B6CF9676D6F
:10014000C11BFCE0E40D47FEF520E6B500D0ED90C4
:100150002E0300943577050080841E080000204E91
:100160000A000000C80C333333330F986E1283112A
:1001700041EF8D2114893BE65516CFFEE6DB18D101
:10018000844B381BF77C1D901DA4BBE424203284D3
:10019000725E228100C9F124ECA1E53D27576F7200
:1001A0006B005365747570007368696D206B6C61CA
:1001B00070616D00576174657220466C61670070F4
:1001C000776D506572696F644D7300576174657225
:1001D0002F74656D7000416C61726D2054656D7097
:1001E000204C696D697400566F6461566B6C2074A5
:1001F000656D70004B75624B6F6E65630050776D77
:100200004B6F6E6563004B6C6170616E2F6D6F7428
:100210006F7200A2019D010602FD01F401E701D603
:1002200001CB01BF01B401A801205B455D004E6F09
:10023000206974656D73004D656E753A00005EBC93
:10024000E2613FDD83C29C7E20A3FD1F41009D2310
:10025000BE46DB65F88C11AF32CA57E974252C0015
:10026000486F6D6553616D6F676F6E2E72752F34B9
:100270002E382C00252C00486F6D6553616D6F671B
:100280006F6E2E72752F342E382C00000000002463
:100290000027002A0000000000230026002900009B
:1002A000000000250028002B0004040404040404BA
:1002B0000402020202020203030303030301020415
:1002C00008102040800102040810200102040810D8
:1002D00020004314452B11241FBECFEFD8E0DEBF12
:1002E000CDBF12E0A0E0B1E0E4ECFFE602C0059073
:1002F0000D92AE38B107D9F726E0AEE8B2E001C002
:100300001D92A537B207E1F711E0CAE6D1E004C0BB
:100310002197FE010E94D52CC936D107C9F70E944A
:10032000EF150C94D5370C94000090912C0580911A
:100330002B052FEF3FEF981748F4E92FF0E0E35D2E
:10034000FA4F208130E09F5F90932C05C9010895FA
:1003500090912C0580912B052FEF3FEF981748F4D3
:10036000E92FF0E0E35DFA4F208130E09F5F90934A
:100370002C05C90108952091030581E0213208F080
:1003800046C080912A058111FCCF9091020532E090
:1003900030932A0531E0309329053FEF309328054B
:1003A000109227052093260542EE54E0A4E0B5E024
:1003B000FA013E2F341B321788F110922505209147
:1003C0002505990F922B9093250590912405913046
:1003D00041F510922405909125059093BB009091D2
:1003E000BC0093FDF8CF95EC9093BC0090912A054A
:1003F0009230E1F3909128059F3F49F080912805C4
:10040000803289F080912805803379F084E0109261
:10041000E104109203051092E004089531913D9398
:10042000C8CF95EEE1CF82E0F2CF83E0F0CF8091AC
:1004300008068073803339F48091FA058095881F0F
:100440008827881F089580E008958091080684FD1C
:1004500009C085FF07C08091FA058095881F88270D
:10046000881F089580E008958F929F92AF92BF9267
:10047000CF92DF92EF92FF926B017C0120E030E09F
:1004800040E251E40E9415324B015C0120E030E073
:10049000A901C701B6010E94CB3720E030E040E05F
:1004A0005FEB87FD04C020E030E040E05FE3C50182
:1004B000B4010E9463360E9441370E94B63120E0A9
:1004C00030E040E251E40E94CF36FF90EF90DF90A1
:1004D000CF90BF90AF909F908F900895089508950A
:1004E00010922C0510922B051092E1041092030536
:1004F00010922A0581E08093290510922405449AE0
:10050000459AE9EBF0E080818E7F808380818D7F4A
:10051000808388E48093B80085E48093BC008EE6F5
:1005200092E09093DF048093DE048FE692E0909354
:10053000DD048093DC040895DC01ED91FC910190D1
:10054000F081E02D0994EF92FF920F931F93CF93C8
:10055000DF938C017B01D0E0C0E0F701EC0FFD1FC1
:100560006491662361F0D801ED91FC910190F081D6
:10057000E02DC8010995892B11F02196EECFCE010F
:10058000DF91CF911F910F91FF90EF900895CF923F
:10059000DF92EF92FF920F931F93CF93DF937C0133
:1005A0006A0110E000E00C151D0581F0EB01D70198
:1005B000ED91FC910190F081E02D6991C7010995C1
:1005C000892B21F00F5F1F4FBE01EDCFC801DF91D6
:1005D000CF911F910F91FF90EF90DF90CF900895F2
:1005E000FC01538D448D252F30E0842F90E0821B39
:1005F000930B541710F0CF96089501970895FC01BE
:10060000918D828D981761F0A28DAE0FBF2FB11D15
:100610005D968C91928D9F5F9F73928F90E008956D
:100620008FEF9FEF0895FC01918D828D981731F027
:10063000828DE80FF11D858D90E008958FEF9FEF7B
:100640000895FC01918D228D892F90E0805C9F4F51
:10065000821B91098F73992708958DE495E00E947C
:10066000210321E0892B09F420E0822F089580E006
:1006700090E0892B29F00E942D0381110C94000039
:100680000895FC01A48DA80FB92FB11DA35ABF4F27
:100690002C91848D90E001968F739927848FA68981
:1006A000B7892C93A089B1898C91837080648C93D5
:1006B000938D848D981306C00288F389E02D808184
:1006C0008F7D80830895EF92FF920F931F93CF93B6
:1006D000DF93EC01F62E81E0888F9B8D8C8D981333
:1006E0001AC0E889F989808185FF15C09FB7F89401
:1006F000EE89FF896083E889F9898081837080644D
:1007000080839FBF81E090E0DF91CF911F910F9197
:10071000FF90EF9008950B8D10E00F5F1F4F0F7348
:100720001127E02E8C8D8E110CC00FB607FCFACF6E
:10073000E889F989808185FFF5CFCE010E944103C8
:10074000F1CFEB8DEC0FFD2FF11DE35AFF4FF0823F
:100750009FB7F8940B8FEA89FB8980818062D0CFA4
:10076000CF93DF93EC01888D8823B9F0AA89BB89E8
:10077000E889F9898C9185FD03C0808186FD0DC0D3
:100780000FB607FCF7CF8C9185FFF2CF808185FFF4
:10079000EDCFCE010E944103E9CFDF91CF910895C3
:1007A0008130910539F0880F991F880F991F05979F
:1007B0000197F1F708951F93CF93DF9310911D06D2
:1007C000C0911E06D0911F06912F909580FF16C0F4
:1007D000F8948A8189238A838981812B89838AE09D
:1007E00090E00E94D0038A81182B1A83789487E3C3
:1007F00090E0DF91CF911F910C94D003F8948A81FF
:1008000089238A838981812B898381E490E00E94F6
:10081000D0038A81182B1A83789485E090E0E9CF81
:100820000F931F93CF93DF93082FC8E0D0E011E020
:1008300081E0902F912309F480E00E94DB03110FE7
:100840002197B1F7F894E0911E06F0911F0691816F
:1008500080911D06809598239183E0911E06F0916A
:100860001F069281892382837894DF91CF911F9113
:100870000F9108950F931F93CF93DF938C0185E51C
:100880000E941004E801085F1F4F89910E94100424
:10089000C017D107D1F7DF91CF911F910F91089524
:1008A000FF920F931F93CF93DF9300911D06C0918A
:1008B0001E06D0911F06F8948981F02EF0948F21A6
:1008C000898378941DE7115029F182E090E00E941D
:1008D000D00388818023B9F3F8948A818F218A8399
:1008E0008981802B8983789480EE91E00E94D003E7
:1008F000F89489818F21898386E490E00E94D00357
:100900008881082311E009F010E078948AE991E0E9
:100910000E94D003812FDF91CF911F910F91FF9003
:1009200008950F931F93CF93DF9310911D06C091ED
:100930001E06D0911F06F8948981812B89838A81B4
:10094000012F009580238A8383E090E00E94D003EA
:100950008981802389838AE090E00E94D003C88146
:10096000789485E390E00E94D0031C2381E009F491
:1009700080E0DF91CF911F910F9108953FB7F894D8
:100980008091340390913503A0913603B0913703E1
:1009900026B5A89B05C02F3F19F00196A11DB11DDA
:1009A0003FBFBA2FA92F982F8827BC01CD01620F16
:1009B000711D811D911D42E0660F771F881F991FD1
:1009C0004A95D1F708958F929F92AF92BF92CF929E
:1009D000DF92EF92FF926B017C010E94BE044B01FB
:1009E0005C010E94BE04681979098A099B09683E66
:1009F000734081059105A8F381E0C81AD108E10888
:100A0000F10828EE820E23E0921EA11CB11CC11435
:100A1000D104E104F10429F7FF90EF90DF90CF902B
:100A2000BF90AF909F908F9008952FB7F8946091EA
:100A300030037091310380913203909133032FBFC3
:100A400008951F93CF93DF93D82F80910B06909139
:100A50000C06009709F473C02091080681FF6BC053
:100A60002061209308062091080682FF66C0286056
:100A70002093080623E0969587952A95E1F79093B1
:100A80000C0680930B068091F9059091FA0585FF7D
:100A90007FC090689093FA058093F9058091F905DD
:100AA0009091FA0593FD05C098609093FA058093A4
:100AB000F9058091080680628093080611E0809114
:100AC000F9059091FA0594FBCC27C0F9CD2796FF44
:100AD00006C09F7B9093FA058093F905C1E0809151
:100AE000F9059091FA0591FD08C0CC2309F470C076
:100AF00092609093FA058093F9050E941505209164
:100B0000F7053091F805FB01E21BF30B2091F90585
:100B10003091FA05CC2309F47FC025FD5FC04091D8
:100B2000FF0532FD38C04423E1F134603093FA050B
:100B30002093F9053FC02F7E94CF277F99CF10E0F7
:100B4000662309F4BCCF809108061616ECF4806188
:100B5000809308060E9415052091F7053091F8054D
:100B6000AB01421B530B9A0140910A067093F805A2
:100B70006093F705809108064217130639F030F0AC
:100B80008860809308067FCF8F7EE2CF877FF9CF82
:100B90001092F60583CF4E171F0619F010F0411181
:100BA0000DC022623093FA052093F9057093FE057B
:100BB0006093FD057093F8056093F7058091F90542
:100BC0009091FA058F719927C1E0892B09F4C0E053
:100BD000812F8C2BDF91CF911F91089537FDEECFA0
:100BE00026FD0BC040910106A0E14A9FA0011124FF
:100BF000E417F50718F3246499CF4091020627FF04
:100C000040910106A0E14A9FA00111242868E41741
:100C1000F50708F08BCFD2CF25FF19C08091FF05D3
:100C20008E171F0611F008F041C026FD05C0809107
:100C3000F6058F5F8093F60537FD1092F6052F7D40
:100C4000206131603093FA052093F9052FC030FF01
:100C500015C037FD05C020613093FA052093F905D2
:100C60002091F9053091FA053E773093FA052093EB
:100C7000F9057093F8056093F70518C04091F605E3
:100C8000442339F1C901807C9927892BD9F48091BB
:100C9000000640E1849FC0011124E817F90790F491
:100CA0008091FD059091FE05892B71F48091F905E5
:100CB0009091FA0592FF82CF9B7F9093FA058093E3
:100CC000F9057CCF2160BECF1092FE051092FD0584
:100CD000EDCF31FFEBCF2F733D7F38603093FA05B6
:100CE0002093F9051092FE051092FD05C2CF0895DC
:100CF0000895E0E0615098F0DC018D918E27E82F97
:100D0000EF70F0E0E35CFD4F9491E82FE295EF7017
:100D1000F0E0E35BFD4FE491E927CD01EBCF8E2FAF
:100D200008956F927F928F929F92AF92BF92CF92CF
:100D3000DF92EF92FF920F931F93CF93DF93CDB784
:100D4000DEB72C970FB6F894DEBF0FBECDBF5C01A7
:100D50000E945004C5010E943A048EEB0E941004C8
:100D60008E010F5F1F4F4E018AE0880E911C3801E3
:100D700088E0C82ED12CF12CEE24E3940E9491043B
:100D80008111FE28EE0CE1E0CE1AD108B9F7F80186
:100D9000F1928F01E815F90559F70E945004C50139
:100DA0000E943A0484E40E94100468E0C3010E9497
:100DB0007906998589132FC069817A818D81807622
:100DC00011F5687F072E000C880B990B0E94B63135
:100DD00020E030E040E85DE30E9415322C960FB62B
:100DE000F894DEBF0FBECDBFDF91CF911F910F9161
:100DF000FF90EF90DF90CF90BF90AF909F908F903B
:100E00007F906F900895803211F46C7FDBCF803437
:100E1000C9F66E7FD7CF60E070E88AEF93E4DECF4B
:100E200085ED8093BC008091BC0084FDFCCF1092C6
:100E30002A05089520910C03260F3327331F2132F2
:100E40003105ECF420912A05FC0190E080E024308B
:100E500069F082E00895A0910C032191AC01445106
:100E60005D4FA40FB52FB11D2C930196861798F3F3
:100E700080910C03680F60930C0380E0089581E07B
:100E800008950895E0912C0580912B05E81730F422
:100E9000F0E0E35DFA4F808190E008958FEF9FEFDF
:100EA000089580912B0590912C05891B990B08952D
:100EB000CF92DF92EF92FF920F931F93CF93DF9326
:100EC0007C01CB018A012091E004222389F0EB010F
:100ED0006B01C40ED51ECC15DD0569F06991D701F3
:100EE000ED91FC910190F081E02DC7010995F3CFC0
:100EF000642F0E941A07C801DF91CF911F910F91B3
:100F0000FF90EF90DF90CF900895CF93DF930F92F3
:100F1000CDB7DEB769832091E0042223F9F0209158
:100F20000305203258F021E030E0FC0133832283B6
:100F300090E080E00F90DF91CF9108958091E104DF
:100F4000E82FF0E0EE51FB4F998190838F5F809303
:100F5000E1048093030581E090E0ECCF61E0CE01F5
:100F600001960E941A07F7CFCF93C62F90914A0699
:100F700021E02093E004909302051092E104109286
:100F80000305682F8AEE95E00E9485076C2F8AEE94
:100F900095E00E9485070E94BB0191E0811190E0DD
:100FA000892FCF910895FC01248131E03093E00432
:100FB000209302051092E104109203058485682BAA
:100FC0008AEE95E00E9485070C94BB010F931F9356
:100FD000CF938C01C62F0E94D3076C2F6460C80189
:100FE0000E94D3076C2F6B7FC8010E94D30782E356
:100FF00090E0CF911F910F910C94D0030F931F930A
:10100000CF93DF938C01D62FC42F607F642B0E9477
:10101000E60780E1D89FB00111246C2BC801DF9155
:10102000CF911F910F910C94E607CF93DF93CDB72B
:10103000DEB728970FB6F894DEBF0FBECDBF98E09D
:10104000E3E5F1E0DE01119601900D929A95E1F74A
:1010500090911806961708F46FEF262F30E0220FB4
:10106000331F41E050E04C0F5D1F240F351FF90185
:101070006081680F606840E080E196E028960FB6D6
:10108000F894DEBF0FBECDBFDF91CF910C94FE0769
:1010900040E061E080E196E00E94FE0780ED97E08D
:1010A0000E94D00380911906882321F060E080E03F
:1010B0000C941508089541E00E94FE0781E090E03D
:1010C00008952091EA023091EB022817390771F454
:1010D0009091E9028091E802981741F0E091E902CD
:1010E000F0E0E855FD4F808190E008958FEF9FEF8D
:1010F0000895EF92FF920F931F93CF93DF93DC013C
:101100005C968D919C915D97009769F421E030E0A9
:1011100013963C932E931297DF91CF911F910F91CD
:10112000FF90EF9008955196ED91FC915297509653
:101130002C915097322F30950FB75E964C915E9759
:10114000142F127041FD6095F8944081112319F11C
:10115000422B4083EC012197F1F748E0E62EF12C79
:10116000508160FF1AC0522B5083EC012197F1F798
:10117000B70175956795415089F78081112379F002
:10118000832380830FBF5C968D919C910197F1F72B
:1011900081E090E0C1CF4323DCCF5323E5CF282B60
:1011A0002083F0CF2091EA023091EB022817390713
:1011B00071F48091E8022091E90290E0805C9F4FF9
:1011C000821B910960E470E00E94752B089590E005
:1011D00080E008952091EA023091EB022817390748
:1011E000B9F49091E9028091E802981789F0E091B2
:1011F000E902F0E0E855FD4F80812091E90230E0FE
:101200002F5F3F4F2F7333272093E90290E008951B
:101210008FEF9FEF089590E080E008958091B103F3
:101220009091B203019741F48091CC03882321F07F
:1012300080910F01811102C0439A08958091140199
:101240009091150164E670E00E94612B9B01409132
:10125000C8035091C903469FC001479F900D569FF8
:10126000900D11246FEF73E00E94612B8091A60214
:101270009091A70201968217930768F49093A702B2
:101280008093A6028091A6029091A70286179707E5
:1012900098F2439808951092A7021092A602F2CFF6
:1012A000982F80912A058111FCCF862F21E0209371
:1012B0002A05209329053FEF309328051092270532
:1012C000360F309326052093250520912505990F8B
:1012D000922B9093250590912405913029F5109239
:1012E0002405909125059093BB009091BC0093FD3F
:1012F000F8CF95EC9093BC0090912A059130E1F3E2
:1013000090912705961710F48091270524E035E089
:10131000ADE2B5E0F9019E2F921B981738F01092BC
:101320002C0580932B05089595EEE4CF91919D9324
:10133000F2CFCF92DF92EF92FF9290914A0621E096
:101340002093E004909302051092E10410920305AB
:10135000682F8AEE95E00E9485070E94BB018111EB
:101360002FC063E070E080914A0690914B060E9486
:1013700050090E94A8016C010E94A8010D2C000CCC
:10138000EE08FF087601DD24CC24BC01990F880B00
:10139000990B982F872F762F6627C62AD72AE82AF7
:1013A000F92A0E94A801BC01990F880B990B6C299E
:1013B0007D298E299F29FF90EF90DF90CF9008958F
:1013C00060E070E080E890E0F6CF90914A0621E07E
:1013D0002093E004909302051092E104109203051B
:1013E000682F8AEE95E00E9485070E94BB0181115B
:1013F0000BC061E070E080914A0690914B060E941C
:1014000050090E94A801089580E00895CF93C82F45
:10141000882349F0E091FB05F091FC053097D9F461
:101420008C2FCF9108958091F9059091FA0593FF43
:10143000F7CF0E9415052091F7053091F805621B42
:10144000730B8091030620E1829FC001112468176D
:10145000790700F7E5CF09958091F9059091FA0594
:1014600093FFDECF0E9415052091F7053091F80516
:10147000621B730B8091030620E1829FC00111243F
:101480006817790768F28091F9059091FA05977FBE
:101490009093FA058093F905C3CFDF92EF92FF9204
:1014A0000F931F93CF93DF93D82EE92E80912A06B6
:1014B000811104C00E94500481110FC010922806AF
:1014C00010922A061092290680E0DF91CF911F9199
:1014D0000F91FF90EF90DF90089580EF0E9410042D
:1014E000D1E000E0F12CC1E00E949104182F0E948D
:1014F00091041130E1F48130C9F5C134F8F2F09271
:101500002806F11003C081E080932A06809120060E
:101510008823A1F2A0E2B6E0ED2DFE2DCF010896C2
:101520002D912193E817F907D9F781E0CECF202F2D
:1015300030E0181310C080912806C817A8F4F901EC
:10154000E35EF94F83818D2389F410E0C93010F4F4
:10155000C0932906FC2EF901E35EF94F83819D2F8C
:101560009095892383830AC08C13EFCFE02FF0E09E
:10157000E35EF94F83818D2B838311E0812F0E94DD
:10158000DB03CF5FDD0F11F40F5FD1E0083008F40B
:10159000ABCFB3CF90E0FC01E755FD4FE491F0E015
:1015A000EE0FFF1FEB56FD4FA591B4912C91835484
:1015B0009D4FFC018491822391E009F490E0892FF2
:1015C00008956115710579F0FB0101900020E9F79C
:1015D0003197AF01461B570BDC01ED91FC91028066
:1015E000F381E02D099490E080E008954F925F929E
:1015F0006F927F92AF92BF92CF92DF92EF92FF9263
:101600000F931F93CF93DF93CDB7DEB7A1970FB69C
:10161000F894DEBF0FBECDBF5C016A017B0119A249
:10162000223008F42AE08E010F5D1F4F422E512C0C
:10163000712C612CC701B601A30192010E94C8352B
:101640006A302CF5605DF80162938F01C414D504F3
:10165000E604F704C8F4BF01C5010E94E10AA1969F
:101660000FB6F894DEBF0FBECDBFDF91CF911F91B3
:101670000F91FF90EF90DF90CF90BF90AF907F9051
:101680006F905F904F90089569017A01D3CF695CA4
:10169000DACFCF92DF92EF92FF920F931F93CF9307
:1016A000DF938C016B01770FEE08FF08F7FE1AC07D
:1016B0006DE20E949C02EC0144275527BA014C19A7
:1016C0005D096E097F092AE0C8010E94F60A8C0FA5
:1016D0009D1FDF91CF911F910F91FF90EF90DF90B1
:1016E000CF9008952AE0B701A601DF91CF911F9115
:1016F0000F91FF90EF90DF90CF900C94F60A0C942E
:10170000E10AEF92FF920F931F93CF93DF93CDB730
:10171000DEB72C970FB6F894DEBF0FBECDBF7C01AD
:10172000CB01BA018E010F5F1F4F40E00E94DB2CFE
:10173000B801C7010E947F0B2C960FB6F894DEBF4C
:101740000FBECDBFDF91CF911F910F91FF90EF9012
:101750000895EF92FF920F931F93CF93DF9361E071
:1017600090E080E00E94AA35D0E0C0E0CE01825730
:101770009D4F7C0101E010E0F70161917F01C801FC
:101780008C0F9D1F0E94AA350F5F1F4F0930110556
:1017900099F72896C831D10549F7DF91CF911F916C
:1017A0000F91FF90EF9008958F929F92AF92BF920A
:1017B000CF92DF92EF92FF920F931F93CF93DF931D
:1017C000CDB7DEB7CB55D1090FB6F894DEBF0FBE4B
:1017D000CDBF539A8091B0008F7D8093B0005B980D
:1017E0002198299A3B9A439A3A9A429A399A419A6D
:1017F000389A409A0E9470026AE070E080E090E0BF
:101800000E94E3041092B00087E08093B10081E071
:101810008093700084E68093B20086E790E0909316
:101820004B0680934A060E94700266EB80EE0E948F
:10183000B407882309F452C16AE070E080E090E0C8
:101840000E94E30480ED0E94E509803619F0883596
:1018500009F044C180914A0611E01093E00480939E
:1018600002051092E1041092030568E88AEE95E003
:101870000E9485070E94BB01811101C16AE170E0ED
:1018800080914A0690914B060E9450090E94A8013F
:101890007C010E94A80120E0382F2E293F29309397
:1018A0005306209352060E94A8017C010E94A801C1
:1018B00020E0382F2E293F293093550620935406D7
:1018C0000E94A8017C010E94A80120E0382F2E2947
:1018D0003F2930935706209356060E94A8017C01A9
:1018E0000E94A80120E0382F2E293F293093590665
:1018F000209358060E94A8017C010E94A80120E0C4
:10190000382F2E293F2930935B0620935A060E94D8
:10191000A8017C010E94A80120E0382F2E293F2930
:1019200030935D0620935C060E94A8017C010E9412
:10193000A80120E0382F2E293F2930935F062093FD
:101940005E060E94A8017C010E94A80120E0382FB9
:101950002E293F2930936106209360060E94A8013A
:101960007C010E94A80120E0382F2E293F293093C6
:101970006306209362060E94A8017C010E94A801D0
:1019800020E0382F2E293F293093650620936406E6
:101990000E94A8017C010E94A80120E0382F2E2976
:1019A0003F2930936706209366060E94A8017C01B8
:1019B0000E94A80120E0382F2E293F293093690684
:1019C000209368060E94A8010E94A80180936A06DD
:1019D00080914A061093E004809302051092E1047E
:1019E0001092030561EE8AEE95E00E9485070E9441
:1019F000BB0168E070E080914A0690914B060E941E
:101A000050090E94A8018C010E94A80120E0382FF3
:101A1000202B312B30936C0620936B060E94A8017B
:101A200080936D060E94A80164E0880F991F6A9553
:101A3000E1F790936F0680936E060E94A8018C01D7
:101A40009C012F70332780916E0690916F06822B38
:101A5000932B90936F0680936E060E94A8010295C7
:101A60000F7074E0880F991F7A95E1F7802B90939F
:101A70007106809370060E94A8018093720660919F
:101A8000500682EF0E94B40782EF0E94E509682F9A
:101A900082EF0E94B40760914F0620E2629FB0017E
:101AA00011248091510634E0839FC0011124682BDA
:101AB00080914C06682B84EF0E94B40760914D061C
:101AC00080E2689FB001112480914E06E4E08E9F71
:101AD000C0011124682B85EF0E94B40710924606BE
:101AE0001092450610924406109243061092420648
:101AF000109241068DE991E0909348068093470645
:101B000090913706963108F076C02DEB30E0309397
:101B10004206209341062BE931E03093440620939E
:101B200043062CE231E0309346062093450620918F
:101B3000680084E0983048F031E09E3008F430E0EE
:101B400081E001C0880F3A95EAF7822B8093680004
:101B50002DE630E0983050F02BE630E09E3030F04B
:101B600030E020E0963110F42CE630E030933F0670
:101B700020933E06292F30E0983008F03DC181E0E7
:101B800001C0880F9A95EAF7809340068091470636
:101B9000909148060197F1F780914506909146068D
:101BA000892B49F1E091EA02F091EB0226E0EB3259
:101BB000F20709F1309739F0A389B4899C9185899E
:101BC000809589238C93809149068E7F8093490666
:101BD0001092E8021092E9028BE296E09093EB02F9
:101BE0008093EA02E0913E06F0913F068081909159
:101BF0004006892B8083E0915D05F0915E0582E0CF
:101C00008083E0915905F0915A051082E0915B05BF
:101C1000F0915C0580E1808310926505E09161059B
:101C2000F091620586E08083E0915F05F0916005A8
:101C3000808180618083E0915F05F0916005808103
:101C400088608083E0915F05F09160058081806805
:101C50008083E0915F05F091600580818F7D8083B6
:101C60000E9470021092150680911B06823018F0B7
:101C700098E0909315068093180662E370E080E088
:101C800090E00E94E30460911C0680E196E00E94CF
:101C9000D30768EE73E080E090E00E94E30460E325
:101CA00080E196E00E94E60784E991E10E94D0037A
:101CB00060E380E196E00E94E60784E991E10E94FA
:101CC000D00360E380E196E00E94E60786E990E0B9
:101CD0000E94D00360E280E196E00E94E6076091F6
:101CE0001506606240E080E196E00E94FE0784E015
:101CF0008093160640E06CE080E196E00E94FE07CB
:101D00000E94480882E08093170640E066E080E188
:101D100096E00E94FE0740E062E080E196E00E94CB
:101D2000FE0780ED97E00E94D00310921C0660E051
:101D300080E196E00E94D3070E9415056093DF03BF
:101D40007093E0038093E1039093E2030E941505F2
:101D50006093DB037093DC038093DD039093DE03D9
:101D600010928D0410924C0410923803109252037A
:101D700090E080E00E94A235813009F44AC01092C0
:101D8000280610922A061092290610922706109211
:101D90002606109225061092240610922306109211
:101DA000220610922106109220060EE812E056EA52
:101DB000E52E52E0F52ECE0101960E944D0A8823B1
:101DC00009F420C1E016F10609F41CC167E0CE0158
:101DD00001960E94790698858913EDCF8981883212
:101DE00051F788E0FE013196D80101900D928A9555
:101DF000E1F7085F1F4FDFCF9E3040F428503109D4
:101E000081E001C0880F2A95EAF7BECE2E50310935
:101E1000F7CF10E000E0C80182579D4F6C01EE241F
:101E2000E394F12CC701800F911F0E94A235F601A7
:101E300081936F01FFEFEF1AFF0A29E0E216F10428
:101E400089F7085F1F4F0831110529F710922806FE
:101E500010922A0610922906109227061092260642
:101E60001092250610922406109223061092220644
:101E70001092210610922006F12CCE018F5A9F4F0E
:101E80000E944D0AE82E882331F167E0CE018F5A77
:101E90009F4F0E94790669969FAD69978913EDCF90
:101EA00062968FAD6297883241F78E010F5F1F4FA8
:101EB000E12C6801FE1409F4EDC048E050E0B801DF
:101EC000CE018F5A9F4F0E94D332085F1F4F892B3C
:101ED000A1F2E394EFCF6C961DAE1EAE1FAE6C97D1
:101EE0000EE812E0D12CC12CAA24A394F80188E0BA
:101EF000800F9191992399F0CE0101964C01B12C5C
:101F0000FB14B9F048E050E0B401C8010E94D3329C
:101F1000E8E08E0E911C892BE1F0B394F1CF8E1383
:101F2000E8CFE9E5F0E0EC0FFD1FEC0DFD1DA08210
:101F300010C0F801C801089611928E179F07E1F7AB
:101F4000E9E5F0E0EC0FFD1FEC0DFD1DA082EE2495
:101F5000E394FFEFCF1ADF0A085F1F4F23E0C2169A
:101F6000D10421F6CE0101965C01912C36EAC32EF4
:101F700032E0D32EF91409F444C00EE812E0F8015F
:101F8000C80108962191211199C08E179F07D1F79A
:101F9000085F1F4FC016D10691F76A968FAD6A97FA
:101FA000882319F090E080E00CC06B968FAD6B97A2
:101FB000811124C06C968FAD6C978823D1F082E09C
:101FC00090E0DC0123E0AA0FBB1F2A95E1F7A2579E
:101FD000BD4F28E0F50101900D922A95E1F7E9E562
:101FE000F0E0EC0FFD1F8E0F9F1FFC011082EE240E
:101FF000E3949394F8E0AF0EB11CBCCF81E090E085
:10200000E0CFE1100E94A90B88E0EEE8F2E0A2E345
:10201000B4E001900D928A95E1F788E0E6E9F2E0FC
:10202000A6E0B4E001900D928A95E1F788E0EEE930
:10203000F2E0A1EFB3E001900D928A95E1F780E123
:10204000809381001092800080E293E0909387005B
:102050008093860081E1809381008EE099E09093E7
:1020600001018093000181E080936F00C55ADF4F2A
:102070000FB6F894DEBF0FBECDBFDF91CF911F9199
:102080000F91FF90EF90DF90CF90BF90AF909F9017
:102090008F90089529E02F1508F4EFCE38E0F39ED5
:1020A000D0011124AC0DBD1D88E0FE01EF5AFF4F99
:1020B00001900D928A95E1F7F394DFCE48E050E06D
:1020C000B501C8010E94D332892B09F061CF91CFAD
:1020D0008F929F92AF92BF92CF92DF92EF92FF9238
:1020E0000F931F93CF93DF93CDB7DEB761970FB6F2
:1020F000F894DEBF0FBECDBF0E94480880914F0309
:10210000811125C060E00E94150867E372E080E15C
:1021100096E00E94A30261E080E00E941508E09131
:102120004D03F0E0EE0FFF1FED5EFD4F65917491E2
:1021300040E150E0CE0101960E94052E198ABE01B1
:102140006F5F7F4F80E196E00E947F0B6EC0209111
:102150004C0391E080914D03811101C090E0ABE50B
:10216000B1E080E0E0E01C963C911C9739134EC032
:1021700028134BC00E2F10E08DE0E89FF0011124D2
:10218000E55AFE4FE081F0E0EE0FFF1FE95EFD4FE4
:102190006591749140E150E0CE0101960E94052EB8
:1021A000198A60E080E00E941508BE016F5F7F4FD2
:1021B00080E196E00E947F0B80914E03882331F0EE
:1021C00069E272E080E196E00E94A30261E080E0B3
:1021D0000E9415088DE0809FF001819FF00D112471
:1021E000E55AFE4F83818130E9F1882389F18230FD
:1021F000E1F40180F281E02D808165E172E08823C5
:1022000009F4A0CF62E172E09DCF8F5FEF5F1D9672
:10221000E93009F0A8CF60E080E00E9415086EE286
:1022200072E080E196E00E94A30261960FB6F894F6
:10223000DEBF0FBECDBFDF91CF911F910F91FF90F9
:10224000EF90DF90CF90BF90AF909F908F900895C8
:102250000180F281E02D6081718180E196E00E9431
:10226000490BE3CF0180F281E02DC080D180E28074
:10227000F380A7019601C701B6010E94D03769E13A
:1022800072E0811126C046015701E894B7F82FEF9C
:102290003FEF4FE75FE7C501B4010E94D0378111DE
:1022A0000CC02FEF3FEF4FE75FE7C501B4010E947D
:1022B000AF316DE172E0181664F02FEF3FEF4FE79A
:1022C0005FE4C701B6010E94CB3718163CF461E207
:1022D00072E080E196E00E94E10AA7CF2FEF3FEF86
:1022E0004FE75FECC701B6010E94AF3187FDEFCF2A
:1022F00020E030E0A901C701B6010E94AF3187FF9D
:1023000009C06DE280E196E00E949C02F7FAF09429
:10231000F7F8F0942DEC3CEC4CE45DE3C701B6011A
:102320000E9463364B015C010E9448376B017C01BF
:102330000E94B4319B01AC01C501B4010E94623618
:102340004B015C012AE0B701A60180E196E00E9402
:10235000F60A6EE280E196E00E949C0220E030E006
:1023600040E251E4C501B4010E9415320E94483791
:10237000AB0170E060E02AE080E196E00E94F60A9E
:1023800054CF1F920F920FB60F9211242F933F93A9
:102390004F935F936F937F938F939F93AF93BF936D
:1023A000EF93FF938DE495E00E944103FF91EF913D
:1023B000BF91AF919F918F917F916F915F914F915D
:1023C0003F912F910F900FBE0F901F9018952F9354
:1023D0002FB72F938F939F93EF93FF93E0915D051A
:1023E000F0915E058081E0916305F091640582FDC6
:1023F00019C09081809166058F5F8F73209167056A
:10240000821741F0E0916605F0E0E35BFA4F958FAB
:1024100080936605FF91EF919F918F912F912FBF30
:102420002F9118958081F6CF1F921FB61F9211240D
:102430008F939F93AF93BF9380913003909131031B
:10244000A0913203B09133030196A11DB11D809379
:10245000300390933103A0933203B0933303809100
:102460002F0393E0980F9D37E8F490932F0380910A
:10247000340390913503A0913603B0913703019650
:10248000A11DB11D8093340390933503A0933603AF
:10249000B0933703BF91AF919F918F911F901FBE53
:1024A0001F9018958A5780932F0380913003909145
:1024B0003103A0913203B09133030196A11DB11DE8
:1024C0008093300390933103A0933203B09333038E
:1024D000CECF1F920F920FB60F9211242F933F93DE
:1024E0004F935F936F937F938F939F93AF93BF931C
:1024F000EF93FF93E0910001F09101010995FF91A5
:10250000EF91BF91AF919F918F917F916F915F916B
:102510004F913F912F910F900FBE0F901F901895E4
:102520001F920F920FB60F9211242F933F934F9348
:102530005F936F937F938F939F93AF93BF93EF932B
:10254000FF938091B900887F803609F44AC0F0F586
:10255000883209F4A7C018F5803109F49BC0B8F49B
:10256000882309F4F9C0883009F494C0FF91EF91F1
:10257000BF91AF919F918F917F916F915F914F919B
:102580003F912F910F900FBE0F901F90189588319B
:1025900009F488C0803251F78093280514C0803434
:1025A00009F49DC040F48033B9F38833F9F6809381
:1025B000280585ECB0C0803509F485C0883509F45C
:1025C00096C0883499F60E941007D0CF883909F454
:1025D0008CC038F5883729F050F4883611F08037F0
:1025E00029F683E080932A0510922E0357C088387D
:1025F00009F47BC0803919F0803809F0B7CF809199
:102600002E03803208F071C0E0912E0381E08E0F1E
:1026100080932E038091BB00F0E0E25FFC4F80834B
:102620003DC0803B39F0E0F4803A09F479C0883A43
:1026300009F09CCF84E080932A0510920D0310923C
:102640000C03E091DE04F091DF04099580910C0306
:1026500081110FC081E080930C031092EC0209C03D
:10266000803C09F4A6CF883C09F4A3CF883B09F04D
:102670007DCFE0910D0381E08E0F80930D03F0E09C
:10268000E451FD4F80818093BB0090910D038091B8
:102690000C0329C0809125058093BB0085EC8093B5
:1026A000BC0064CF9091270580912605981758F5B6
:1026B000E091270581E08E0F80932705F0E0EC5F25
:1026C000FA4F8081E9CFE091270581E08E0F80935A
:1026D00027058091BB00F0E0EC5FFA4F808390917A
:1026E0002705809126059817C8F285E8D8CFE09194
:1026F000270581E08E0F809327058091BB00F0E0D5
:10270000EC5FFA4F80838091290581115CCF81E0D5
:102710008093240584EA8093BC0010922A0526CF7A
:1027200085EC8093BC0010922A0580912E038032A4
:1027300030F4E0912E03F0E0E25FFC4F10826091F4
:102740002E0370E0E091DC04F091DD048EE093E074
:10275000099510922E030ACF1092280534CF2F939B
:102760002FB72F933F934F935F936F937F938F93E5
:102770009F93AF93BF93EF93FF93E091EA02F091A1
:10278000EB02309749F0A685B7858585968D91FF38
:1027900012C09C91892391F4FF91EF91BF91AF9169
:1027A0009F918F917F916F915F914F913F912F9169
:1027B0002FBF2F9118959C91892371F7A389B48914
:1027C0009C918589809589238C9386899789019727
:1027D000F1F7608D718DA685B785558538E020E0CD
:1027E000CB010197F1F7822F90E095958795282FDF
:1027F0004C91452309F02068315091F7868D81FD79
:1028000020958091E80290E001968F73992730918E
:10281000E902381799F0A091E802B0E0A855BD4F41
:102820002C938093E802828D938D0197F1F7A38911
:10283000B4898C919589892B8C93AECF868D8160DC
:10284000868FF1CF2F932FB72F938F939F9384E68B
:102850008093B2008091D9049091DA04883E93402D
:1028600044F00C9400009F918F912F912FBF2F91D6
:1028700018958091D9049091DA0401969093DA0426
:102880008093D904F0CFCF931092500510924F054A
:1028900088EE93E0A0E0B0E080935105909352055C
:1028A000A0935305B093540524ED31E030934E05C9
:1028B00020934D0525EC30E030935A0520935905BF
:1028C00024EC30E030935C0520935B0520EC30E095
:1028D00030935E0520935D0521EC30E03093600578
:1028E00020935F0522EC30E0309362052093610570
:1028F00026EC30E030936405209363051092660562
:102900001092670510926805109269051092ED0506
:102910001092EC058093EE059093EF05A093F005DF
:10292000B093F10526EE31E03093EB052093EA05F4
:1029300026E730E030934B0620934A0623E02093AD
:102940004C0620934D0634E030934E0620934F06FC
:1029500021E02093500622E02093510610922E068B
:1029600010922D0680932F0690933006A093310687
:10297000B093320684E092E090932C0680932B066D
:10298000109242061092410610924406109243069D
:10299000109246061092450610924806109247067D
:1029A000809149068C7F809349068091B0008F7793
:1029B0008093B0002B9A239AE8ECF2E0E491E09344
:1029C0003B06E4EBF2E0E491F0E0EE0FFF1FE1568E
:1029D000FD4F8591949190933D0680933C062498F9
:1029E0002C982C9A8CE080933706E9ECF2E0E49185
:1029F000E0933806E5EBF2E0E491F0E0EE0FFF1F24
:102A0000EB56FD4F2591349130933A0620933906C9
:102A100056985E98E3ECF2E0E491E0931D06EFEA4D
:102A2000F2E0E491F0E0EE0FFF1FEB56FD4F259131
:102A3000349130931F0620931E06109228061092A0
:102A40002A06109229061092270610922606109246
:102A50002506109224061092230610922206109248
:102A6000210610922006109213061092120628EFEB
:102A700031E030931106209310061092190697E268
:102A80009093140690E190931A0692E090931B069F
:102A900010921C061092F8051092F7051092FA0594
:102AA0001092F9051092FC051092FB051092FE059C
:102AB0001092FD0522E32093FF052FE120930006ED
:102AC00025E220930106809302068EE3809303069D
:102AD0001092040610920506109206061092070640
:102AE00010920806109209068EE180930A06109251
:102AF0000C0610920B0684E080930D0690930E0650
:102B000085E080930F0654985C982FEB32E0F90132
:102B100044918BEA92E0FC015491E52FF0E0EE0F36
:102B2000FF1FE557FD4FA591B4915C91409545235A
:102B30004C93F9012491FC018491E82FF0E0EE0F11
:102B4000FF1FE156FD4FA591B4918C91209528234C
:102B50002C9380910F0690E0AC0143545D4FFA0135
:102B6000349187559D4FFC012491E22FF0E0EE0F48
:102B7000FF1FE557FD4FA591B4912C91309532235D
:102B80003C93FA012491FC018491E82FF0E0EE0FD0
:102B9000FF1FE156FD4FA591B4918C91282B2C93EA
:102BA0008091F9059091FA0590619093FA058093D0
:102BB000F90580910E060E94CA0AC82F80910D0661
:102BC0000E94CA0A837090910906907FC370CC0F4F
:102BD000CC0F982B9C2B90930906CF910895CDB7DD
:102BE000DEB7C654D1090FB6F894DEBF0FBECDBF15
:102BF000F89482E880937A0083E084BD85BD80915B
:102C00006E00816080936E0081E0809380009BE085
:102C1000909381008093B00084E08093B100109283
:102C2000C10078940E94D40B9E012D5D3F4F3BA7BD
:102C30002AA7AE01445E5F4F5DA74CA7CE01019667
:102C40009FA78EA780910F069091080697FFA3C0BB
:102C50000E94CA0A2091F9053091FA0520FD1092D0
:102C6000F605A9014F715527452B29F0207E309399
:102C7000FA052093F9059091080695FF03C09F7D02
:102C80009093080660E00E9421050E94060A809148
:102C9000DB04882321F00E9448081092DB04109284
:102CA000DA041092D9048091D7049091D804892B2A
:102CB00009F41BC11092D8041092D7048091D50456
:102CC0009091D604892B09F434C11092D604109245
:102CD000D504C090D104D090D204E090D304F090F9
:102CE000D4040E9415056C197D098E099F09683866
:102CF00073418105910598F10E9415056093D104F7
:102D00007093D2048093D3049093D40487EF0E94ED
:102D1000990961157105B0E88B07910509F02DC17E
:102D2000C12CD12C760120E030E04AE754E4C70101
:102D3000B6010E9415326B017C0120E030E048ECC6
:102D400052E4C701B6010E9415320E9441376093D8
:102D5000CD047093CE048093CF049093D0048091DF
:102D60005201882309F432C380915101811107C0B7
:102D700010928D0410928C0481E080935101809117
:102D80005001811127C310924C0410924B0481E032
:102D9000809350011FC30E94CA0A082F80910E061B
:102DA0000E94CA0A182F80910D060E94CA0A20911B
:102DB000F9053091FA0520FD1092F605A9014F7131
:102DC0005527452B29F0207E3093FA052093F905ED
:102DD0009091080695FF03C09F7D909308069091FF
:102DE0000906692F6295607F66FB660F660B60F9C6
:102DF000482F50E0292F2295220F220F207C26FBFE
:102E0000220F220B20F92627022E000C330B282735
:102E100035271217130619F460E0802F34CF292FBD
:102E200022952F70062E000C770B9F7046175707C0
:102E300009F44BC02F5F2295207F922B90930906B7
:102E400090910906907F212F2370220F220F382F97
:102E50003370932B922B90930906907FE9F2909117
:102E60000806292F23702130C1F1222381F122305D
:102E7000C9F12091090681E020310CF480E092FB39
:102E8000992790F961E089136FEF809109068F709F
:102E9000809309068091040690910506A09106068C
:102EA000B0910706C62E062E000CDD08EE08FF08BE
:102EB0008C0D9D1DAE1DBF1D8093040690930506CD
:102EC000A0930606B0930706A8CF215FB4CF1123C5
:102ED00009F4A2CF8111CDCF9FCF11119DCF8823AF
:102EE00041F29ACF181398CFC4CF8DE495E00E9499
:102EF0002103892B09F4E2CE81E090E09093D8047D
:102F00008093D7048DE495E00E94FF02E0918C0449
:102F1000EF3308F0D3CE91E09E0F90938C04F0E055
:102F2000E357FB4F8083E92FF0E0E357FB4F10821C
:102F3000C5CE8BE296E00E94D208892B09F4C9CE57
:102F400081E090E09093D6048093D5048BE296E0E4
:102F50000E94EA08E0914B04EF3308F0BACE91E00A
:102F60009E0F90934B04F0E0E45BFB4F8083E92FCE
:102F7000F0E0E45BFB4F1082ACCE6B017C0104E01F
:102F8000F694E794D794C7940A95D1F72796CCAED8
:102F9000DDAEEEAEFFAE27978AEF0E94990961156C
:102FA000710520E88207910509F40CC200915206D0
:102FB0001091530630E020E0872E982EA92EBB24D6
:102FC000A7FCBA94801A910AA20AB30A57E0959511
:102FD0008795779567955A95D1F7000F111F221F96
:102FE000331F6B017C01C01AD10AE20AF30AA70160
:102FF0009601A0915406B09155060E9414366B01BB
:103000007C01FBE0F594E794D794C794FA95D1F747
:10301000A5019401C501B4010E94B8359B01AC0122
:10302000ACE05595479537952795AA95D1F7A0918E
:103030005606B09157060E941436DC01CB011EE003
:10304000B595A795979587951A95D1F78C0D9D1DE8
:10305000AE1DBF1D6C017D01FF0CCC08DC2C760180
:103060009C01AD016C2D7C2D8C2D9C2D345F41403D
:103070005109610971098109910919012A013B016D
:103080004C0159016A017B018C010E94892B28ABFC
:103090003CAB4DAB5EAB6FAB78AF89AF9AAF3091C5
:1030A000630620916206932F990F990BA8A8BCA8DC
:1030B0006A017B01082F1AAD492F592F692F792FEB
:1030C000892F0E94892B2BAF3CAF4DAF5EAF6FAF06
:1030D00021967FAF219722968FAF229723969FAF9D
:1030E00023973091610620916006932F990F990BD9
:1030F0005101620173018401492F592F692F792FE2
:10310000892F0E94892B01E10E94812CABACBCACC1
:10311000CDACDEACEFAC2196FFAC219722960FAD83
:10312000229723961FAD23970E94B72C59016A015D
:103130007B01E82F192F30915F0620915E06932FB7
:10314000990F990B492F592F692F792F892F03E256
:103150000E94812C0E2F0E94B72C2BAF3CAF4DAF9D
:103160005EAF6FAF21967FAF219722968FAF2297E8
:1031700023969FAF239730915B0620915A06932F99
:10318000990F990B5101620173018401492F592F45
:10319000692F792F892F0E94892B0CE00E94812CA6
:1031A00019012A013B014C0130915D0620915C061A
:1031B000932F990F990BA8A8BCA8CDA8DEA8EFA8BB
:1031C000F8AC09AD1AAD492F592F692F792F892FE6
:1031D0000E94892B08E00E949A2C51016201730120
:1031E00084010E94B72C70588F4F9F4F2090580633
:1031F000309059065101C12CD12CE12CF12C00E06A
:1032000010E00E94892B01E20E949A2C322E432E5C
:10321000542E652E762E872E982E292EA0E00E9401
:10322000C92C09F47DCD80E090E0A0E1B0E02796C4
:103230002CAD3DAD4EAD5FAD2797821B930BA40B1C
:10324000B50B9C01AD0160E070E080E090E00FE123
:103250000E94812CABACBCACCDACDEACEFAC21960B
:10326000FFAC219722960FAD229723961FAD23978F
:103270000E94C02CE5E3AE2EFCE0BF2EC12CD12C69
:10328000E12CF12C00E010E00E94892BA32CB42C3F
:10329000C52CD62CE72CF82C092D122D0E94E32BDF
:1032A00028AB3CAB4DAB5EAB6FAB78AF89AF9AAFA1
:1032B0000DE00E949A2C322E432E542E652E762E2F
:1032C000872E982E292E3091690620916806932F1B
:1032D000990F990BA32CB42CC52CD62CE72CF82CC9
:1032E000092D122D492F592F692F792F892F0E94CF
:1032F000892B0E94892B09E10E949A2CA8A8BCA8BE
:10330000CDA8DEA8EFA8F8AC09AD1AAD0E94B72C85
:1033100019012A013B014C01309167062091660694
:10332000932F990F990B492F592F692F792F892F97
:103330000E94892B03E10E949A2C59016A017B01AA
:103340008C019101A201B301C4010E94B72C08E0D5
:103350000E949A2C59016A017B01E82F192F3091A4
:10336000650620916406932F990F990B492F592FC9
:10337000692F792F892F04E00E94812C0E2F0E9443
:10338000B72C0E94773720E030E040E85BE30E94F2
:1033900015326B017C0120E030E048E453E40E94E8
:1033A000AF3187FDC0CC20E030E04AEF54E4C701E4
:1033B000B6010E94AF3187FFC0CC20E030E048EC7E
:1033C00052E4B5CC80E090E0DC0144CE1092510193
:1033D000109250010091D5041091D6048091D70429
:1033E0009091D8049801282B392B232B91F48091AC
:1033F0004904882309F455C0109249040E94150518
:103400006093450470934604809347049093480466
:103410000DC021E020934F010115110511F4892BF6
:1034200031F381E080934A048093490480914A04F7
:1034300091E08927809352012091D7043091D804DC
:10344000232B11F40C942C2B90934404012B11F09A
:103450001092440481E0809343040E941505609318
:103460003F0470934004809341049093420410926F
:103470003E04C0903F04D0904004E0904104F0909E
:1034800042040E9415056C197D098E099F0962335B
:1034900071058105910518F181E080933E040C943B
:1034A0003C2B80914A04882309F2C0904504D090B7
:1034B0004604E0904704F09048040E9415056C19FA
:1034C0007D098E099F09683E73408105910508F4C6
:1034D000ADCF10924A04AACF81110C943C2BC0901E
:1034E0003A04D0903B04E0903C04F0903D040E94EC
:1034F00015056C197D098E099F096838734181058E
:10350000910550F10E94150560933A0470933B04B5
:1035100080933C0490933D0482E394E00E949106E2
:103520006B017C0120E030E04AEF53E40E94AF31B0
:1035300087FF12C0C0922E04D0922F04E092300474
:10354000F09231040E94150560932A0470932B04B5
:1035500080932C0490932D04C0902E04D0902F04BF
:10356000E0903004F0903104C0924201D0924301C7
:10357000E0924401F09245012091470130914801C9
:103580004091490150914A01C701B6010E94CB37D1
:1035900018160CF087C320914B0130914C014091DB
:1035A0004D0150914E01C701B6010E94AF3187FF16
:1035B00079C311E01093460120E030E04AEA52E47A
:1035C000C701B6010E94AF3181116FC380912504FC
:1035D00081118BC380912404882309F4A8C310921D
:1035E000240480911F04882309F4C4C310921F048B
:1035F00080911A04882309F4E0C310921A04809180
:103600002404811108C080911F04811104C080919D
:103610001A04882319F081E080934F01C0900E04B2
:10362000D0900F04E0901004F09011040E94150552
:103630006C197D098E099F096838734181059105D0
:1036400050F10E94150560930E0470930F0480934F
:1036500010049093110486E094E00E9491066B019F
:103660007C0120E030E04AEF53E40E94AF3187FF55
:1036700012C0C0920204D0920304E0920404F092BB
:1036800005040E9415056093FE037093FF03809369
:10369000000490930104C0900204D0900304E090D1
:1036A0000404F0900504C0923101D0923201E092FE
:1036B0003301F0923401209136013091370140916D
:1036C000380150913901C701B6010E94CB37181655
:1036D00074F420913A0130913B0140913C015091AA
:1036E0003D01C701B6010E94AF3187FD89C3109229
:1036F00035018091FD038111A2C3C090F903D090E0
:10370000FA03E090FB03F090FC030E9415056C198E
:103710007D098E099F09683873418105910550F133
:103720000E9415056093F9037093FA038093FB03DD
:103730009093FC0381EF93E00E9491066B017C0162
:1037400020E030E04AEF53E40E94AF3187FF12C01F
:10375000C092ED03D092EE03E092EF03F092F003FB
:103760000E9415056093E9037093EA038093EB03CD
:103770009093EC03C090ED03D090EE03E090EF0344
:10378000F090F003C0922401D0922501E09226012E
:10379000F09227012091290130912A0140912B01BB
:1037A00050912C01C701B6010E94CB37181674F452
:1037B00020912D0130912E0140912F015091300127
:1037C000C701B6010E94AF3187FD5BC3109228018B
:1037D0008091E40381116DC36091CD047091CE049A
:1037E0008091CF049091D0040E94B6312DEC30E549
:1037F00040E556E40E94CF366B017C01C0923E0149
:10380000D0923F01E0924001F092410111E0199BFA
:1038100011C020E030E042E852E46091E50370918D
:10382000E6038091E7039091E8030E94CB371816D6
:103830000CF010E01093E30380915201882309F407
:103840005AC38090DF039090E003A090E103B09012
:10385000E2030E941505681979098A099B09603DF0
:1038600077408105910508F451C360911604709169
:10387000170480911804909119040E9434022B01BE
:103880003C01609126047091270480912804909156
:1038900029040E9434024B015C01C701B6010E9459
:1038A00034026B017C0123EC35EF48E450E4C301A2
:1038B000B2010E9463362B013C01A7019601C501AC
:1038C000B4010E9463369B01AC01C301B2010E94A6
:1038D000153208E313E021E040E00E94DB2C60E6B3
:1038E00072E08BE296E00E94A30240912604509180
:1038F0002704609128047091290421E08BE296E06E
:103900000E94810B6CE28BE296E00E949C02409147
:103910003E0150913F01609140017091410121E0D1
:103920008BE296E00E94810B6CE28BE296E00E94B3
:103930009C024091160450911704609118047091F4
:10394000190421E08BE296E00E94810B6CE28BE28D
:1039500096E00E949C0280916C0360E3811161E318
:103960008BE296E00E949C026CE28BE296E00E9461
:103970009C028091BB0360E3811161E38BE296E0DE
:103980000E949C026CE28BE296E00E949C022091D5
:10399000CD033091CE034091CF035091D00360917D
:1039A00016017091170180911801909119010E94E0
:1039B0006236AB01BC0121E08BE296E00E94810BF4
:1039C0006CE28BE296E00E949C022091CD03309144
:1039D000CE034091CF035091D00360911A017091B2
:1039E0001B0180911C0190911D010E946236AB0168
:1039F000BC0121E08BE296E00E94810B6CE28BE23D
:103A000096E00E949C026091C8037091C9038BE20A
:103A100096E00E94490B6CE28BE296E00E949C02C9
:103A200040911001509111016091120170911301A8
:103A300022E08BE296E00E94810B6CE28BE296E042
:103A40000E949C0268E373E08BE296E00E947F0B89
:103A50006CE28BE296E00E949C024091E50350915B
:103A6000E6036091E7037091E80321E08BE296E0C2
:103A70000E94810B6CE28BE296E00E949C02809196
:103A8000E30360E3811161E38BE296E00E949C0214
:103A90006CE28BE296E00E949C028091800360E3DE
:103AA000811161E38BE296E00E949C026CE28BE262
:103AB00096E00E949C026DE572E08BE296E00E9427
:103AC000A3020E9415056093DF037093E0038093C7
:103AD000E1039093E20380915201811117C20E9489
:103AE00015056093DB037093DC038093DD039093F3
:103AF000DE038091DA03882339F08091D90388238B
:103B000009F421C41092D9031091CC03111158C4A7
:103B1000439A1092CB031092CA0320911001309166
:103B2000110140911201509113016091160470919E
:103B3000170480911804909119040E94CB3787FFD5
:103B4000DFC520E030E042E852E46091E503709187
:103B5000E6038091E7039091E8030E94CB371816A3
:103B60000CF4CEC5199BCCC580910F01882309F4B4
:103B7000C7C51092B0031092AF031092AA0310921F
:103B8000A9038091A403811159C68091A3038111D7
:103B90000BC088E080931C0660E080E196E00E9404
:103BA000D30781E08093A3031091A20300910E013B
:103BB00011114DC6002309F44AC681E08093A10388
:103BC0008093A0038091A10380930E01111151C62F
:103BD000882309F44EC680919B03882309F468C6A4
:103BE000C0909703D0909803E0909903F0909A03C7
:103BF0000E9415056C197D098E099F096031774275
:103C00008105910518F081E0809396031091E303FC
:103C100000910F0111115AC6002309F457C681E023
:103C200080939503809394038091950380930F0173
:103C300060C6803311F00C94A32A10926C030C948C
:103C4000A32A803311F00C94B32A109287030C94AA
:103C5000B32AC0920201D0920301E0920401F092D3
:103C600005010C94092B803311F00C941C2B10923D
:103C7000CC031092C9031092C80310926C0343E165
:103C800050E061E372E082E593E00E94F43210922A
:103C9000650381E00C941A2B10924C0410924B0493
:103CA0000C94262B1092460191CC20E030E040E2AB
:103CB00051E4C701B6010E9415320E944137072E18
:103CC000000C880B990B0E94B63120E030E040E2F6
:103CD00051E40E94CF3660932604709327048093AA
:103CE00028049093290410932504C0902A04D090AE
:103CF0002B04E0902C04F0902D040E9415056C1903
:103D00007D098E099F0968397A438105910508F478
:103D100061CC10922604109227041092280410926D
:103D200029041092250481E080934F0153CCC09068
:103D30002604D0902704E0902804F09029042091D4
:103D40002004309121044091220450912304C701A2
:103D5000B6010E94AF31882309F443CCC0922004FD
:103D6000D0922104E0922204F092230481E0809317
:103D7000240437CCC0903E01D0903F01E090400138
:103D8000F090410120911B0430911C0440911D04CE
:103D900050911E04C701B6010E94AF31882309F477
:103DA00027CCC0921B04D0921C04E0921D04F09218
:103DB0001E0481E080931F041BCCC0901604D09099
:103DC0001704E0901804F090190420911204309127
:103DD00013044091140450911504C701B6010E94C8
:103DE000AF31882309F40BCCC0921204D092130493
:103DF000E0921404F092150481E080931A04FFCB42
:103E000011E01093350120E030E04AEA52E4C701A6
:103E1000B6010E94AF31882309F46BCC20E030E07A
:103E2000A901C701B6010E9463366093160470931E
:103E3000170480931804909319041093FD03C09005
:103E4000FE03D090FF03E0900004F09001040E9474
:103E500015056C197D098E099F0968397A4381051A
:103E6000910508F44ACC109216041092170410928F
:103E70001804109219041092FD0381E080934F0101
:103E80003CCC11E01093280120E030E04AEA52E4F3
:103E9000C701B6010E94AF31882309F499CCC092C2
:103EA000E503D092E603E092E703F092E803109373
:103EB000E403C090E903D090EA03E090EB03F090B4
:103EC000EC030E9415056C197D098E099F0968395C
:103ED0007A438105910508F47FCC1092E503109296
:103EE000E6031092E7031092E8031092E40381E0E6
:103EF00080934F0171CC0E9415056093DF0370938E
:103F0000E0038093E1039093E203E9CDC090DB03EB
:103F1000D090DC03E090DD03F090DE030E941505F5
:103F20006C197D098E099F09603D774081059105D7
:103F300008F4DFCD60911604709117048091180485
:103F4000909119040E9434026B017C016091260457
:103F50007091270480912804909129040E943402D2
:103F60004B015C0160913E0170913F0180914001E5
:103F7000909141010E9434022B013C0123EC35EF6A
:103F800048E450E4C701B6010E9463366B017C012E
:103F9000A3019201C501B4010E9463369B01AC01EB
:103FA000C701B6010E94153208E313E021E040E0AA
:103FB0000E94DB2C67E772E08DE495E00E94A3028B
:103FC000409126045091270460912804709129049F
:103FD00021E08DE495E00E94810B6CE28DE495E098
:103FE0000E949C0240913E0150913F01609140012E
:103FF0007091410121E08DE495E00E94810B6CE21B
:104000008DE495E00E949C024091160450911704A3
:10401000609118047091190421E08DE495E00E94EC
:10402000810B6CE28DE495E00E949C0280916C0310
:1040300060E3811161E38DE495E00E949C026CE2F3
:104040008DE495E00E949C028091BB0360E38111A6
:1040500061E38DE495E00E949C026CE28DE495E0C2
:104060000E949C022091CD033091CE034091CF035A
:104070005091D00360911601709117018091180141
:10408000909119010E946236AB01BC0121E08DE4E0
:1040900095E00E94810B6CE28DE495E00E949C0209
:1040A0002091CD033091CE034091CF035091D003A6
:1040B00060911A0170911B0180911C0190911D016A
:1040C0000E946236AB01BC0121E08DE495E00E94C4
:1040D000810B6CE28DE495E00E949C026091C80324
:1040E0007091C9038DE495E00E94490B6CE28DE468
:1040F00095E00E949C024091100150911101609145
:1041000012017091130122E08DE495E00E94810B71
:104110006CE28DE495E00E949C0268E373E08DE41C
:1041200095E00E947F0B6CE28DE495E00E949C027A
:104130004091E5035091E6036091E7037091E80335
:1041400021E08DE495E00E94810B6CE28DE495E026
:104150000E949C028091E30360E3811161E38DE49E
:1041600095E00E949C026CE28DE495E00E949C0226
:104170008091800360E3811161E38DE495E00E940A
:104180009C026CE28DE495E00E949C024091020149
:1041900050910301609104017091050121E08DE4CB
:1041A00095E00E94810B6CE28DE495E00E949C02F8
:1041B00060910601709107018DE495E00E94490B22
:1041C0006CE28DE495E00E949C0240911E015091AA
:1041D0001F0160912001709121012AE08DE495E09A
:1041E0000E94F60A6CE28DE495E00E949C028091A8
:1041F000CC0361E3811160E38DE495E00E949C02B1
:104200006CE28DE495E00E949C0280910E0160E3D7
:10421000811161E38DE495E00E949C026CE28DE4E3
:1042200095E00E949C020E9415056B017C0128EE1E
:1042300033E040E050E00E94C83549015A01C7010F
:10424000B60120E83EEE46E350E00E94C83528ABB8
:1042500039AB4AAB5BABC501B40120E13EE040E0C5
:1042600050E00E94C8352CE330E040E050E00E946E
:10427000C83569017A011901C501B4012CE330E0A8
:1042800040E050E00E94C8352B013C014B01E8A9F9
:10429000F9A93A9728F460E38DE495E00E949C0226
:1042A0002AE048A959A96AA97BA98DE495E00E9452
:1042B000F60A6AE38DE495E00E949C02FAE02F166C
:1042C000310428F460E38DE495E00E949C022AE02A
:1042D000B701A6018DE495E00E94F60A6AE38DE439
:1042E00095E00E949C022AE08216910428F460E383
:1042F0008DE495E00E949C022AE0B301A2018DE4C6
:1043000095E00E94F60A6CE28DE495E00E949C0222
:104310008091890360E3811161E38DE495E00E945F
:104320009C026CE28DE495E00E949C0264E772E0DE
:104330008DE495E00E94A30269E372E08DE495E0CC
:104340000E94E10ACCCBC0903E01D0903F01E090AA
:104350004001F09041012091D5033091D603409166
:10436000D7035091D803C701B6010E94AF3188230B
:1043700009F4CACBC092D503D092D603E092D703FA
:10438000F092D80381E08093D903A7019601609150
:10439000D1037091D2038091D3039091D4030E94F2
:1043A000623629E23CE54FE05DE30E9415326093FE
:1043B000CD037093CE038093CF039093D003A4CB0F
:1043C0002091C8033091C90381E0121613060CF442
:1043D00080E08093C6032091C8033091C90391E027
:1043E0002F3F33400CF490E09093C70320912201BB
:1043F00030912301931302C001E0821300E0009387
:10440000C5038091C8039091C9031816190644F496
:104410008091C8039091C9038F3F93400CF47BC0F7
:104420001092C4031092C3038091C8039091C903F2
:10443000181619060CF0ECC08091C8039091C903BE
:104440008F3F93400CF0E4C08091C3038093BE0380
:104450008091BE038093CB038091C8039091C903E0
:10446000181619064CF48091C8039091C90311E005
:104470008F3F93400CF410E01093CA038091BD036A
:10448000882309F4C8C01092BD03C0901A01D090CF
:104490001B01E0901C01F0901D018090260490907B
:1044A0002704A0902804B09029042091160130918F
:1044B00017014091180150911901C701B6010E94DE
:1044C00062369B01AC01C701B6010E946236A501AC
:1044D00094010E94AF3118160CF4C3C081E08093A0
:1044E000BA03A5019401C701B6010E94CB3787FF2B
:1044F000B1C08091B9038111C1C081E08093B9033B
:104500000E9415056093B5037093B6038093B703BB
:104510009093B803C9C08091C40381110FC081E09A
:104520008093C4038093C3030E9415056093BF0367
:104530007093C0038093C1039093C203C0901E0187
:10454000D0901F01E0902001F09021014090BF0326
:104550005090C0036090C1037090C2038091C30368
:1045600081112CC0A091C803B091C903A701960185
:104570000E9414362FEF33E040E050E00E94EA350D
:10458000C21AD30AE40AF50A0E94150564197509CE
:10459000860997096C157D058E059F0508F444CFA3
:1045A0000E9415056093BF037093C0038093C103FD
:1045B0009093C20381E08093C30336CF2090C80359
:1045C0003090C9030E9415054B015C01D101A70180
:1045D00096010E9414362FEF33E040E050E00E9435
:1045E000EA35D501C40184199509A609B7098217CE
:1045F0009307A407B50708F417CF0E941505609329
:10460000BF037093C0038093C1039093C2030ACF8A
:104610000093BE031DCF8091BB039091BC039817FC
:1046200009F433CF8093BC0381E08093BD032091D4
:10463000C8033091C90343E1429FC001439F900DDD
:10464000112464E170E00E94752B7093C90360939C
:10465000C8031BCF1092BA031092B4031092B9038F
:1046600023C0A5019401C701B6010E94CB3787FF83
:10467000F1CF8091BA0381113CCFEECFC090B5034A
:10468000D090B603E090B703F090B8030E941505F0
:104690006C197D098E099F09683873418105910560
:1046A00018F081E08093B4039091B40381E08927EE
:1046B0008093BB031123A9F08091CB038093B303B4
:1046C0008091C8039091C9038091B1039091B20386
:1046D000019771F480E197E29093150180931401A2
:1046E0001CCA911102C01091CB031093B303E8CF01
:1046F0008091B303811102C0439A0FCA43980DCA37
:104700008091AF03882309F470C0C090AB03D090B0
:10471000AC03E090AD03F090AE030E9415056C1958
:104720007D098E099F09683873418105910508F458
:1047300069C081E08093B0038091AA0381110FC00A
:1047400081E08093AA038093A9030E9415056093DA
:10475000A5037093A6038093A7039093A803C0902A
:10476000A503D090A603E090A703F090A803809142
:10477000A90381114DC00E9415056C197D098E0990
:104780009F09603971408105910508F4FAC90E94BA
:1047900015056093A5037093A6038093A7039093D8
:1047A000A80381E08093A9038091A40381110EC026
:1047B0008091B0008F7D8093B0005B9A81E0809300
:1047C000A4038091A903882309F4DFC98091A3037E
:1047D000882309F4E9C910921C0660E080E196E0A4
:1047E0000E94D3071092A303DFC981E08093AF0337
:1047F0000E9415056093AB037093AC038093AD03E7
:104800009093AE038091B003882309F4B6C994CF86
:104810000E9415056C197D098E099F09683C710578
:104820008105910508F20E9415056093A503709318
:10483000A6038093A7039093A803A1C98091B00019
:104840008F7D8093B0005B981092A403BACF8091C3
:10485000A003882399F01092A0030E94150560938D
:104860009C0370939D0380939E0390939F0301117B
:10487000A9C91092960310929B03C8C98091A10305
:104880008823A9F3C0909C03D0909D03E0909E03E1
:10489000F0909F030E9415056C197D098E099F09F0
:1048A000603375478105910510F31092A103DFCFA6
:1048B00081E080939B030E9415056093970370939A
:1048C00098038093990390939A03A0C980919403CD
:1048D000882309F449C0109294030E94150560933F
:1048E000900370939103809392039093930301112B
:1048F0009BC9111167C02091260430912704409173
:1049000028045091290460910A0170910B01809153
:104910000C0190910D010E94AF3118160CF052C09D
:104920008091CC03882309F44DC080918F038823A4
:10493000B9F1C0908B03D0908C03E0908D03F09080
:104940008E030E9415056C197D098E099F0960323E
:104950007E448105910588F181E080938A038091EE
:104960000F01882399F133C080919503882309F4BE
:10497000BECFC0909003D0909103E0909203F0904E
:1049800093030E9415056C197D098E099F096033F8
:1049900075478105910508F4AACF10929503A7CF1A
:1049A00081E080938F030E94150560938B037093C1
:1049B0008C0380938D0390938E0380918A038111E1
:1049C000CECF04C010928A0310928F0380E08093B0
:1049D000890320910A0130910B0140910C01509103
:1049E0000D01609126047091270480912804909114
:1049F00029040E94CB3787FD00C181E080938803A2
:104A000080910E01882309F4FBC081E08093860326
:104A10008093850380918803882341F080910F0162
:104A2000882321F080918603811117C110928003A1
:104A3000429A80918903882309F414C18091CC03A0
:104A4000882309F40FC141988091CC03882309F48D
:104A50000BC180910F01882309F406C14098809111
:104A60004F01882309F493C080910901882309F438
:104A7000FDC08091E5039091E603A091E703B0911A
:104A8000E80380937C0390937D03A0937E03B0930F
:104A90007F036091260470912704809128049091EF
:104AA00029048E010D5D1F4F21E040E00E94DB2CA8
:104AB00060917C0370917D0380917E0390917F03D0
:104AC0000750110921E040E00E94DB2C7E01E5E166
:104AD000EE0EF11C60911604709117048091180479
:104AE00090911904870121E040E00E94DB2CFF92A5
:104AF000EF92FDA5FF93CCA4CF92DBA4DF92EAA4B2
:104B0000EF928CE392E09F938F931F9284E18F93B7
:104B100021E030E02C0F3D1F3F932F930E94033381
:104B2000AEA5BFA50D900020E9F79D0121503109E8
:104B3000EEA5FFA52E1B3F0B0FB6F894DEBF0FBEF0
:104B4000CDBF80917A0390917B03281739071CF41D
:104B500081E08093DB0430937B0320937A0380E130
:104B600090E0821B930B97FD01969595879560E0E9
:104B70000E94150880917903811107C0BE016F5F03
:104B80007F4F80E196E00E947F0B10924F01809151
:104B90007803882309F473C010927803809173031B
:104BA000882309F48FC010927303809170038823C7
:104BB00009F49CC01092700380916E03882309F45D
:104BC000A2C010926E038091780381110DC0809174
:104BD0007303811109C080917003811105C0809118
:104BE0006E03882309F49CC081E080936B0380935B
:104BF0006A0381E080930801A8C080918703FECEFC
:104C000080918503882369F0109285030E94150521
:104C10006093810370938203809383039093840352
:104C2000F9CE80918603882309F4F4CEC0908103E5
:104C3000D0908203E0908303F09084030E941505D6
:104C40006C197D098E099F09603E73498440910566
:104C500008F4E0CE10928603DDCE81E080938003DD
:104C60004298E7CE419AF0CE409AF9CE80913E012B
:104C700090913F01A0914001B091410102CFC090BD
:104C8000E503D090E603E090E703F090E80320917D
:104C90007403309175034091760350917703C701F7
:104CA000B6010E94AF31882309F478CFC092740313
:104CB000D0927503E0927603F092770381E08093BF
:104CC00078036CCF8091C8039091C9032091710340
:104CD000309172038217930709F467CF90937203A0
:104CE0008093710381E0809373035FCF8091BB0356
:104CF00090916F03981709F45FCF80936F0381E061
:104D00008093700359CF80916C0390916D03981735
:104D100009F459CF80936D0381E080936E0353CFE4
:104D200010916B0380916A03882309F4D1C010921B
:104D30006A030E941505609366037093670380936E
:104D4000680390936903111154CF8091CC038111B2
:104D5000D9C043E150E061E372E082E593E00E9454
:104D6000F4321092650381E08093080180910E0176
:104D700081112DC06CE672E082E593E00E94EB3277
:104D8000892B69F081E08093080143E150E06CE6F3
:104D900072E082E593E00E94F43210926503109273
:104DA0006C0380E090E0ACEDB2E48093100190934E
:104DB0001101A0931201B09313011092C903109234
:104DC000C8031092CB031092CA031092CC038091B7
:104DD0000F01811133C06DE772E082E593E00E941C
:104DE000EB32892B69F081E08093080143E150E0C8
:104DF0006DE772E082E593E00E94F4321092650361
:104E000010926C03C12CD12C3CEDE32E32E4F32E36
:104E1000C0921001D0921101E0921201F0921301A0
:104E20001092C9031092C8031092CB031092CA03C8
:104E30001092800310920E011092CC038091080111
:104E4000882371F122E533E0D9010D900020E9F7C4
:104E50009D012355334080915003909151032817B1
:104E600039071CF481E08093DB04309351032093D5
:104E7000500380E190E0821B930B97FD019695957E
:104E8000879561E00E94150880917903811106C021
:104E900062E573E080E196E00E947F0B10920801CA
:104EA00080917903811110C18091F9059091FA05E3
:104EB00082FF33C181E08093790310924F031092F7
:104EC0004E0310924D0310924C030E94681015C1BE
:104ED000112309F43ACFC0906603D0906703E090A5
:104EE0006803F09069030E9415056C197D098E090D
:104EF0009F09643671058105910508F47ACE1092F8
:104F00006B0323CF80910F0190916C03992309F4D7
:104F10006AC09091BB035BE2E52E52E0F52E992327
:104F200021F045E2E42E42E0F42E882309F444C047
:104F30006091C8037091C903072E000C880B990B70
:104F40000E94B63124E13EEA43E251E40E94CF36AA
:104F50008E010F5F1F4F21E040E00E94DB2C6E01AD
:104F600055E1C50ED11C6091E5037091E603809177
:104F7000E7039091E803860120E040E00E94DB2CEB
:104F8000DF92CF92FF92EF9281E090E08C0F9D1F15
:104F90009F938F9385E492E09F938F931F9284E178
:104FA0008F9382E593E09F938F930E9403330FB614
:104FB000F894DEBF0FBECDBF2091C8033091C90366
:104FC00080910601909107018217930744F0209188
:104FD000C8033091C90381E0203131050CF480E031
:104FE0008093A203C3CE2091C8033091C90322301D
:104FF00031050CF45CC0882309F442C06091C803F9
:105000007091C903072E000C880B990B0E94B631D2
:1050100024E13EEA43E251E40E94CF368E010F5F65
:105020001F4F21E040E00E94DB2C7E01B5E1EB0E3A
:10503000F11C6091E5037091E6038091E703909184
:10504000E803870120E040E00E94DB2CFF92EF9212
:10505000E1E0F0E0EC0FFD1FFF93EF9380E592E0BD
:105060009F938F931F9284E18F9382E593E09F93A8
:105070008F930E9403330FB6F894DEBF0FBECDBFEF
:1050800020910201309103014091040150910501EA
:10509000609116047091170480911804909119047E
:1050A0000E94CB378095881F8827881F99CF882337
:1050B00039F343E150E06FE572E082E593E00E944E
:1050C000F43210926503DCCF80914F0381116FC0E1
:1050D0008091F90582FF40C0109279030E94480830
:1050E00081E080934F018093080110925103109248
:1050F000500310927B0310927A0380E090E0892B9A
:1051000011F40C9422160E942D03882311F40C94A0
:1051100014160E9400000C9414168075917040972C
:1051200061F78091CC0311E081278093CC0381113A
:1051300010C01092C9031092C80310926C0343E18F
:1051400050E061E372E082E593E00E94F432109255
:10515000650310930801D1CF0E941702882351F0F4
:1051600080914D0390E001968170992780934D03C3
:105170000E9468100E942502882351F080914D03FF
:1051800090E001968170992780934D030E946810EA
:105190008091F9059091FA0580759170409709F01A
:1051A000ACCF81E080934F0310924E038CCE21E070
:1051B00080914D03811101C020E0ABE5B1E0FD011C
:1051C00010E08485281301C01F5F3D9631E0E03D6B
:1051D000F307B9F780914E039091F90592FF05C04E
:1051E00091E0892780934E0370CE811130C00E94D8
:1051F0001702882361F080914C0390E00196612FA3
:1052000070E00E94752B80934C030E9468100E94EE
:105210002502882371F0612F70E080914C0381504A
:10522000990B860F971F0E94752B80934C030E9449
:1052300068108091F9059091FA05807591704097FA
:1052400009F05BCF10924F0310924E033ECE309187
:105250004C0390E080E01C964C911C97241338C0BE
:10526000931335C0E82EF12C0E941702D82E81111D
:1052700035C00E942502882381F08DE08E9D80013B
:105280008F9D100D1124055A1E4FF801838188232C
:1052900009F48DC0813009F4A3C0D1109EC0809163
:1052A000F90582FF2ACF10924E030E9468108DE00C
:1052B0008E9DF0018F9DF00D1124E55AFE4F028462
:1052C000F385E02D309709F418CF099516CF9F5F2D
:1052D0008F5F1D96893009F0BECF0FCF8DE08E9D78
:1052E00080018F9D100D1124055A1E4FD801139671
:1052F0008C9113978130F9F0882329F0823009F4DA
:105300004EC0D12CB6CF1196ED91FC9112978081B1
:10531000918114962D913C911597820F931F918343
:10532000808318962D913C91281739070CF0A1CF56
:10533000318320839ECFF801218032806481758182
:10534000072E000C880B990B0E94B631D1012D91CC
:105350003D914D915C910E9463362B013C01F1011E
:105360004082518262827382D80118966D917C913D
:10537000072E000C880B990B0E94B6314B015C0183
:10538000AC019B01C301B2010E94CB3718160CF08F
:1053900070CFF10180829182A282B3826ACF11968E
:1053A000ED91FC91808191E08927808362CFD801C3
:1053B0000180F281E02D8081918114962D913C91A4
:1053C0001597821B930B9183808316962D913C91A8
:1053D0008217930714F4318320830E9468105FCFF3
:1053E000C180D28064817581072E000C880B990BD7
:1053F0000E94B6319B01AC01D6016D917D918D91DA
:105400009C910E9462364B015C01F6018082918280
:10541000A282B382D80116966D917C91072E000C62
:10542000880B990B0E94B6312B013C01AC019B010A
:10543000C501B4010E94AF3187FFCFCFF601408292
:10544000518262827382C9CF80918C040DE814E08E
:10545000882309F4FBC063E270E0C8010E94E032D7
:10546000009759F02091CC03222339F001960E9435
:10547000DE2D9093C9038093C80360E470E0C801F7
:105480000E94E032009799F001960E94DA2D0E9466
:105490004137072E000C880B990B0E94B6316093A0
:1054A00010017093110180931201909313016AE22D
:1054B00070E0C8010E94E0320097F1F040913E0197
:1054C00050913F0160914001709141014093D1039F
:1054D0005093D2036093D3037093D40321E02093BD
:1054E000DA0301960E94DA2D60931A0170931B0172
:1054F00080931C0190931D0166E270E0C8010E9438
:10550000E032009759F001960E94DA2D609316015F
:1055100070931701809318019093190164E270E071
:10552000C8010E94E032009771F02091CC03222341
:1055300051F0DC0111968C91813311F00C94191EFD
:1055400081E080936C036EE570E0C8010E94E03258
:10555000009749F0FC018181813311F00C94211EE8
:1055600081E08093870365E270E0C8010E94E03229
:10557000009749F001960E94DE2D21E0892B09F465
:1055800020E0209309016AE370E0C8010E94E03244
:10559000009779F04AE050E070E060E001960E94E8
:1055A000F92C60931E0170931F018093200190934A
:1055B00021016BE370E0C8010E94E032009739F0EE
:1055C00001960E94DE2D90930701809306016CE7FF
:1055D00070E0C8010E94E0320097D9F001960E9465
:1055E000DA2D6B017C012DEC3CEC4CEC5DE30E9470
:1055F000AF31181614F40C94291E80E090E0A8EC4A
:10560000B2E48093020190930301A0930401B0934C
:10561000050161E270E0C8010E94E032009761F08C
:10562000DC0111968C91813311F00C94331E81E0D2
:105630008093CC038093080180914404882311F463
:105640000C944C1E10928D0410928C041092430402
:1056500010923E040C946F1A012B11F00C94281A2E
:1056600080913E0490914304992311F40C946C1A98
:10567000882311F40C94391A809144048111E4CEEA
:1056800080914B040CE414E0E3CE84E092E090932C
:105690002C0680932B068091EA029091EB028B52AC
:1056A000964071F4E0913E06F0913F069081809122
:1056B00040068095892380831092EB021092EA02C3
:1056C0000895AA1BBB1B51E107C0AA1FBB1FA61749
:1056D000B70710F0A61BB70B881F991F5A95A9F79B
:1056E00080959095BC01CD01089597FB072E16F487
:1056F000009407D077FD09D00E94612B07FC05D0EC
:105700003EF4909581959F4F0895709561957F4FD8
:105710000895DF93CF931F930F939A9DF02D219FB0
:10572000F00D8B9DF00D8A9DE02DF10D039FF00D86
:10573000029FE00DF11D4E9DE00DF11D5E9DF00DEF
:105740004F9DF00D7F936F93BF92AF925F934F93F6
:10575000D5010E9453368B01AC01D7010E9453360C
:10576000EB01E80FF91FD6010E94D82B2F913F9132
:10577000D6010E945336C60FD71FE81FF91FAF91FD
:10578000BF910E94D82B2F913F910E945336C60F94
:10579000D71FE81FF91FD6010E945336E60FF71FE7
:1057A0009801BE01CF010F911F91CF91DF91089514
:1057B0000E945336460F571FC81FD91F08F4319651
:1057C0000895689401C0E894F92FF12B12F00C941D
:1057D000152CA0E0B0E0EFEEFBE20C942236092E8F
:1057E000059422F40E94712C112392F4F0E80F2604
:1057F000FFEFE094F09400951095B094C094D0948D
:10580000A194BF0ACF0ADF0AEF0AFF0A0F0B1F0B92
:105810000E94202C07FC0E94712CCDB7DEB7ECE073
:105820000C943E36689401C0E8948F929F92CF9377
:10583000DF930E94202CDF91CF919F908F9008954D
:1058400088249924F401E401B0E49F93AA279A15CF
:105850008B049C04ED05FE05CF05D007A10798F445
:10586000AD2FDC2FCF2FFE2FE92D982C892E982FCE
:10587000872F762F652F542F432F322F2227B85092
:1058800031F7BF9127C01B2EBF91BB27220F331FBB
:10589000441F551F661F771F881F991F881C991C5E
:1058A000EE1FFF1FCC1FDD1FAA1FBB1F8A149B0406
:1058B000EC05FD05CE05DF05A007B10748F08A1805
:1058C0009B08EC09FD09CE09DF09A00BB10B216093
:1058D0001A94E1F62EF49401AF01BE01CD01000C43
:1058E0000895609570958095909530954095509568
:1058F00021953F4F4F4F5F4F6F4F7F4F8F4F9F4FC0
:105900000895002E083090F0982F872F762F652F5E
:10591000542F432F322F22270850F4CF220F331F4A
:10592000441F551F661F771F881F991F0A95B2F7DE
:10593000002D089597FD1094002E083098F008501F
:10594000232F342F452F562F672F782F892F912DF6
:10595000F4CF1594979587957795679557954795C3
:10596000379527950A95AAF71124002D08952A0D39
:105970003B1D4C1D5D1D6E1D7F1D801F911F0895D9
:105980002A193B094C095D096E097F09800B910BAF
:1059900008950024A7FD00942A17300540055005FE
:1059A00060057005800590050895EE0FFF1F0590B6
:1059B000F491E02D0994EF920F931F93CF93DF930F
:1059C000E80134E047FD34E1042E000C550B57FF8D
:1059D00003C0519541955109E32E022F242FAE01AA
:1059E0000E941C2ECE01DF91CF911F910F91EF905D
:1059F0000895B0E0A0E0EFEFFCE20C941E365C01ED
:105A00006B017A016115710519F0FB0191838083A7
:105A1000E114F10449F0C7010297839728F060E090
:105A200070E0CB0192C05E01E5011991812F90E0F9
:105A30000E94FC2D892BB9F71D3209F056C0188140
:105A4000E501229601E0E114F10409F4A6C0F0E1B9
:105A5000EF16F10409F086C0103341F488818F7D80
:105A6000883509F07BC019812296026040E1E42E5E
:105A7000F12C88248A94982CA82C5FE0B52E20E085
:105A800060E070E0CB0127010F2C000C660877085E
:105A9000E0EDE10FEA3058F03FEB310FE9EC3A313D
:105AA00028F03FE9310F3A3198F5E9EAE10FEE15B8
:105AB0001F0474F52F3FB9F086169706A806B9069D
:105AC00028F1A30192010E94B8352E2F30E050E05A
:105AD00040E0620F731F841F951F621773078407CE
