:020000040000FA
:100000000C946B010C9493010C9493010C94C11308
:100010000C94C1130C94C1130C9493010C94930190
:100020000C9493010C9434140C9493010C9493014C
:100030000C9493010C947B120C9493010C949301F7
:100040000C9426120C9493010C94F9110C94D31176
:100050000C9493010C9493010C9493010C949301D0
:100060000C94A2120C9493014E414E494E4954599E
:10007000494E46CDCCCC3D0AD7233C17B7D1387773
:10008000CC2B329595E6241FB14F0A000020410089
:1000900000C84200401C4620BCBE4CCA1B0E5AAED3
:1000A000C59D7400407A10F35A00A0724E180900E2
:1000B00010A5D4E80000E87648170000E40B5402CD
:1000C0000000CA9A3B000000E1F505000080969808
:1000D00000000040420F000000A086010000001058
:1000E0002700000000E8030000000064000000009A
:1000F000000A00000000000100000000002C76D87B
:1001000088DC674F0823DFC1DFAE59E1B1B796E560
:10011000E3E453C63AE651997696E8E6C28426EBC4
:10012000898C9B62ED407C6FFCEFBC9C9F40F2BAD7
:10013000A56FA5F490055A2AF75C936B6CF9676D6F
:10014000C11BFCE0E40D47FEF520E6B500D0ED90C4
:100150002E0300943577050080841E080000204E91
:100160000A000000C80C333333330F986E1283112A
:1001700041EF8D2114893BE65516CFFEE6DB18D101
:10018000844B381BF77C1D901DA4BBE424203284D3
:10019000725E228100C9F124ECA1E53D27576F7200
:1001A0006B005365747570007368696D206B6C61CA
:1001B00070616D00576174657220466C61670070F4
:1001C000776D506572696F644D7300576174657225
:1001D0002F74656D7000416C61726D2054656D7097
:1001E000204C696D697400566F6461566B6C2074A5
:1001F000656D70004B75624B6F6E65630050776D77
:100200004B6F6E6563004B6C6170616E2F6D6F7428
:100210006F7200A2019D010602FD01F401E701D603
:1002200001CB01BF01B401A801205B455D004E6F09
:10023000206974656D73004D656E753A00005EBC93
:10024000E2613FDD83C29C7E20A3FD1F41009D2310
:10025000BE46DB65F88C11AF32CA57E974252C0015
:10026000486F6D6553616D6F676F6E2E72752F34B9
:100270002E382C00252C00486F6D6553616D6F671B
:100280006F6E2E72752F342E382C00000000002463
:100290000027002A0000000000230026002900009B
:1002A000000000250028002B0004040404040404BA
:1002B0000402020202020203030303030301020415
:1002C00008102040800102040810200102040810D8
:1002D00020005514D42B11241FBECFEFD8E0DEBF71
:1002E000CDBF12E0A0E0B1E0E2EAFDE602C0059079
:1002F0000D92A03AB107D9F726E0A0EAB2E001C01A
:100300001D92A53BB207E1F711E0CAE6D1E004C0B7
:100310002197FE010E94182CC936D107C9F70E9407
:10032000EB150C94C4360C94000020916A0581E012
:10033000213208F046C0809146058111FCCF909192
:10034000690532E03093460531E0309345053FEFD3
:1003500030934405109243052093420549E455E04B
:10036000A2E2B5E0FA013E2F341B321788F1109259
:10037000210520912105990F922B909321059091B1
:100380002005913041F51092200590912105909320
:10039000BB009091BC0093FDF8CF95EC9093BC000E
:1003A000909146059230E1F3909144059F3F49F0CA
:1003B00080914405803289F080914405803379F042
:1003C00084E01092480510926A051092470508953E
:1003D00031913D93C8CF95EEE1CF82E0F2CF83E03B
:1003E000F0CF809126068073803339F4809118060F
:1003F0008095881F8827881F089580E00895809140
:10040000260684FD09C085FF07C0809118068095E7
:10041000881F8827881F089580E008958F929F92F3
:10042000AF92BF92CF92DF92EF92FF926B017C016D
:1004300020E030E040E251E40E9458314B015C0181
:1004400020E030E0A901C701B6010E94BA3620E0E1
:1004500030E040E05FEB87FD04C020E030E040E0AA
:100460005FE3C501B4010E94A6350E9484360E9454
:10047000F93020E030E040E251E40E941236FF9073
:10048000EF90DF90CF90BF90AF909F908F900895A6
:10049000089508951092FF041092FE0410924805EA
:1004A00010926A051092460581E0809345051092EE
:1004B0002005449A459AE9EBF0E080818E7F8083A5
:1004C00080818D7F808388E48093B80085E4809369
:1004D000BC0088E492E09093FD048093FC0489E4DE
:1004E00092E09093FB048093FA040895DC01ED916F
:1004F000FC910190F081E02D0994EF92FF920F930F
:100500001F93CF93DF938C017B01D0E0C0E0F70114
:10051000EC0FFD1F6491662361F0D801ED91FC9111
:100520000190F081E02DC8010995892B11F02196E9
:10053000EECFCE01DF91CF911F910F91FF90EF9001
:100540000895CF92DF92EF92FF920F931F93CF9374
:10055000DF937C016A0110E000E00C151D0581F0BD
:10056000EB01D701ED91FC910190F081E02D6991B3
:10057000C7010995892B21F00F5F1F4FBE01EDCFF9
:10058000C801DF91CF911F910F91FF90EF90DF9005
:10059000CF900895FC01538D448D252F30E0842F9A
:1005A00090E0821B930B541710F0CF96089501979B
:1005B0000895FC01918D828D981761F0A28DAE0F88
:1005C000BF2FB11D5D968C91928D9F5F9F73928F0F
:1005D00090E008958FEF9FEF0895FC01918D828D3B
:1005E000981731F0828DE80FF11D858D90E0089508
:1005F0008FEF9FEF0895FC01918D228D892F90E060
:10060000805C9F4F821B91098F73992708958BE619
:1006100095E00E94FB0221E0892B09F420E0822F63
:10062000089580E090E0892B29F00E940703811152
:100630000C9400000895FC01A48DA80FB92FB11DE2
:10064000A35ABF4F2C91848D90E001968F73992708
:10065000848FA689B7892C93A089B1898C918370E6
:1006600080648C93938D848D981306C00288F389DF
:10067000E02D80818F7D80830895EF92FF920F930C
:100680001F93CF93DF93EC01F62E81E0888F9B8D33
:100690008C8D98131AC0E889F989808185FF15C06F
:1006A0009FB7F894EE89FF896083E889F989808192
:1006B0008370806480839FBF81E090E0DF91CF9161
:1006C0001F910F91FF90EF9008950B8D10E00F5F39
:1006D0001F4F0F731127E02E8C8D8E110CC00FB69B
:1006E00007FCFACFE889F989808185FFF5CFCE0133
:1006F0000E941B03F1CFEB8DEC0FFD2FF11DE35A90
:10070000FF4FF0829FB7F8940B8FEA89FB898081B5
:100710008062D0CFCF93DF93EC01888D8823B9F02E
:10072000AA89BB89E889F9898C9185FD03C08081FC
:1007300086FD0DC00FB607FCF7CF8C9185FFF2CF79
:10074000808185FFEDCFCE010E941B03E9CFDF91B1
:10075000CF9108958130910539F0880F991F880F46
:10076000991F05970197F1F708951F93CF93DF9392
:1007700010913B06C0913C06D0913D06912F90957B
:1007800080FF16C0F8948A8189238A838981812B0E
:1007900089838AE090E00E94AA038A81182B1A8339
:1007A000789487E390E0DF91CF911F910C94AA0396
:1007B000F8948A8189238A838981812B898381E4C2
:1007C00090E00E94AA038A81182B1A83789485E00E
:1007D00090E0E9CF0F931F93CF93DF93082FC8E0EA
:1007E000D0E011E081E0902F912309F480E00E9495
:1007F000B503110F2197B1F7F894E0913C06F09101
:100800003D06918180913B06809598239183E091EC
:100810003C06F0913D069281892382837894DF9192
:10082000CF911F910F9108950F931F93CF93DF9353
:100830008C0185E50E94EA03E801085F1F4F89915A
:100840000E94EA03C017D107D1F7DF91CF911F9122
:100850000F910895FF920F931F93CF93DF93009111
:100860003B06C0913C06D0913D06F8948981F02E5C
:10087000F0948F21898378941DE7115029F182E04B
:1008800090E00E94AA0388818023B9F3F8948A81BA
:100890008F218A838981802B8983789480EE91E0EF
:1008A0000E94AA03F89489818F21898386E490E0CD
:1008B0000E94AA038881082311E009F010E07894CF
:1008C0008AE991E00E94AA03812FDF91CF911F91C5
:1008D0000F91FF9008950F931F93CF93DF93109183
:1008E0003B06C0913C06D0913D06F8948981812B4E
:1008F00089838A81012F009580238A8383E090E099
:100900000E94AA038981802389838AE090E00E9463
:10091000AA03C881789485E390E00E94AA031C236F
:1009200081E009F480E0DF91CF911F910F9108954C
:100930003FB7F8948091460390914703A0914803F4
:10094000B091490326B5A89B05C02F3F19F0019629
:10095000A11DB11D3FBFBA2FA92F982F8827BC0119
:10096000CD01620F711D811D911D42E0660F771F41
:10097000881F991F4A95D1F708958F929F92AF9241
:10098000BF92CF92DF92EF92FF926B017C010E94A7
:1009900098044B015C010E949804681979098A093E
:1009A0009B09683E734081059105A8F381E0C81A50
:1009B000D108E108F10828EE820E23E0921EA11C66
:1009C000B11CC114D104E104F10429F7FF90EF90A8
:1009D000DF90CF90BF90AF909F908F9008952FB7EA
:1009E000F894609142037091430380914403909185
:1009F00045032FBF08951F93CF93DF93D82F809186
:100A0000290690912A06009709F473C020912606C2
:100A100081FF6BC02061209326062091260682FF6D
:100A200066C028602093260623E0969587952A9530
:100A3000E1F790932A0680932906809117069091FA
:100A4000180685FF7FC0906890931806809317065C
:100A5000809117069091180693FD05C098609093B9
:100A600018068093170680912606806280932606DA
:100A700011E0809117069091180694FBCC27C0F9DD
:100A8000CD2796FF06C09F7B90931806809317068C
:100A9000C1E0809117069091180691FD08C0CC2303
:100AA00009F470C0926090931806809317060E9414
:100AB000EF042091150630911606FB01E21BF30BA3
:100AC0002091170630911806CC2309F47FC025FD2C
:100AD0005FC040911D0632FD38C04423E1F134600F
:100AE00030931806209317063FC02F7E94CF277FA0
:100AF00099CF10E0662309F4BCCF80912606161624
:100B0000ECF48061809326060E94EF042091150684
:100B100030911606AB01421B530B9A0140912806F7
:100B200070931606609315068091260642171306E9
:100B300039F030F08860809326067FCF8F7EE2CF39
:100B4000877FF9CF1092140683CF4E171F0619F036
:100B500010F041110DC02262309318062093170641
:100B600070931C0660931B0670931606609315061F
:100B700080911706909118068F719927C1E0892BF3
:100B800009F4C0E0812F8C2BDF91CF911F91089544
:100B900037FDEECF26FD0BC040911F06A0E14A9F16
:100BA000A0011124E417F50718F3246499CF4091AC
:100BB000200627FF40911F06A0E14A9FA0011124B3
:100BC0002868E417F50708F08BCFD2CF25FF19C0AE
:100BD00080911D068E171F0611F008F041C026FDFA
:100BE00005C0809114068F5F8093140637FD109224
:100BF00014062F7D2061316030931806209317066C
:100C00002FC030FF15C037FD05C020613093180696
:100C10002093170620911706309118063E773093DF
:100C2000180620931706709316066093150618C0D1
:100C300040911406442339F1C901807C9927892BFE
:100C4000D9F480911E0640E1849FC0011124E81769
:100C5000F90790F480911B0690911C06892B71F482
:100C6000809117069091180692FF82CF9B7F9093F8
:100C70001806809317067CCF2160BECF10921C0609
:100C800010921B06EDCF31FFEBCF2F733D7F386005
:100C9000309318062093170610921C0610921B061C
:100CA000C2CF08950895E0E0615098F0DC018D9185
:100CB0008E27E82FEF70F0E0E35CFD4F9491E82F72
:100CC000E295EF70F0E0E35BFD4FE491E927CD01A1
:100CD000EBCF8E2F08956F927F928F929F92AF925B
:100CE000BF92CF92DF92EF92FF920F931F93CF9319
:100CF000DF93CDB7DEB72C970FB6F894DEBF0FBEEB
:100D0000CDBF5C010E942A04C5010E9414048EEB31
:100D10000E94EA038E010F5F1F4F4E018AE0880E8A
:100D2000911C380188E0C82ED12CF12CEE24E394DC
:100D30000E946B048111FE28EE0CE1E0CE1AD1086E
:100D4000B9F7F801F1928F01E815F90559F70E94FA
:100D50002A04C5010E94140484E40E94EA0368E0A6
:100D6000C3010E945306998589132FC069817A8136
:100D70008D81807611F5687F072E000C880B990B0A
:100D80000E94F93020E030E040E85DE30E945831F5
:100D90002C960FB6F894DEBF0FBECDBFDF91CF917A
:100DA0001F910F91FF90EF90DF90CF90BF90AF9089
:100DB0009F908F907F906F900895803211F46C7F98
:100DC000DBCF8034C9F66E7FD7CF60E070E88AEF62
:100DD00093E4DECF85ED8093BC008091BC0084FD60
:100DE000FCCF10924605089520911E03260F33274D
:100DF000331F21323105ECF420914605FC0190E0CF
:100E000080E0243069F082E00895A0911E032191D2
:100E1000AC0142505D4FA40FB52FB11D2C9301962C
:100E2000861798F380911E03680F60931E0380E07D
:100E3000089581E008950895E091FF048091FE04F3
:100E4000E81730F4F0E0E050FB4F808190E0089527
:100E50008FEF9FEF08959091FF048091FE042FEF94
:100E60003FEF981748F4E92FF0E0E050FB4F208166
:100E700030E09F5F9093FF04C90108958091FE04C4
:100E80009091FF04891B990B0895CF92DF92EF9206
:100E9000FF920F931F93CF93DF937C01CB018A01C5
:100EA00020914705222389F0EB016B01C40ED51E6A
:100EB000CC15DD0569F06991D701ED91FC910190A8
:100EC000F081E02DC7010995F3CF642F0E94F4064D
:100ED000C801DF91CF911F910F91FF90EF90DF90AC
:100EE000CF90089521E02093470527E720936905D7
:100EF0001092480510926A0542E050E0BC0188E07B
:100F000096E00E9445070E949501982F8093B206B3
:100F100081E0911180E00895CF93DF930F92CDB7D8
:100F2000DEB76983209147052223F9F020916A05F5
:100F3000203258F021E030E0FC013383228390E03E
:100F400080E00F90DF91CF91089580914805E82FC0
:100F5000F0E0E75BFA4F998190838F5F80934805BB
:100F600080936A0581E090E0ECCF61E0CE010196CC
:100F70000E94F406F7CFFC01248131E0309347054D
:100F8000209369051092480510926A058485682BA4
:100F900088E096E00E948C070C9495010F931F93B4
:100FA000CF938C01C62F0E94BB076C2F6460C801D1
:100FB0000E94BB076C2F6B7FC8010E94BB0782E3B6
:100FC00090E0CF911F910F910C94AA030F931F9360
:100FD000CF93DF938C01D62FC42F607F642B0E94A8
:100FE000CE0780E1D89FB00111246C2BC801DF919E
:100FF000CF911F910F910C94CE07CF93DF93CDB774
:10100000DEB728970FB6F894DEBF0FBECDBF98E0CD
:10101000E7E5F1E0DE01119601900D929A95E1F776
:1010200090913606961708F46FEF262F30E0220FC6
:10103000331F41E050E04C0F5D1F240F351FF901B5
:101040006081680F606840E08EE296E028960FB6F7
:10105000F894DEBF0FBECDBFDF91CF910C94E607B1
:1010600040E061E08EE296E00E94E60780ED97E0C6
:101070000E94AA0380913706882321F060E080E077
:101080000C94FD07089541E00E94E60781E090E09E
:1010900008952091FC023091FD022817390771F460
:1010A0009091FB028091FA02981741F0E091FB02C7
:1010B000F0E0E654FD4F808190E008958FEF9FEFC0
:1010C0000895EF92FF920F931F93CF93DF93DC016C
:1010D0005C968D919C915D97009769F421E030E0DA
:1010E00013963C932E931297DF91CF911F910F91FE
:1010F000FF90EF9008955196ED91FC915297509684
:101100002C915097322F30950FB75E964C915E9789
:10111000142F127041FD6095F8944081112319F14C
:10112000422B4083EC012197F1F748E0E62EF12CA9
:10113000508160FF1AC0522B5083EC012197F1F7C8
:10114000B70175956795415089F78081112379F032
:10115000832380830FBF5C968D919C910197F1F75B
:1011600081E090E0C1CF4323DCCF5323E5CF282B90
:101170002083F0CF2091FC023091FD02281739071F
:1011800071F48091FA022091FB0290E0805C9F4F05
:10119000821B910960E470E00E94042C089590E0A5
:1011A00080E008952091FC023091FD022817390754
:1011B000B9F49091FB028091FA02981789F0E091BE
:1011C000FB02F0E0E654FD4F80812091FB0230E00D
:1011D0002F5F3F4F2F7333272093FB0290E008953A
:1011E0008FEF9FEF089590E080E008958091CF0306
:1011F0009091D0030197D9F58091EA038823B9F142
:1012000080911701882399F180911801909119011B
:1012100064E670E00E94F02B9B014091E603509140
:10122000E703469FC001479F900D569F900D1124E4
:101230006FEF73E00E94F02B8091B8029091B90299
:1012400001968217930768F49093B9028093B802CD
:101250008091B8029091B9028617970738F4439AA3
:1012600008951092B9021092B802F2CF43980895EF
:10127000EF92FF920F931F93CF93DF938C01D62FA2
:1012800081E08093470587E78093690510924805C0
:1012900010926A05F801608188E096E00E948C0750
:1012A0000E9495018093B20681115EC0ED2E0D2E35
:1012B000000CFF08C0914605C111FCCF8D2F91E0B5
:1012C00090934605909345052FEF20934405109287
:1012D00043052D0F20934205909321059091210500
:1012E0009E6E90932105909120059130C1F510924A
:1012F0002005909121059093BB009091BC0093FD37
:10130000F8CF95EC9093BC00909146059130E1F3B5
:10131000909143059D1710F48091430522E235E03A
:10132000A0E0B5E0F9019E2F921B9817D0F0109223
:10133000FF048093FE0488E096E00E942B07F801EA
:10134000EC0FF11D8083CF5FCE151F04A4F381E065
:10135000DF91CF911F910F91FF90EF90089595EE3F
:10136000D1CF91919D93DFCF80E0F2CF0F931F9368
:10137000CF93DF9300D0CDB7DEB78B01898362E0D6
:10138000CE0101960E943809882381F089819A81D3
:10139000982789279827F8019183808381E00F900F
:1013A0000F90DF91CF911F910F910895F801118255
:1013B0001082F5CF0F931F93CF93DF9300D0CDB75B
:1013C000DEB78B01898362E0CE0101960E94380965
:1013D000882381F089819A81982789279827F801A5
:1013E0009183808381E00F900F90DF91CF911F91C7
:1013F0000F910895F80111821082F5CFCF93C82F75
:10140000882349F0E0911906F0911A063097D9F433
:101410008C2FCF910895809117069091180693FF15
:10142000F7CF0E94EF042091150630911606621B3B
:10143000730B8091210620E1829FC001112468175F
:10144000790700F7E5CF0995809117069091180666
:1014500093FFDECF0E94EF0420911506309116060F
:10146000621B730B8091210620E1829FC001112431
:101470006817790768F28091170690911806977F90
:101480009093180680931706C3CFDF92EF92FF92D6
:101490000F931F93CF93DF93D82EE92E80914806A8
:1014A000811104C00E942A0481110FC010924606C7
:1014B000109248061092470680E0DF91CF911F916D
:1014C0000F91FF90EF90DF90089580EF0E94EA0364
:1014D000D1E000E0F12CC1E00E946B04182F0E94C3
:1014E0006B041130E1F48130C9F5C134F8F2F092A7
:1014F0004606F11003C081E08093480680913E06C5
:101500008823A1F2AEE3B6E0ED2DFE2DCF010896C3
:101510002D912193E817F907D9F781E0CECF202F3D
:1015200030E0181310C080914606C817A8F4F901DE
:10153000E55CF94F83818D2389F410E0C93010F404
:10154000C0934706FC2EF901E55CF94F83819D2F7E
:101550009095892383830AC08C13EFCFE02FF0E0AE
:10156000E55CF94F83818D2B838311E0812F0E94ED
:10157000B503CF5FDD0F11F40F5FD1E0083008F441
:10158000ABCFB3CF90E0FC01E755FD4FE491F0E025
:10159000EE0FFF1FEB56FD4FA591B4912C91835494
:1015A0009D4FFC018491822391E009F490E0892F02
:1015B00008956115710579F0FB0101900020E9F7AC
:1015C0003197AF01461B570BDC01ED91FC91028076
:1015D000F381E02D099490E080E008954F925F92AE
:1015E0006F927F92AF92BF92CF92DF92EF92FF9273
:1015F0000F931F93CF93DF93CDB7DEB7A1970FB6AD
:10160000F894DEBF0FBECDBF5C016A017B0119A259
:10161000223008F42AE08E010F5D1F4F422E512C1C
:10162000712C612CC701B601A30192010E940B35F8
:101630006A302CF5605DF80162938F01C414D50403
:10164000E604F704C8F4BF01C5010E94D90AA196B7
:101650000FB6F894DEBF0FBECDBFDF91CF911F91C3
:101660000F91FF90EF90DF90CF90BF90AF907F9061
:101670006F905F904F90089569017A01D3CF695CB4
:10168000DACFCF92DF92EF92FF920F931F93CF9317
:10169000DF938C016B01770FEE08FF08F7FE1AC08D
:1016A0006DE20E947602EC0144275527BA014C19DD
:1016B0005D096E097F092AE0C8010E94EE0A8C0FBD
:1016C0009D1FDF91CF911F910F91FF90EF90DF90C1
:1016D000CF9008952AE0B701A601DF91CF911F9125
:1016E0000F91FF90EF90DF90CF900C94EE0A0C9446
:1016F000D90AEF92FF920F931F93CF93DF93CDB749
:10170000DEB72C970FB6F894DEBF0FBECDBF7C01BD
:10171000CB01BA018E010F5F1F4F40E00E941E2CCB
:10172000B801C7010E94770B2C960FB6F894DEBF64
:101730000FBECDBFDF91CF911F910F91FF90EF9022
:101740000895EF92FF920F931F93CF93DF9361E081
:1017500090E080E00E94ED34D0E0C0E0CE01805601
:101760009D4F7C0101E010E0F70161917F01C8010C
:101770008C0F9D1F0E94ED340F5F1F4F0930110524
:1017800099F72896C831D10549F7DF91CF911F917C
:101790000F91FF90EF9008954F925F926F927F921A
:1017A0008F929F92AF92BF92CF92DF92EF92FF9271
:1017B0000F931F93CF93DF93CDB7DEB7CB55D109EE
:1017C0000FB6F894DEBF0FBECDBF539A8091B00024
:1017D0008F7D8093B0005B982198299A3B9A43981B
:1017E0003A9A429A399A419A389A409A0E944A0201
:1017F0006AE070E080E090E00E94BD041092B000CA
:1018000087E08093B10081E08093700084E680934C
:10181000B2000E944A0268E676E08AEA0E94B609AF
:10182000882309F46CC16AE676E08CEA0E94B60966
:10183000882309F464C16CE676E08EEA0E94B6095A
:10184000882309F45CC168E776E080EB0E94DA093E
:10185000882309F454C16AE776E082EB0E94DA0932
:10186000882309F44CC16CE776E084EB0E94DA0926
:10187000882309F444C16EE676E086EB0E94B6093F
:10188000882309F43CC160E776E088EB0E94B60942
:10189000882309F434C162E776E08AEB0E94B60936
:1018A000882309F42CC164E776E08CEB0E94B6092A
:1018B000882309F424C166E776E08EEB0E94B6091E
:1018C000882309F41CC160916C0670916D06072E87
:1018D000000C880B990B0E94F93020E030E040EAC0
:1018E0005BE30E9458312B013C01609178067091B6
:1018F000790690E080E00E94F7302FE632E143E085
:1019000053E30E9458316B017C0160916E06709127
:101910006F06072E000C880B990B0E94F93020E00F
:1019200030E048EC57E30E9458314B015C01609174
:101930007A0670917B0690E080E00E94F7302DECF3
:101940003CEC4CE454E30E94583160937E06709363
:101950007F06809380069093810660917C0670914B
:101960007D0690E080E00E94F730609382067093DD
:101970008306809384069093850660917406709127
:101980007506072E000C880B990B0E94F9302AE08F
:1019900037ED43EA5DE30E94583160938606709309
:1019A00087068093880690938906609176067091E9
:1019B0007706072E000C880B990B0E94F93020E067
:1019C00030E040E253E40E94123660938A0670933E
:1019D0008B0680938C0690938D06609168067091BB
:1019E0006906072E000C880B990B0E94F930609352
:1019F0008E0670938F068093900690939106609167
:101A00006A0670916B06072E000C880B990B0E94DA
:101A1000F93020E030E040EA5CE30E945831609306
:101A20009206709393068093940690939506609126
:101A3000700670917106072E000C880B990B0E949E
:101A4000F93020E030E048E45AE30E9458316093D6
:101A5000960670939706809398069093990620E0D7
:101A600030E040E057E4C701B6010E94583160936E
:101A70009A0670939B0680939C0690939D06A701FF
:101A80009601C301B2010E94583160939E06709383
:101A90009F068093A0069093A106A5019401C7011B
:101AA000B6010E9458316093A2067093A3068093FA
:101AB000A4069093A5068CEE91E5A7E1B0E480938F
:101AC000A6069093A706A093A806B093A90680E364
:101AD00094E3AEE7BFE38093AA069093AB06A0938E
:101AE000AC06B093AD0680E097E5A4E9B6E3809339
:101AF000AE069093AF06A093B006B093B1061092D5
:101B000064061092630610926206109261061092AB
:101B1000600610925F068DE991E0909366068093CF
:101B2000650690915506963108F076C02DEB30E0B1
:101B30003093600620935F062BE931E03093620614
:101B4000209361062CE231E0309364062093630613
:101B50002091680084E0983048F031E09E3008F42D
:101B600030E081E001C0880F3A95EAF7822B80933C
:101B700068002DE630E0983050F02BE630E09E30E3
:101B800030F030E020E0963110F42CE630E0309375
:101B90005D0620935C06292F30E0983008F03DC1A7
:101BA00081E001C0880F9A95EAF780935E068091E4
:101BB0006506909166060197F1F780916306909112
:101BC0006406892B49F1E091FC02F091FD0226E0C8
:101BD000E934F20709F1309739F0A389B4899C916F
:101BE0008589809589238C93809167068E7F809369
:101BF00067061092FA021092FB0289E496E0909335
:101C0000FD028093FC02E0915C06F0915D0680810C
:101C100090915E06892B8083E0917B05F0917C0595
:101C200082E08083E0917705F09178051082E09161
:101C30007905F0917A0580E1808310928305E09127
:101C40007F05F091800586E08083E0917D05F0912D
:101C50007E05808180618083E0917D05F0917E0525
:101C6000808188608083E0917D05F0917E05808190
:101C700080688083E0917D05F0917E0580818F7D75
:101C800080830E944A021092330680913906823086
:101C900018F098E0909333068093360662E370E084
:101CA00080E090E00E94BD0460913A068EE296E0EA
:101CB0000E94BB0768EE73E080E090E00E94BD04E4
:101CC00060E38EE296E00E94CE0784E991E10E94F3
:101CD000AA0360E38EE296E00E94CE0784E991E1D8
:101CE0000E94AA0360E38EE296E00E94CE0786E996
:101CF00090E00E94AA0360E28EE296E00E94CE0786
:101D000060913306606240E08EE296E00E94E60752
:101D100084E08093340640E06CE08EE296E00E941E
:101D2000E6070E94300882E08093350640E066E0D6
:101D30008EE296E00E94E60740E062E08EE296E0E6
:101D40000E94E60780ED97E00E94AA0310923A06EF
:101D500060E08EE296E00E94BB070E94EF04609371
:101D6000FD037093FE038093FF03909300040E9491
:101D7000EF046093F9037093FA038093FB0390934D
:101D8000FC031092AB0410926A0410924A03109262
:101D9000AE0390E080E00E94E534813009F44AC04F
:101DA0001092460610924806109247061092450679
:101DB0001092440610924306109242061092410679
:101DC0001092400610923F0610923E0600EA12E082
:101DD00048EBE42E42E0F42ECE0101960E94450A23
:101DE000882309F41DC1E016F10609F419C167E062
:101DF000CE0101960E94530698858913EDCF898103
:101E0000883251F788E0FE013196D80101900D9299
:101E10008A95E1F7085F1F4FDFCF9E3040F42850CE
:101E2000310981E001C0880F2A95EAF7BECE2E5015
:101E30003109F7CF10E000E0C80180569D4F6C01DA
:101E4000EE24E394F12CC8018E0D9F1D0E94E53411
:101E5000F60181936F01FFEFEF1AFF0A29E0E21606
:101E6000F10489F7085F1F4F0831110529F7109217
:101E700046061092480610924706109245061092A8
:101E800044061092430610924206109241061092A8
:101E9000400610923F0610923E06F12CCE018F5A5A
:101EA0009F4F0E94450AE82E882331F167E0CE015A
:101EB0008F5A9F4F0E94530669969FAD6997891369
:101EC000EDCF62968FAD6297883241F78E010F5F3A
:101ED0001F4FE12C6801FE1409F4EEC048E050E009
:101EE000B801CE018F5A9F4F0E941632085F1F4FD4
:101EF000892BA1F2E394EFCF6C961DAE1EAE1FAE00
:101F00006C9700EA12E0D12CC12CAA24A394F8010A
:101F100088E0800F9191992399F0CE0101964C01B0
:101F2000B12CFB14B9F048E050E0B401C8010E94A4
:101F30001632E8E08E0E911C892BE1F0B394F1CFBC
:101F40008E13E8CFE9E5F0E0EC0FFD1FEC0DFD1D71
:101F5000A08210C0F801C801089611928E179F0741
:101F6000E1F7E9E5F0E0EC0FFD1FEC0DFD1DA082AF
:101F7000EE24E394FFEFCF1ADF0A085F1F4F23E040
:101F8000C216D10421F6CE0101966C01B12CFB14CE
:101F900009F445C000EA12E0F801C8010896219151
:101FA00021119EC0E817F907D1F7085F1F4F92E093
:101FB000083B190789F76A968FAD6A97882319F04D
:101FC00090E080E00CC06B968FAD6B97811124C0C0
:101FD0006C968FAD6C978823D1F082E090E0DC01A5
:101FE00023E0AA0FBB1F2A95E1F7A056BD4F28E0BA
:101FF000F60101900D922A95E1F7E9E5F0E0EC0F8A
:10200000FD1F8E0F9F1FFC011082EE24E394B394FA
:10201000F8E0CF0ED11CBBCF81E090E0E0CFE11023
:102020000E94A10B88E0E0EAF2E0A0E5B4E00190B4
:102030000D928A95E1F788E0E8EAF2E0A4E2B4E0E4
:1020400001900D928A95E1F788E0E0EBF2E0AFE0D5
:10205000B4E001900D928A95E1F780E180938100D0
:102060001092800080E293E0909387008093860036
:1020700081E18093810086EF98E090930101809345
:10208000000181E080936F00C55ADF4F0FB6F894CE
:10209000DEBF0FBECDBFDF91CF911F910F91FF909B
:1020A000EF90DF90CF90BF90AF909F908F907F90F8
:1020B0006F905F904F90089529E02F1508F4EECEB1
:1020C00038E0F39ED0011124AC0DBD1D88E0FE0167
:1020D000EF5AFF4F01900D928A95E1F7F394DECE0F
:1020E00048E050E0B601C8010E941632892B09F081
:1020F0005CCF8DCF8F929F92AF92BF92CF92DF92A3
:10210000EF92FF920F931F93CF93DF93CDB7DEB77C
:1021100061970FB6F894DEBF0FBECDBF0E943008A6
:1021200080916103811125C060E00E94FD0767E393
:1021300072E08EE296E00E947D0261E080E00E9403
:10214000FD07E0915F03F0E0EE0FFF1FED5EFD4F36
:102150006591749140E150E0CE0101960E94482DB6
:10216000198ABE016F5F7F4F8EE296E00E94770B67
:102170006EC020915E0391E080915F03811101C0E8
:1021800090E0AFE5B1E080E0E0E01C963C911C9768
:1021900039134EC028134BC00E2F10E08DE0E89F7E
:1021A000F0011124E15AFE4FE081F0E0EE0FFF1F35
:1021B000E95EFD4F6591749140E150E0CE010196DA
:1021C0000E94482D198A60E080E00E94FD07BE0150
:1021D0006F5F7F4F8EE296E00E94770B80916003E5
:1021E000882331F069E272E08EE296E00E947D027F
:1021F00061E080E00E94FD078DE0809FF001819FFB
:10220000F00D1124E15AFE4F83818130E9F18823DA
:1022100089F18230E1F40180F281E02D808169E171
:1022200072E0882309F4A0CF66E172E09DCF8F5F52
:10223000EF5F1D96E93009F0A8CF60E080E00E94D2
:10224000FD076EE272E08EE296E00E947D026196EA
:102250000FB6F894DEBF0FBECDBFDF91CF911F91B7
:102260000F91FF90EF90DF90CF90BF90AF909F9035
:102270008F9008950180F281E02D608171818EE25E
:1022800096E00E94410BE3CF0180F281E02DC080F7
:10229000D180E280F380A7019601C701B6010E94B8
:1022A000BF366DE172E0811126C046015701E89406
:1022B000B7F82FEF3FEF4FE75FE7C501B4010E948A
:1022C000BF3681110CC02FEF3FEF4FE75FE7C5012D
:1022D000B4010E94F23061E272E0181664F02FEF50
:1022E0003FEF4FE75FE4C701B6010E94BA36181608
:1022F0003CF465E272E08EE296E00E94D90AA7CF34
:102300002FEF3FEF4FE75FECC701B6010E94F230BD
:1023100087FDEFCF20E030E0A901C701B6010E94A0
:10232000F23087FF09C06DE28EE296E00E947602ED
:10233000F7FAF094F7F8F0942DEC3CEC4CE45DE304
:10234000C701B6010E94A6354B015C010E948B3685
:102350006B017C010E94F7309B01AC01C501B40107
:102360000E94A5354B015C012AE0B701A6018EE26F
:1023700096E00E94EE0A6EE28EE296E00E947602FD
:1023800020E030E040E251E4C501B4010E94583140
:102390000E948B36AB0170E060E02AE08EE296E0AE
:1023A0000E94EE0A54CF1F920F920FB60F92112483
:1023B0002F933F934F935F936F937F938F939F934D
:1023C000AF93BF93EF93FF938BE695E00E941B03BF
:1023D000FF91EF91BF91AF919F918F917F916F91FD
:1023E0005F914F913F912F910F900FBE0F901F90D3
:1023F00018952F932FB72F938F939F93EF93FF935E
:10240000E0917B05F0917C058081E0918105F09160
:10241000820582FD19C09081809184058F5F8F7342
:1024200020918505821741F0E0918405F0E0E5599F
:10243000FA4F958F80938405FF91EF919F918F9133
:102440002F912FBF2F9118958081F6CF1F921FB625
:102450001F9211248F939F93AF93BF938091420358
:1024600090914303A0914403B09145030196A11DAF
:10247000B11D8093420390934303A0934403B09310
:1024800045038091410393E0980F9D37E8F49093C2
:1024900041038091460390914703A0914803B09176
:1024A00049030196A11DB11D8093460390934703F4
:1024B000A0934803B0934903BF91AF919F918F912F
:1024C0001F901FBE1F9018958A57809341038091DB
:1024D000420390914303A0914403B09145030196B8
:1024E000A11DB11D8093420390934303A093440325
:1024F000B0934503CECF1F920F920FB60F921124C7
:102500002F933F934F935F936F937F938F939F93FB
:10251000AF93BF93EF93FF93E0910001F09101011E
:102520000995FF91EF91BF91AF919F918F917F910D
:102530006F915F914F913F912F910F900FBE0F9030
:102540001F9018951F920F920FB60F9211242F9380
:102550003F934F935F936F937F938F939F93AF932B
:10256000BF93EF93FF938091B900887F803609F481
:102570004AC0F0F5883209F4A7C018F5803109F493
:102580009BC0B8F4882309F4F9C0883009F494C0DA
:10259000FF91EF91BF91AF919F918F917F916F913B
:1025A0005F914F913F912F910F900FBE0F901F9011
:1025B0001895883109F488C0803251F7809344051A
:1025C00014C0803409F49DC040F48033B9F38833DB
:1025D000F9F68093440585ECB0C0803509F485C0D8
:1025E000883509F496C0883499F60E94EA06D0CF5F
:1025F000883909F48CC038F5883729F050F48836CA
:1026000011F0803729F683E080934605109240034D
:1026100057C0883809F47BC0803919F0803809F038
:10262000B7CF80914003803208F071C0E091400341
:1026300081E08E0F809340038091BB00F0E0E05E6C
:10264000FC4F80833DC0803B39F0E0F4803A09F4D0
:1026500079C0883A09F09CCF84E0809346051092B7
:102660001F0310921E03E091FC04F091FD040995F4
:1026700080911E0381110FC081E080931E03109290
:10268000FE0209C0803C09F4A6CF883C09F4A3CF20
:10269000883B09F07DCFE0911F0381E08E0F80938E
:1026A0001F03F0E0E250FD4F80818093BB009091CA
:1026B0001F0380911E0329C0809121058093BB00D8
:1026C00085EC8093BC0064CF9091430580914205D6
:1026D000981758F5E091430581E08E0F80934305EC
:1026E000F0E0EE5DFA4F8081E9CFE091430581E0B3
:1026F0008E0F809343058091BB00F0E0EE5DFA4FB2
:10270000808390914305809142059817C8F285E82F
:10271000D8CFE091430581E08E0F809343058091EF
:10272000BB00F0E0EE5DFA4F80838091450581119A
:102730005CCF81E08093200584EA8093BC001092F6
:10274000460526CF85EC8093BC001092460580910B
:102750004003803230F4E0914003F0E0E05EFC4F53
:1027600010826091400370E0E091FA04F091FB0464
:1027700080E293E00995109240030ACF109244053D
:1027800034CF2F932FB72F933F934F935F936F9334
:102790007F938F939F93AF93BF93EF93FF93E091BA
:1027A000FC02F091FD02309749F0A685B78585853A
:1027B000968D91FF12C09C91892391F4FF91EF9126
:1027C000BF91AF919F918F917F916F915F914F9149
:1027D0003F912F912FBF2F9118959C91892371F7CD
:1027E000A389B4899C918589809589238C93868956
:1027F00097890197F1F7608D718DA685B78555850D
:1028000038E020E0CB010197F1F7822F90E0959519
:102810008795282F4C91452309F02068315091F776
:10282000868D81FD20958091FA0290E001968F734C
:1028300099273091FB02381799F0A091FA02B0E085
:10284000A654BD4F2C938093FA02828D938D0197ED
:10285000F1F7A389B4898C919589892B8C93AECF9C
:10286000868D8160868FF1CF2F932FB72F938F9313
:102870009F9384E68093B2008091F7049091F804CE
:10288000883E934044F00C9400009F918F912F91CB
:102890002FBF2F9118958091F7049091F80401961D
:1028A0009093F8048093F704F0CFCF9310926E05C5
:1028B00010926D0588EE93E0A0E0B0E080936F0584
:1028C00090937005A0937105B093720528ED31E0E7
:1028D00030936C0520936B0525EC30E03093780540
:1028E0002093770524EC30E030937A052093790526
:1028F00020EC30E030937C0520937B0521EC30E028
:1029000030937E0520937D0522EC30E030938005E6
:1029100020937F0526EC30E03093820520938105DB
:1029200010928405109285051092860510928705F5
:1029300010920B0610920A0680930C0690930D06D7
:10294000A0930E06B0930F062AEE31E030930906ED
:102950002093080610924C0610924B0680934D0669
:1029600090934E06A0934F06B093500688E092E0F5
:1029700090934A06809349061092600610925F0673
:10298000109262061092610610926406109263061D
:102990001092660610926506809167068C7F809380
:1029A00067068091B0008F778093B0002B9A239AAE
:1029B000E8ECF2E0E491E0935906E4EBF2E0E49114
:1029C000F0E0EE0FFF1FE156FD4F8591949190933B
:1029D0005B0680935A0624982C982C9A8CE080935E
:1029E0005506E9ECF2E0E491E0935606E5EBF2E0FF
:1029F000E491F0E0EE0FFF1FEB56FD4F259134916F
:102A0000309358062093570656985E98E3ECF2E010
:102A1000E491E0933B06EFEAF2E0E491F0E0EE0FA0
:102A2000FF1FEB56FD4F2591349130933D062093C7
:102A30003C061092460610924806109247061092E5
:102A400045061092440610924306109242061092D8
:102A500041061092400610923F0610923E061092D8
:102A60003106109230062CEF31E030932F06209380
:102A70002E061092370697E29093320690E19093DB
:102A8000380692E09093390610923A061092160694
:102A900010921506109218061092170610921A0638
:102AA0001092190610921C0610921B0622E3209326
:102AB0001D062FE120931E0625E220931F0680931A
:102AC00020068EE3809321061092220610922306A0
:102AD00010922406109225061092260610922706C0
:102AE0008EE18093280610922A061092290684E02F
:102AF00080932B0690932C0685E080932D065498A6
:102B00005C982FEB32E0F90144918BEA92E0FC01F2
:102B10005491E52FF0E0EE0FFF1FE557FD4FA59113
:102B2000B4915C91409545234C93F9012491FC01AB
:102B30008491E82FF0E0EE0FFF1FE156FD4FA591C5
:102B4000B4918C91209528232C9380912D0690E0B0
:102B5000AC0143545D4FFA01349187559D4FFC0100
:102B60002491E22FF0E0EE0FFF1FE557FD4FA591F6
:102B7000B4912C91309532233C93FA012491FC01BD
:102B80008491E82FF0E0EE0FFF1FE156FD4FA59175
:102B9000B4918C91282B2C93809117069091180654
:102BA0009061909318068093170680912C060E94DE
:102BB000C20AC82F80912B060E94C20A837090918E
:102BC0002706907FC370CC0FCC0F982B9C2B909333
:102BD0002706CF910895CDB7DEB7E5970FB6F894E5
:102BE000DEBF0FBECDBFF89482E880937A0083E009
:102BF00084BD85BD80916E00816080936E0081E010
:102C0000809380009BE0909381008093B00084E0EB
:102C10008093B1001092C10078940E94CC0B3324B1
:102C200033949E012F5F3F4F3BA72AA7AE014D5D16
:102C30005F4F5DA74CA7CE014C969FA78EA7DE01E4
:102C40005596B9ABA8AB80912D069091260697FFBB
:102C5000DCC10E94C20A209117063091180620FD9F
:102C600010921406A9014F715527452B29F0207E9B
:102C700030931806209317069091260695FF03C0FF
:102C80009F7D9093260660E00E94FB040E94FE094F
:102C90008091F904882321F00E9430081092F904F1
:102CA0001092F8041092F7048091F5049091F604C4
:102CB000892B09F454C21092F6041092F504809105
:102CC000F3049091F404892B09F46DC21092F4047A
:102CD0001092F304C090EF04D090F004E090F1045F
:102CE000F090F2040E94EF046C197D098E099F098F
:102CF000683873418105910508F46DC10E94EF04A5
:102D00006093EF047093F0048093F1049093F204C5
:102D100014EF19838EE28A83CE0101960E94720716
:102D2000882309F458C165E070E080E090E00E94DB
:102D3000BD0406EF098362E0CE0101960E943809C6
:102D4000882309F448C1698170E090E080E00E9426
:102D5000F93020E030E040E853E40E9458316B0144
:102D60007C016A8170E090E080E00E94F9309B0174
:102D7000AC01C701B6010E94A635209182063091B0
:102D8000830640918406509185060E94A5352091C6
:102D90007E0630917F0640918006509181060E9408
:102DA00058316B017C0120918A0630918B0640914D
:102DB0008C0650918D060E94A6359B01AC01609156
:102DC00086067091870680918806909189060E94F8
:102DD0001236A70196010E94A6356B017C0119836A
:102DE0001A83CE0101960E947207882309F4F3C06A
:102DF0006AE170E080E090E00E94BD04098363E036
:102E0000CE0101960E943809882309F4E4C020E02D
:102E100030E048EC51E4C701B6010E94A5356B01D2
:102E20007C01AC019B010E9458312B013C0169815E
:102E300070E090E080E00E94F93020E030E040E86F
:102E400053E40E9458314B015C016A8170E090E0CC
:102E500080E00E94F9309B01AC01C501B4010E94E1
:102E6000A6354B015C016B8170E090E080E00E9430
:102E7000F93020E030E040E85BE30E9458319B01EC
:102E8000AC01C501B4010E94A6354B015C01209143
:102E90009606309197064091980650919906C30185
:102EA000B2010E9458316AAB7BAB8CAB9DAB2091D9
:102EB0009206309193064091940650919506C70171
:102EC000B6010E9458319B01AC016AA97BA98CA96B
:102ED0009DA90E94A63520918E0630918F064091C3
:102EE0009006509191060E94A6359B01AC01C50148
:102EF000B4010E94A5354B015C012091A2063091DE
:102F0000A3064091A4065091A506C301B2010E94F8
:102F100058312B013C0120919E0630919F06409133
:102F2000A0065091A106C701B6010E9458319B012D
:102F3000AC01C301B2010E94A63520919A063091DE
:102F40009B0640919C0650919D060E94A6359B01D0
:102F5000AC01C501B4010E9412366B017C01AC01C9
:102F60009B010E9458312091AE063091AF064091EE
:102F7000B0065091B1060E9458314B015C0120917E
:102F8000AA063091AB064091AC065091AD06C70140
:102F9000B6010E9458319B01AC01C501B4010E94E9
:102FA000A6352091A6063091A7064091A80650911B
:102FB000A9060E94A63520E030E44CE156E40E94C8
:102FC00058310E9484366093EB047093EC04809334
:102FD000ED049093EE0480915601882309F407C113
:102FE00080915501811106C01092AB041092AA0481
:102FF00030925501809154018111FDC010926A04F4
:103000001092690430925401F6C00E94C20A082F3F
:1030100080912C060E94C20A182F80912B060E94D4
:10302000C20A209117063091180620FD109214064E
:10303000A9014F715527452B29F0207E30931806A2
:10304000209317069091260695FF03C09F7D9093CD
:10305000260690912706292F2295207F26FB220FF6
:10306000220B20F9482F50E0692F6295660F660FFA
:10307000607C66FB660F660B60F96227062E000C0B
:10308000770B682775271617170619F460E0802F4D
:10309000FBCD692F62956F70022E000C330B9F7071
:1030A0004217530709F44BC06F5F6295607F962B00
:1030B0009093270690912706907F212F2370220F4F
:1030C000220F382F3370932B922B90932706907FEB
:1030D000E9F290912606292F23702130C1F1222395
:1030E00081F12230C9F12091270681E020310CF4D2
:1030F00080E092FB992790F961E089136FEF80914E
:1031000027068F70809327068091220690912306D0
:10311000A0912406B0912506C62E062E000CDD08CF
:10312000EE08FF088C0D9D1DAE1DBF1D809322066D
:1031300090932306A0932406B0932506A8CF615F41
:10314000B4CF112309F4A2CF8111CDCF9FCF11119C
:103150009DCF882341F29ACF181398CFC4CF8BE626
:1031600095E00E94FB02892B09F4A9CDE1E0F0E093
:10317000F093F604E093F5048BE695E00E94D90203
:10318000E091AA04EF3308F09ACD91E09E0F90935E
:10319000AA04F0E0E555FB4F8083E92FF0E0E55508
:1031A000FB4F10828CCD89E496E00E94BA08892BEF
:1031B00009F490CD21E030E03093F4042093F3043F
:1031C00089E496E00E94D208E0916904EF3308F0A8
:1031D00081CD91E09E0F90936904F0E0E659FB4F9A
:1031E0008083E92FF0E0E659FB4F108273CD1092F7
:1031F0005501109254010091F3041091F404809150
:10320000F5049091F6049801282B392B232B91F487
:1032100080916704882309F450C0109267040E94CB
:10322000EF04609363047093640480936504909347
:1032300066040BC0309253010115110511F4892B5E
:1032400039F33092680430926704809168048325D2
:10325000809356018091F5049091F604892B11F426
:103260000C94B62B30926204012B11F01092620480
:10327000309261040E94EF0460935D0470935E04D9
:1032800080935F049093600410925C04C0905D048E
:10329000D0905E04E0905F04F09060040E94EF0420
:1032A0006C197D098E099F096233710581059105AD
:1032B00010F130925C040C94C62B80916804882332
:1032C00021F2C0906304D0906404E0906504F09013
:1032D00066040E94EF046C197D098E099F09683EFF
:1032E00073408105910508F4B0CF10926804ADCF0A
:1032F00081110C94C62BC0905804D0905904E090D2
:103300005A04F0905B040E94EF046C197D098E0949
:103310009F09683873418105910550F10E94EF04BF
:10332000609358047093590480935A0490935B04FB
:1033300080E594E00E946B066B017C0120E030E0A8
:103340004AEF53E40E94F23087FF12C0C0924C044F
:10335000D0924D04E0924E04F0924F040E94EF048C
:10336000609348047093490480934A0490934B04FB
:10337000C0904C04D0904D04E0904E04F0904F0467
:10338000C0924601D0924701E0924801F092490173
:1033900020914B0130914C0140914D0150914E01D3
:1033A000C701B6010E94BA36181674F420914F0175
:1033B000309150014091510150915201C701B60125
:1033C0000E94F23087FD2FC310924A01809143047E
:1033D000811156C380914204882309F472C310926C
:1033E000420480913D04882309F48DC310923D046A
:1033F00080913804882309F4A8C31092380480917E
:103400004204811107C080913D04811103C0809165
:103410003804811130925301C0902C04D0902D04B7
:10342000E0902E04F0902F040E94EF046C197D09A7
:103430008E099F09683873418105910550F10E94FA
:10344000EF0460932C0470932D0480932E049093CA
:103450002F0484E294E00E946B066B017C0120E063
:1034600030E04AEF53E40E94F23087FF12C0C0926E
:103470002004D0922104E0922204F09223040E94BE
:10348000EF0460931C0470931D0480931E049093BA
:103490001F04C0902004D0902104E0902204F090FA
:1034A0002304C0923501D0923601E0923701F092A8
:1034B000380120913A0130913B0140913C015091FB
:1034C0003D01C701B6010E94BA36181674F4209166
:1034D0003E0130913F014091400150914101C701AF
:1034E000B6010E94F23087FD52C3109239018091DB
:1034F0001B0481116AC3C0901704D0901804E09097
:103500001904F0901A040E94EF046C197D098E09C9
:103510009F09683873418105910550F10E94EF04BD
:1035200060931704709318048093190490931A04FD
:103530008FE094E00E946B066B017C0120E030E09C
:103540004AEF53E40E94F23087FF12C0C0920B048E
:10355000D0920C04E0920D04F0920E040E94EF044D
:1035600060930704709308048093090490930A04FD
:10357000C0900B04D0900C04E0900D04F0900E0469
:10358000C0922801D0922901E0922A01F0922B01E9
:1035900020912D0130912E0140912F015091300149
:1035A000C701B6010E94BA36181674F42091310191
:1035B000309132014091330150913401C701B6017D
:1035C0000E94F23087FD22C310922C0180910204E8
:1035D000811133C36091EB047091EC048091ED0490
:1035E0009091EE040E94F9302DEC30E540E556E470
:1035F0000E9412366B017C01C0924201D0924301BD
:10360000E0924401F092450111E0199B11C020E0C5
:1036100030E042E852E46091030470910404809128
:103620000504909106040E94BA3618160CF010E0BA
:103630001093010480915601882309F41FC38090E0
:10364000FD039090FE03A090FF03B09000040E9441
:10365000EF04681979098A099B09603D7740810563
:10366000910508F416C3609134047091350480917B
:103670003604909137040E940E022B013C016091A8
:1036800044047091450480914604909147040E943F
:103690000E024B015C01C701B6010E940E026B01D4
:1036A0007C0123EC35EF48E450E4C301B2010E94F1
:1036B000A6352B013C01A7019601C501B4010E946A
:1036C000A6359B01AC01C301B2010E9458310AE446
:1036D00013E021E040E00E941E2C60E672E089E4E5
:1036E00096E00E947D02409144045091450460910F
:1036F00046047091470421E089E496E00E94790B2A
:103700006CE289E496E00E94760240914201509179
:103710004301609144017091450121E089E496E004
:103720000E94790B6CE289E496E00E947602409157
:10373000340450913504609136047091370421E0CF
:1037400089E496E00E94790B6CE289E496E00E949D
:1037500076028091CA0360E3811161E389E496E017
:103760000E9476026CE289E496E00E9476028091E3
:10377000D90360E3811161E389E496E00E94760257
:103780006CE289E496E00E9476022091EB0330918E
:10379000EC034091ED035091EE0360911A0170919A
:1037A0001B0180911C0190911D010E94A535AB0168
:1037B000BC0121E089E496E00E94790B6CE289E487
:1037C00096E00E9476022091EB033091EC03409149
:1037D000ED035091EE0360911E0170911F018091E5
:1037E0002001909121010E94A535AB01BC0121E08F
:1037F00089E496E00E94790B6CE289E496E00E94ED
:1038000076026091E6037091E70389E496E00E94F6
:10381000410B6CE289E496E00E94760240910D0132
:1038200050910E0160910F017091100122E089E426
:1038300096E00E94790B6CE289E496E00E947602A1
:103840006AE473E089E496E00E94770B6CE289E415
:1038500096E00E9476024091030450910404609126
:1038600005047091060421E089E496E00E94790B3A
:103870006CE289E496E00E9476028091010460E3A4
:10388000811161E389E496E00E9476026CE289E4AA
:1038900096E00E94760280917D0360E3811161E3EE
:1038A00089E496E00E9476026CE289E496E00E9448
:1038B00076026DE572E089E496E00E947D020E9446
:1038C000EF046093FD037093FE038093FF039093D6
:1038D0000004809156018111DCC10E94EF046093C5
:1038E000F9037093FA038093FB039093FC03809198
:1038F000F803882339F08091F703882309F4F4C38F
:103900001092F7031091EA0311112AC44398109200
:10391000E9031092E8030E94EF046B017C0180919F
:10392000CB039091CC03A091CD03B091CE03892B12
:103930008A2B8B2B41F4C092CB03D092CC03E09224
:10394000CD03F092CE038091CA039091EA039923AC
:1039500011F40C94CF2B90911701992311F40C942E
:10396000CF2B90911601992311F40C94CF2B811138
:1039700094C52091E6033091E70381E022303105C0
:103980000CF480E02091E6033091E703223031050A
:103990000CF08DC51092C6031092C7031092C80395
:1039A0001092C903C092CB03D092CC03E092CD0316
:1039B000F092CE037CC5803311F00C94922A1092C1
:1039C000CA030C94922A803311F00C94A12A10920D
:1039D00084030C94A12AC0920201D0920301E092C8
:1039E0000401F09205010C941E2B803311F00C940D
:1039F000302B1092EA031092E7031092E603109224
:103A0000CA0343E150E065E372E08EEA93E00E946E
:103A100037321092C1030C942E2B10926A0410922C
:103A200069040C94B02B30924A0120E030E04AEA5D
:103A300052E4C701B6010E94F230882309F4C6CCD3
:103A400020E030E040E251E4C701B6010E94583165
:103A50000E948436072E000C880B990B0E94F930C7
:103A600020E030E040E251E40E94123660934404CA
:103A70007093450480934604909347043092430426
:103A8000C0904804D0904904E0904A04F0904B0460
:103A90000E94EF046C197D098E099F0968397A43E9
:103AA0008105910508F496CC1092440410924504C7
:103AB000109246041092470410924304309253012E
:103AC00089CCC0904404D0904504E0904604F09026
:103AD000470420913E0430913F04409140045091AE
:103AE0004104C701B6010E94F230882309F479CC61
:103AF000C0923E04D0923F04E0924004F092410410
:103B0000309242046ECCC0904201D0904301E090CC
:103B10004401F09045012091390430913A044091DC
:103B20003B0450913C04C701B6010E94F230882347
:103B300009F45ECCC0923904D0923A04E0923B047E
:103B4000F0923C0430923D0453CCC0903404D090A9
:103B50003504E0903604F090370420913004309121
:103B600031044091320450913304C701B6010E94E0
:103B7000F230882309F443CCC0923004D09231044F
:103B8000E0923204F09233043092380438CC309210
:103B9000390120E030E04AEA52E4C701B6010E9450
:103BA000F230882309F4A3CC20E030E0A901C7015A
:103BB000B6010E94A6356093340470933504809357
:103BC00036049093370430921B04C0901C04D090AC
:103BD0001D04E0901E04F0901F040E94EF046C1975
:103BE0007D098E099F0968397A438105910508F49A
:103BF00082CC109234041092350410923604109244
:103C0000370410921B043092530175CC30922C0172
:103C100020E030E04AEA52E4C701B6010E94F230E7
:103C2000882309F4D3CCC0920304D0920404E09218
:103C30000504F092060430920204C0900704D0906C
:103C40000804E0900904F0900A040E94EF046C1943
:103C50007D098E099F0968397A438105910508F429
:103C6000B9CC10920304109204041092050410922F
:103C700006041092020430925301ACCC0E94EF046F
:103C80006093FD037093FE038093FF039093000401
:103C900024CEC090F903D090FA03E090FB03F0909B
:103CA000FC030E94EF046C197D098E099F09603D99
:103CB00077408105910508F41ACE60913404709123
:103CC000350480913604909137040E940E026B01F6
:103CD0007C01609144047091450480914604909168
:103CE00047040E940E024B015C01609142017091F9
:103CF000430180914401909145010E940E022B01E5
:103D00003C0123EC35EF48E450E4C701B6010E94C2
:103D1000A6356B017C01A3019201C501B4010E948B
:103D2000A6359B01AC01C701B6010E9458310AE4D7
:103D300013E021E040E00E941E2C67E772E08BE672
:103D400095E00E947D0240914404509145046091A9
:103D500046047091470421E08BE695E00E94790BC0
:103D60006CE28BE695E00E94760240914201509110
:103D70004301609144017091450121E08BE695E09B
:103D80000E94790B6CE28BE695E00E9476024091EE
:103D9000340450913504609136047091370421E069
:103DA0008BE695E00E94790B6CE28BE695E00E9431
:103DB00076028091CA0360E3811161E38BE695E0AE
:103DC0000E9476026CE28BE695E00E94760280917A
:103DD000D90360E3811161E38BE695E00E947602EE
:103DE0006CE28BE695E00E9476022091EB03309125
:103DF000EC034091ED035091EE0360911A01709134
:103E00001B0180911C0190911D010E94A535AB0101
:103E1000BC0121E08BE695E00E94790B6CE28BE619
:103E200095E00E9476022091EB033091EC034091E3
:103E3000ED035091EE0360911E0170911F0180917E
:103E40002001909121010E94A535AB01BC0121E028
:103E50008BE695E00E94790B6CE28BE695E00E9480
:103E600076026091E6037091E7038BE695E00E948D
:103E7000410B6CE28BE695E00E94760240910D01C9
:103E800050910E0160910F017091100122E08BE6BC
:103E900095E00E94790B6CE28BE695E00E94760239
:103EA0006AE473E08BE695E00E94770B6CE28BE6A8
:103EB00095E00E94760240910304509104046091C1
:103EC00005047091060421E08BE695E00E94790BD1
:103ED0006CE28BE695E00E9476028091010460E33B
:103EE000811161E38BE695E00E9476026CE28BE63D
:103EF00095E00E94760280917D0360E3811161E389
:103F00008BE695E00E9476026CE28BE695E00E94DB
:103F10007602409102015091030160910401709179
:103F2000050121E08BE695E00E94790B6CE28BE6BF
:103F300095E00E94760260910601709107018BE680
:103F400095E00E94410B6CE28BE695E00E947602C0
:103F5000409122015091230160912401709125012B
:103F60002AE08BE695E00E94EE0A6CE28BE695E093
:103F70000E9476028091EA0361E3811160E38BE69F
:103F800095E00E9476026CE28BE695E00E94760254
:103F90008091160160E3811161E38BE695E00E9458
:103FA00076026CE28BE695E00E9476020E94EF04B6
:103FB0004B015C0128EE33E040E050E00E940B35FD
:103FC00069017A01C501B40120E83EEE46E350E004
:103FD0000E940B3549015A01C701B60120E13EE0BC
:103FE00040E050E00E940B352CE330E040E050E030
:103FF0000E940B3529013A013BAB2AABC701B60140
:104000002CE330E040E050E00E940B356B017C0176
:104010008B01BAE08B16910428F460E38BE695E0FF
:104020000E9476022AE0B501A4018BE695E00E9489
:10403000EE0A6AE38BE695E00E947602EAA9FBA904
:104040003A9728F460E38BE695E00E9476022AE036
:10405000B301A2018BE695E00E94EE0A6AE38BE6CB
:1040600095E00E9476020A30110528F460E38BE6A1
:1040700095E00E9476022AE0B701A6018BE695E062
:104080000E94EE0A6CE28BE695E00E947602809137
:10409000860360E3811161E38BE695E00E9476027E
:1040A0006CE28BE695E00E9476024091C603509147
:1040B000C7036091C8037091C90321E08BE695E0C6
:1040C0000E94790B6CE28BE695E00E94760264E731
:1040D00072E08BE695E00E947D026DE372E08BE674
:1040E00095E00E94D90AF9CBC0904201D0904301DB
:1040F000E0904401F09045012091F3033091F403E6
:104100004091F5035091F603C701B6010E94F230C9
:10411000882309F4F7CBC092F303D092F403E09222
:10412000F503F092F6033092F703A7019601609130
:10413000EF037091F0038091F1039091F2030E94DC
:10414000A53529E23CE54FE05DE30E9458316093DC
:10415000EB037093EC038093ED039093EE03D2CBCB
:104160002091E6033091E70381E0121613060CF468
:1041700080E08093E4032091E6033091E70391E02F
:104180002F3F33400CF490E09093E50320912601FB
:1041900030912701931302C001E0821300E00093E5
:1041A000E3038091E6039091E7031816190644F49F
:1041B0008091E6039091E7038F3F93400CF479C020
:1041C0001092E2031092E1038091E6039091E703DD
:1041D000181619060CF0EBC08091E6039091E703E6
:1041E0008F3F93400CF0E3C08091E1038093DC03A8
:1041F0008091DC038093E9038091E6039091E703CB
:10420000181619064CF48091E6039091E70311E02B
:104210008F3F93400CF410E01093E8038091DB0390
:10422000882309F4C7C01092DB03C0901E01D09010
:104230001F01E0902001F0902101809044049090B3
:104240004504A0904604B090470420911A01309193
:104250001B0140911C0150911D01C701B6010E9434
:10426000A5359B01AC01C701B6010E94A535A5018A
:1042700094010E94F23018160CF4C1C03092D80399
:10428000A5019401C701B6010E94BA3687FFB0C0EC
:104290008091D7038111C0C03092D7030E94EF04F0
:1042A0006093D3037093D4038093D5039093D60384
:1042B000C8C08091E20381110EC03092E2033092B7
:1042C000E1030E94EF046093DD037093DE038093AB
:1042D000DF039093E003C0902201D0902301E0908F
:1042E0002401F09025014090DD035090DE036090A2
:1042F000DF037090E0038091E10381112BC0A09156
:10430000E603B091E703A70196010E9457352FEF0E
:1043100033E040E050E00E942D35C21AD30AE40A8F
:10432000F50A0E94EF0464197509860997096C154E
:104330007D058E059F0508F447CF0E94EF0460932A
:10434000DD037093DE038093DF039093E0033092EC
:10435000E1033ACF4091E6035091E7035BAB4AABF0
:104360000E94EF044B015C01AAA9BBA9A701960119
:104370000E9457352FEF33E040E050E00E942D358A
:10438000D501C40184199509A609B70982179307B5
:10439000A407B50708F418CF0E94EF046093DD036B
:1043A0007093DE038093DF039093E0030BCF0093C1
:1043B000DC031ECF8091D9039091DA03981709F49A
:1043C00034CF8093DA033092DB032091E6033091FF
:1043D000E70343E1429FC001439F900D112464E134
:1043E00070E00E94042C7093E7036093E6031DCFF6
:1043F0001092D8031092D2031092D70322C0A501C5
:104400009401C701B6010E94BA3687FFF1CF8091AF
:10441000D80381113DCFEECFC090D303D090D40309
:10442000E090D503F090D6030E94EF046C197D094B
:104430008E099F09683873418105910510F030920B
:10444000D2038091D203982F93259093D9031123FF
:10445000A9F08091E9038093D1038091E6039091C4
:10446000E7038091CF039091D003019771F480E12D
:1044700097E290931901809318014DCA811102C0EF
:104480001091E9031093D103E8CF8091D1038823E1
:1044900011F0439A40CA43983ECA8091E603909136
:1044A000E703181619060CF053C08091D90388232E
:1044B00009F44EC06091E6037091E703072E000CEB
:1044C000880B990B0E94F930209112013091130151
:1044D00040911401509115010E94583120E030ECB8
:1044E0004FE754E40E94123620E03AEB4BE55AE4E1
:1044F0000E9412364B015C018091CB039091CC035A
:10450000A091CD03B091CE03A7019601281B390BD2
:104510004A0B5B0BCA01B9010E94F7309B01AC0149
:10452000C501B4010E9458319B01AC016091C603E2
:104530007091C7038091C8039091C9030E94A6356A
:104540006093C6037093C7038093C8039093C90315
:10455000C092CB03D092CC03E092CD03F092CE0375
:10456000C090C203D090C303E090C403F090C50391
:1045700020E030E0A901C701B6010E94BA36181642
:1045800044F52091C6033091C7034091C803509170
:10459000C903C701B6010E94F2301816D4F0109278
:1045A000E7031092E6031092CA031092C20310921E
:1045B000C3031092C4031092C50343E150E060E4CA
:1045C00072E08EEA93E00E9437321092C10330927B
:1045D000110120910D0130910E0140910F01509178
:1045E00010016091340470913504809136049091EB
:1045F00037040E94BA3687FF74C020E030E042E8FA
:1046000052E4609103047091040480910504909138
:1046100006040E94BA3618160CF463C0199B61C0D8
:1046200080911701882309F45CC01092AD031092A9
:10463000AC031092A7031092A6038091A1038111ED
:10464000E9C08091A00381110AC088E080933A06F6
:1046500060E08EE296E00E94BB073092A0031091CA
:104660009F03009116011111DEC0002309F4DBC085
:1046700030929E0330929D0380919E038093160199
:104680001111E3C0882309F4E0C0809198038823C6
:1046900009F4FAC0C0909403D0909503E09096037B
:1046A000F09097030E94EF046C197D098E099F0911
:1046B000603177428105910510F03092930310919B
:1046C0000104009117011111ECC0002309F4E9C0A5
:1046D000309292033092910380919203809317015C
:1046E000F3C08091AC03882309F46CC0C090A80388
:1046F000D090A903E090AA03F090AB030E94EF04CE
:104700006C197D098E099F096838734181059105EF
:1047100008F464C03092AD038091A70381110EC0EC
:104720003092A7033092A6030E94EF046093A20385
:104730007093A3038093A4039093A503C090A20356
:10474000D090A303E090A403F090A5038091A6036A
:1047500081114AC00E94EF046C197D098E099F09DE
:10476000603971408105910508F467CF0E94EF041C
:104770006093A2037093A3038093A4039093A50373
:104780003092A6038091A10381110DC08091B000E9
:104790008F7D8093B0005B9A3092A1038091A60335
:1047A000882309F44ECF8091A003882309F457CFC2
:1047B00010923A0660E08EE296E00E94BB071092EB
:1047C000A0034DCF3092AC030E94EF046093A80386
:1047D0007093A9038093AA039093AB038091AD03D8
:1047E000882309F426CF98CF0E94EF046C197D0925
:1047F0008E099F09683C71058105910518F20E9498
:10480000EF046093A2037093A3038093A403909397
:10481000A50311CF8091B0008F7D8093B0005B988D
:104820001092A103BBCF80919D03882399F0109231
:104830009D030E94EF046093990370939A03809301
:104840009B0390939C03011117CF10929303109236
:10485000980335CF80919E038823A9F3C0909903D4
:10486000D0909A03E0909B03F0909C030E94EF0489
:104870006C197D098E099F09603375478105910583
:1048800010F310929E03DFCF309298030E94EF0442
:10489000609394037093950380939603909397038A
:1048A0000ECF80919103882309F448C010929103A0
:1048B0000E94EF0460938D0370938E0380938F03A7
:1048C00090939003011108CF111165C02091440409
:1048D000309145044091460450914704609109018C
:1048E00070910A0180910B0190910C010E94F230AD
:1048F00018160CF050C08091EA03882309F44BC0CD
:1049000080918C038823B1F1C0908803D0908903F3
:10491000E0908A03F0908B030E94EF046C197D09EC
:104920008E099F0960327E448105910578F13092AD
:10493000870380911701882391F132C080919203FF
:10494000882309F4BFCFC0908D03D0908E03E090F0
:104950008F03F09090030E94EF046C197D098E097B
:104960009F09603375478105910508F4ABCF10921C
:104970009203A8CF30928C030E94EF0460938803C7
:104980007093890380938A0390938B0380918703AC
:104990008111CFCF04C01092870310928C0380E066
:1049A000809386032091090130910A0140910B0107
:1049B00050910C016091440470914504809146042B
:1049C000909147040E94BA3687FDFAC03092850361
:1049D00080911601882309F4F8C030928303309245
:1049E000820380918503882341F0809117018823F9
:1049F00021F080918303811115C110927D03429AA9
:104A000080918603882309F411C18091EA038823E9
:104A100009F40CC141988091EA03882309F408C184
:104A200080911701882309F403C1409880915301B4
:104A3000882309F491C080910801882309F4FAC001
:104A40008091030490910404A0910504B0910604A0
:104A50008093790390937A03A0937B03B0937C03B4
:104A600060914404709145048091460490914704FC
:104A70008E010D5D1F4F21E040E00E941E2C6091D1
:104A8000790370917A0380917B0390917C030750A6
:104A9000110921E040E00E941E2C609134047091C5
:104AA000350480913604909137040750110921E0B4
:104AB00040E00E941E2C29A92F9338A93F934FA5AF
:104AC0004F935EA55F938DA58F939CA59F938DE4D7
:104AD00092E09F938F931F9284E18F93A1E0B0E0C7
:104AE000AC0FBD1FBF93AF930E944632EAA5FBA552
:104AF00001900020E9F79F01215031094AA55BA5EB
:104B0000241B350B0FB6F894DEBF0FBECDBF8091CE
:104B10007703909178032817390714F43092F90439
:104B2000309378032093770380E190E0821B930B0E
:104B300097FD01969595879560E00E94FD0780910D
:104B40007603811107C0BE016F5F7F4F8EE296E052
:104B50000E94770B1092530180917503882309F40A
:104B600072C01092750380917003882309F48DC080
:104B70001092700380916D03882309F499C01092FC
:104B80006D0380916B03882309F49EC010926B0320
:104B90008091750381110DC080917003811109C04E
:104BA00080916D03811105C080916B03882309F406
:104BB00097C0309269033092680330921101A5C00A
:104BC000809184038093850303CF8091820388239F
:104BD00069F0109282030E94EF0460937E03709349
:104BE0007F038093800390938103FBCE80918303A6
:104BF000882309F4F6CEC0907E03D0907F03E09026
:104C00008003F09081030E94EF046C197D098E09E6
:104C10009F09603E73498440910508F4E2CE1092EA
:104C20008303DFCE30927D034298EACE419AF3CEE1
:104C3000409AFCCE8091420190914301A0914401A1
:104C4000B091450105CFC0900304D0900404E090DA
:104C50000504F09006042091710330917203409195
:104C6000730350917403C701B6010E94F230882388
:104C700009F479CFC0927103D0927203E09273036A
:104C8000F0927403309275036ECF8091E603909199
:104C9000E70320916E0330916F038217930709F4A5
:104CA00069CF90936F0380936E033092700362CF4D
:104CB0008091D90390916C03981709F462CF809387
:104CC0006C0330926D035DCF8091CA0390916A03AB
:104CD000981709F45DCF80936A0330926B0358CF25
:104CE0001091690380916803882309F4CAC0109267
:104CF00068030E94EF0460936403709365038093DC
:104D0000660390936703111158CF8091EA038111D4
:104D1000D2C043E150E065E372E08EEA93E00E9486
:104D200037321092C1033092110180911601811126
:104D30002CC06DE772E08EEA93E00E942E32892B40
:104D400061F03092110143E150E06DE772E08EEACC
:104D500093E00E9437321092C1031092CA0320E000
:104D600030E04CED52E420930D0130930E0140935E
:104D70000F01509310011092E7031092E603109276
:104D8000E9031092E8031092EA0380911701811160
:104D900030C06EE872E08EEA93E00E942E32892BDA
:104DA00061F03092110143E150E06EE872E08EEA6A
:104DB00093E00E9437321092C1031092CA0380E040
:104DC00090E0ACEDB2E480930D0190930E01A093BE
:104DD0000F01B09310011092E7031092E6031092B6
:104DE000E9031092E80310927D03109216011092CD
:104DF000EA0380911101882369F12EEA33E0D90199
:104E00000D900020E9F79D012F5A334080916203F5
:104E1000909163032817390714F43092F904309302
:104E200063032093620380E190E0821B930B97FD64
:104E300001969595879561E00E94FD078091760324
:104E4000811106C06EEA73E08EE296E00E94770B55
:104E5000109211018091760381110DC18091170686
:104E60009091180682FF2FC1309276031092610351
:104E70001092600310925F0310925E030E947A10FA
:104E800012C1112309F441CFC0906403D09065038F
:104E9000E0906603F09067030E94EF046C197D09AF
:104EA0008E099F09643671058105910508F485CE48
:104EB000109269032ACF809117019091CA03992318
:104EC00009F469C09091D9034FE2E42E42E0F42E38
:104ED000992321F039E2E32E32E0F32E882309F4FE
:104EE00043C06091E6037091E703072E000C880B26
:104EF000990B0E94F93024E13EEA43E251E40E941A
:104F000012368E010F5F1F4F21E040E00E941E2CE1
:104F1000609103047091040480910504909106044B
:104F20000C5E1F4F20E040E00E941E2C99A99F9329
:104F3000A8A9AF93FF92EF92E1E0F0E0EC0FFD1F24
:104F4000FF93EF9386E592E09F938F931F9284E106
:104F50008F938EEA93E09F938F930E9446320FB611
:104F6000F894DEBF0FBECDBF2091E6033091E7037A
:104F700080910601909107018217930744F02091D8
:104F8000E6033091E70381E0203131050CF480E045
:104F900080939F03CACE2091E6033091E70322302D
:104FA00031050CF45BC0882309F441C06091E6032D
:104FB0007091E703072E000C880B990B0E94F930C3
:104FC00024E13EEA43E251E40E9412368E010F5F73
:104FD0001F4F21E040E00E941E2C6091030470915D
:104FE000040480910504909106040C5E1F4F20E09C
:104FF00040E00E941E2C39A93F9348A94F9381E0BD
:1050000090E08C0F9D1F9F938F9381E692E09F937A
:105010008F931F9284E18F938EEA93E09F938F93F7
:105020000E9446320FB6F894DEBF0FBECDBF20916E
:1050300002013091030140910401509105016091FA
:1050400034047091350480913604909137040E94A5
:10505000BA368095881F8827881F9ACF882339F30E
:1050600043E150E060E772E08EEA93E00E9437325D
:105070001092C103DCCF8091610381116CC08091DB
:10508000170682FF3EC0109276030E9430083092CD
:105090005301309211011092630310926203109237
:1050A00078031092770380E090E0892B11F40C9440
:1050B00023160E940703882311F40C940F160E94F4
:1050C00000000C940F1680759170409761F78091E5
:1050D000EA0383258093EA03811110C01092E7034D
:1050E0001092E6031092CA0343E150E065E372E0D8
:1050F0008EEA93E00E9437321092C1033092110180
:10510000D2CF0E94F101882351F080915F0390E09B
:1051100001968170992780935F030E947A100E9404
:10512000FF01882351F080915F0390E00196817028
:10513000992780935F030E947A10809117069091BF
:10514000180680759170409709F0ADCF30926103D9
:105150001092600391CE91E080915F03811101C0B4
:1051600090E0AFE5B1E0FD0110E08485981301C047
:105170001F5F3D9621E0E43DF207B9F7809160039F
:105180002091170622FF04C083258093600376CE0A
:10519000811130C00E94F101882361F080915E038B
:1051A00090E00196612F70E00E94042C80935E03D2
:1051B0000E947A100E94FF01882371F0612F70E035
:1051C00080915E038150990B860F971F0E94042CDB
:1051D00080935E030E947A108091170690911806C2
:1051E00080759170409709F05ECF10926103109224
:1051F000600344CE30915E0320E080E01C964C9129
:105200001C97941338C0231335C0E82EF12C0E944C
:10521000F101D82E811135C00E94FF01882381F051
:105220008DE08E9D80018F9D100D1124015A1E4F1F
:10523000F8018381882309F494C0813009F4AAC05D
:10524000D110A5C08091170682FF2DCF1092600368
:105250000E947A108DE08E9DF0018F9DF00D11243B
:10526000E15AFE4F0284F385E02D309709F41BCFFD
:10527000099519CF2F5F8F5F1D96893009F0BECF3A
:1052800012CF8DE08E9D80018F9D100D1124015A4B
:105290001E4FD80113968C9113978130F9F0882313
:1052A00029F0823009F456C0D12CB6CF1196ED9179
:1052B000FC9112978081918114962D913C911597C4
:1052C000820F931F9183808318962D913C9128170C
:1052D00039070CF0A1CF318320839ECFF8010180E4
:1052E000F281E02DFBABEAAB14966D917C91072E19
:1052F000000C880B990B0E94F930EAA9FBA92081C8
:105300003181428153810E94A6352B013C01AAA91B
:10531000BBA94D925D926D927C921397F8016085C6
:105320007185072E000C880B990B0E94F9304B01F8
:105330005C01AC019B01C301B2010E94BA36181690
:105340000CF06ACFAAA9BBA98D929D92AD92BC9296
:10535000139762CF1196ED91FC9180818325808314
:105360005BCFD8010180F281E02D8081918114967C
:105370002D913C911597821B930B918380831696F8
:105380002D913C918217930714F4318320830E945E
:105390007A1058CFC180D28064817581072E000CAD
:1053A000880B990B0E94F9309B01AC01D6016D91DD
:1053B0007D918D919C910E94A5354B015C01F60178
:1053C00080829182A282B382D80116966D917C91DF
:1053D000072E000C880B990B0E94F9302B013C0121
:1053E000AC019B01C501B4010E94F23087FFCFCF11
:1053F000F6014082518262827382C9CF8091AA04F1
:105400000BEA14E0882309F4ABC163E270E0C80141
:105410000E942332009779F02091EA03222359F069
:1054200001960E94212D811554E0950720F4909358
:10543000E7038093E60360E470E0C8010E94233232
:105440000097A1F001960E941D2D6B017C0120E0C8
:1054500030E0A9010E94BA36181644F4C0920D013A
:10546000D0920E01E0920F01F09210016AE270E01A
:10547000C8010E942332009731F101960E941D2D30
:105480006B017C0120E030E0A9010E94BA361816B9
:10549000D4F48091420190914301A0914401B091D4
:1054A00045018093EF039093F003A093F103B09331
:1054B000F2033092F803C0921E01D0921F01E092D5
:1054C0002001F092210166E270E0C8010E942332BF
:1054D0000097A1F001960E941D2D6B017C0120E038
:1054E00030E0A9010E94BA36181644F4C0921A019D
:1054F000D0921B01E0921C01F0921D0164E270E069
:10550000C8010E942332009769F02091EA03222308
:1055100049F0DC0111968C91813311F00C94DB1C65
:105520003092CA036EE570E0C8010E9423320097F2
:1055300041F0FC018181813311F00C94E31C309225
:10554000840365E270E0C8010E942332009769F08D
:10555000DC0111969C9180ED890F833030F481E05D
:10556000903309F480E0809308016AE370E0C80199
:105570000E942332009779F1FC01218120532A30C7
:1055800050F59C012F5F3F4FF901919180ED890FFC
:105590008A30D8F3913211F091111DC04AE050E0E9
:1055A00070E060E0C9010E943C2C6B017C01F4E6D4
:1055B000CF1AD108E108F1082DEFC21629EED20664
:1055C000E104F10440F4609322017093230180937D
:1055D0002401909325016BE370E0C8010E942332FF
:1055E000009751F001960E94212D8536910520F4F7
:1055F00090930701809306016CE770E0C8010E9458
:1056000023320097D9F001960E941D2D6B017C0179
:105610002DEC3CEC4CEC5DE30E94F230181614F4D7
:105620000C94EB1C80E090E0A8ECB2E480930201C3
:1056300090930301A0930401B093050161E270E02F
:10564000C8010E942332009759F0DC0111968C9119
:10565000813311F00C94F51C3092EA033092110161
:105660006EE370E0C8010E942332009771F1FC01E3
:10567000218130ED320F3A3020F02B3211F02D32F3
:1056800021F50196FC01219130ED320F3A30D8F32B
:105690002B32C9F333ED320F3230A8F3213211F03F
:1056A000211113C00E941D2D6B017C0120E030E010
:1056B000A9010E94BA3687FD08C0C092C203D092E9
:1056C000C303E092C403F092C5036CE370E0C80129
:1056D0000E9423320097D1F1DC0111962C9130ED1C
:1056E000320F3A3020F02B3211F02D3279F501963D
:1056F000FC01219130ED320F3A30D8F32B32C9F34F
:1057000033ED320F3230A8F3213211F021111EC0D7
:105710000E941D2D6B017C0120E030E040E251E44D
:105720000E94BA3687FD12C020E030E543EC57E412
:10573000C701B6010E94F230181644F0C09212015F
:10574000D0921301E0921401F0921501809162044D
:10575000882311F40C940D1D1092AB041092AA042E
:105760001092610410925C040C947B19012B11F0CF
:105770000C94361980915C0490916104992311F482
:105780000C947819882311F40C94461980916204C2
:10579000811134CE809169040AE614E033CE811180
:1057A0000C94A8220C94C21C88E092E090934A06C4
:1057B000809349068091FC029091FD0289549640A5
:1057C00071F4E0915C06F0915D06908180915E0637
:1057D0008095892380831092FD021092FC02089527
:1057E000AA1BBB1B51E107C0AA1FBB1FA617B70707
:1057F00010F0A61BB70B881F991F5A95A9F7809523
:105800009095BC01CD01089597FB072E16F40094E6
:1058100007D077FD09D00E94F02B07FC05D03EF49D
:10582000909581959F4F0895709561957F4F08954C
:10583000EE0FFF1F0590F491E02D0994EF920F9366
:105840001F93CF93DF93E80134E047FD34E1042E4A
:10585000000C550B57FF03C0519541955109E32E9C
:10586000022F242FAE010E945F2DCE01DF91CF9138
:105870001F910F91EF900895B0E0A0E0E2E4FCE208
:105880000C9461355C016B017A016115710519F0A9
:10589000FB0191838083E114F10449F0C701029771
:1058A000839728F060E070E0CB0192C05E01E501D3
:1058B0001991812F90E00E943F2D892BB9F71D325D
:1058C00009F056C01881E501229601E0E114F104C7
:1058D00009F4A6C0F0E1EF16F10409F086C0103318
:1058E00041F488818F7D883509F07BC0198122962B
:1058F000026040E1E42EF12C88248A94982CA82C94
:105900005FE0B52E20E060E070E0CB0127010F2CB6
:10591000000C66087708E0EDE10FEA3058F03FEB45
:10592000310FE9EC3A3128F03FE9310F3A3198F57F
:10593000E9EAE10FEE151F0474F52F3FB9F0861662
:105940009706A806B90628F1A30192010E94FB342C
:105950002E2F30E050E040E0620F731F841F951F30
:105960006217730784079507A0F021E01991D3CF40
:105970001B3219F41881E501229600E0A7CF38E028
:10598000E32EF12C88248A94982CA82C2FE1B22E97
:10599000B9CF2FEFEBCFC114D10431F02223E9F0BE
:1059A0002197F601D183C08300FF07C090958095B1
:1059B000709561957F4F8F4F9F4F2F3F49F482E243
:1059C00090E09093B4068093B3066FEF7FEFCB0126
:1059D000CDB7DEB7E0E10C947D3501FFE5CF22972E
:1059E000E0CF10E3E114F10451F28AE0E816F1048B
:1059F000E9F0E0E1EE16F10409F47BCFF8E0EF16F0
:105A0000F10409F4BFCF6FEF7FEFCB0197010F2CAB
:105A1000000C440B550B0E940B3549015A0172CF03
:105A2000103309F45ECF9AE0E92EF12C89E9882E33
:105A3000982CA82C89E1B82E65CF662777270C947F
:105A4000C12EFC0188279927E89421912032E9F39F
:105A5000293010F02E30C8F32B3241F02D3239F4BA
:105A6000689404C00E94572D820F911D21912053EC
:105A70002A30C0F31EF4909581959F4F089591119F
:105A80000C94D730803219F089508550C8F70895AA
:105A9000FB01DC014150504048F005900D92002080
:105AA000C9F701C01D9241505040E0F708957AE0D7
:105AB000979F902D879F802D910D11240895A9E027
:105AC000B0E0E5E6FDE20C9465356A01F22EB02EF9
:105AD000102F0BE30B1508F41BE31F5F012F27E0CA
